{
  "_format": "hh-sol-artifact-1",
  "contractName": "DSOMW",
  "sourceName": "contracts/DSOMW.sol",
  "abi": [
    {
      "inputs": [
        {
          "internalType": "uint256",
          "name": "maxVotingTimes",
          "type": "uint256"
        },
        {
          "internalType": "uint256",
          "name": "tpConsumedByProposal",
          "type": "uint256"
        },
        {
          "internalType": "uint256",
          "name": "tpConsumedByVote",
          "type": "uint256"
        },
        {
          "internalType": "uint256",
          "name": "initialUserTp",
          "type": "uint256"
        }
      ],
      "stateMutability": "nonpayable",
      "type": "constructor"
    },
    {
      "inputs": [],
      "name": "BNS",
      "outputs": [
        {
          "internalType": "contract MyERC721",
          "name": "",
          "type": "address"
        }
      ],
      "stateMutability": "view",
      "type": "function"
    },
    {
      "inputs": [],
      "name": "TP",
      "outputs": [
        {
          "internalType": "contract MyERC20",
          "name": "",
          "type": "address"
        }
      ],
      "stateMutability": "view",
      "type": "function"
    },
    {
      "inputs": [
        {
          "internalType": "string",
          "name": "content",
          "type": "string"
        },
        {
          "internalType": "uint256",
          "name": "votingTime",
          "type": "uint256"
        }
      ],
      "name": "addNewProposal",
      "outputs": [],
      "stateMutability": "nonpayable",
      "type": "function"
    },
    {
      "inputs": [],
      "name": "getBonusReward",
      "outputs": [],
      "stateMutability": "nonpayable",
      "type": "function"
    },
    {
      "inputs": [],
      "name": "getMaxVotingTimes",
      "outputs": [
        {
          "internalType": "uint256",
          "name": "",
          "type": "uint256"
        }
      ],
      "stateMutability": "view",
      "type": "function"
    },
    {
      "inputs": [],
      "name": "getProposalIds",
      "outputs": [
        {
          "internalType": "uint256[]",
          "name": "",
          "type": "uint256[]"
        }
      ],
      "stateMutability": "view",
      "type": "function"
    },
    {
      "inputs": [
        {
          "internalType": "uint256",
          "name": "id",
          "type": "uint256"
        },
        {
          "internalType": "uint256",
          "name": "timeNow",
          "type": "uint256"
        }
      ],
      "name": "getProposalInformation",
      "outputs": [
        {
          "internalType": "string",
          "name": "",
          "type": "string"
        },
        {
          "internalType": "address",
          "name": "",
          "type": "address"
        },
        {
          "internalType": "uint256",
          "name": "",
          "type": "uint256"
        },
        {
          "internalType": "uint256",
          "name": "",
          "type": "uint256"
        }
      ],
      "stateMutability": "view",
      "type": "function"
    },
    {
      "inputs": [
        {
          "internalType": "uint256",
          "name": "id",
          "type": "uint256"
        }
      ],
      "name": "getProposalStatus",
      "outputs": [
        {
          "internalType": "enum DSOMW.ProposalStatus",
          "name": "",
          "type": "uint8"
        }
      ],
      "stateMutability": "view",
      "type": "function"
    },
    {
      "inputs": [
        {
          "internalType": "uint256",
          "name": "id",
          "type": "uint256"
        },
        {
          "internalType": "uint256",
          "name": "timeNow",
          "type": "uint256"
        }
      ],
      "name": "getProposalStatus",
      "outputs": [
        {
          "internalType": "enum DSOMW.ProposalStatus",
          "name": "",
          "type": "uint8"
        }
      ],
      "stateMutability": "view",
      "type": "function"
    },
    {
      "inputs": [
        {
          "internalType": "uint256",
          "name": "id",
          "type": "uint256"
        },
        {
          "internalType": "uint256",
          "name": "timeNow",
          "type": "uint256"
        }
      ],
      "name": "getProposalVotesInformation",
      "outputs": [
        {
          "internalType": "uint256[]",
          "name": "",
          "type": "uint256[]"
        },
        {
          "internalType": "uint256[]",
          "name": "",
          "type": "uint256[]"
        },
        {
          "internalType": "address[]",
          "name": "",
          "type": "address[]"
        }
      ],
      "stateMutability": "view",
      "type": "function"
    },
    {
      "inputs": [],
      "name": "getTpConsumedByProposal",
      "outputs": [
        {
          "internalType": "uint256",
          "name": "",
          "type": "uint256"
        }
      ],
      "stateMutability": "view",
      "type": "function"
    },
    {
      "inputs": [],
      "name": "getTpConsumedByVote",
      "outputs": [
        {
          "internalType": "uint256",
          "name": "",
          "type": "uint256"
        }
      ],
      "stateMutability": "view",
      "type": "function"
    },
    {
      "inputs": [
        {
          "internalType": "uint256",
          "name": "id",
          "type": "uint256"
        }
      ],
      "name": "getTpRewardFromProposalApproved",
      "outputs": [],
      "stateMutability": "nonpayable",
      "type": "function"
    },
    {
      "inputs": [],
      "name": "getUserAddresses",
      "outputs": [
        {
          "internalType": "address[]",
          "name": "",
          "type": "address[]"
        }
      ],
      "stateMutability": "view",
      "type": "function"
    },
    {
      "inputs": [],
      "name": "getUserProposalIds",
      "outputs": [
        {
          "internalType": "uint256[]",
          "name": "",
          "type": "uint256[]"
        }
      ],
      "stateMutability": "view",
      "type": "function"
    },
    {
      "inputs": [],
      "name": "getUserVotesInformation",
      "outputs": [
        {
          "internalType": "uint256[]",
          "name": "",
          "type": "uint256[]"
        },
        {
          "internalType": "uint256[]",
          "name": "",
          "type": "uint256[]"
        },
        {
          "internalType": "uint256[]",
          "name": "",
          "type": "uint256[]"
        }
      ],
      "stateMutability": "view",
      "type": "function"
    },
    {
      "inputs": [
        {
          "internalType": "uint256",
          "name": "timeNow",
          "type": "uint256"
        }
      ],
      "name": "getWhetherUserCanGetBonusReward",
      "outputs": [
        {
          "internalType": "bool",
          "name": "",
          "type": "bool"
        }
      ],
      "stateMutability": "view",
      "type": "function"
    },
    {
      "inputs": [
        {
          "internalType": "uint256",
          "name": "id",
          "type": "uint256"
        },
        {
          "internalType": "uint256",
          "name": "timeNow",
          "type": "uint256"
        }
      ],
      "name": "getWhetherUserCanGetTpReward",
      "outputs": [
        {
          "internalType": "bool",
          "name": "",
          "type": "bool"
        }
      ],
      "stateMutability": "view",
      "type": "function"
    },
    {
      "inputs": [
        {
          "internalType": "uint256",
          "name": "userVote",
          "type": "uint256"
        },
        {
          "internalType": "uint256",
          "name": "id",
          "type": "uint256"
        }
      ],
      "name": "voteOnProposal",
      "outputs": [],
      "stateMutability": "nonpayable",
      "type": "function"
    }
  ],
  "bytecode": "0x60806040523480156200001157600080fd5b50604051620058313803806200583183398101604081905262000034916200017e565b6002839055600684905560078290556040518190620000539062000162565b6060808252600a9082015269151bdad95b941bda5b9d60b21b608082015260a06020820181905260029082015261054560f41b60c0820152604081019190915260e001604051809103906000f080158015620000b3573d6000803e3d6000fd5b50600880546001600160a01b0319166001600160a01b0392909216919091179055604051620000e29062000170565b604080825260059082015264426f6e757360d81b606082015260806020820181905260039082015262424e5360e81b60a082015260c001604051809103906000f08015801562000136573d6000803e3d6000fd5b50600980546001600160a01b0319166001600160a01b039290921691909117905550620001b592505050565b610d218062002ceb83390190565b611e258062003a0c83390190565b600080600080608085870312156200019557600080fd5b505082516020840151604085015160609095015191969095509092509050565b612b2680620001c56000396000f3fe608060405234801561001057600080fd5b50600436106101215760003560e01c80637283c2f8116100ad578063a591efde11610071578063a591efde1461026b578063c085c22014610280578063c23ea93314610288578063e06f379a1461029f578063eae488b5146102b257600080fd5b80637283c2f8146102135780638adf5b701461021b57806397d23da914610223578063a0a9a70d14610236578063a1fac4cd1461024957600080fd5b8063401853b7116100f4578063401853b71461017d57806340ba1b1e1461019d5780634894bdc1146101b2578063556f6cc0146101d5578063639807d0146101e857600080fd5b80630fe7ec87146101265780631dd9c60b1461013d5780632137671b1461015257806332c5b0e414610175575b600080fd5b6007545b6040519081526020015b60405180910390f35b61015061014b36600461253a565b6102c5565b005b610165610160366004612553565b6105e3565b60405161013494939291906125bb565b610150610718565b61019061018b36600461253a565b61092a565b6040516101349190612609565b6101a5610b73565b604051610134919061266c565b6101c56101c0366004612553565b610bce565b6040519015158152602001610134565b6101506101e3366004612553565b610c86565b6008546101fb906001600160a01b031681565b6040516001600160a01b039091168152602001610134565b60025461012a565b6101a5611117565b61015061023136600461267f565b611296565b6101c561024436600461253a565b61165a565b61025c610257366004612553565b6117aa565b60405161013493929190612730565b610273611d0a565b6040516101349190612773565b60065461012a565b610290611d6e565b60405161013493929190612786565b6101906102ad366004612553565b6121e0565b6009546101fb906001600160a01b031681565b6102cf8142610bce565b15156001146103375760405162461bcd60e51b815260206004820152602960248201527f596f752063616e2774206765742054502072657761726420666f7220736f6d65604482015268103932b0b9b7b7399760b91b60648201526084015b60405180910390fd5b6000818152602081905260408120600401805460ff1916600117905580805b60055481101561051e576000600460000160006004600101848154811061037f5761037f6127bf565b60009182526020808320909101546001600160a01b0316835282810193909352604091820181208882528352818120805483518186028101860190945280845292939092919084015b8282101561046a576000848152602090206040805160808101909152600384029091018054829060ff166001811115610403576104036125f3565b6001811115610414576104146125f3565b81526020016000820160019054906101000a90046001600160a01b03166001600160a01b03166001600160a01b0316815260200160018201548152602001600282015481525050815260200190600101906103c8565b50505050905060008151111561050b576000816001835161048b91906127eb565b8151811061049b5761049b6127bf565b602002602001015190506001808111156104b7576104b76125f3565b815160018111156104ca576104ca6125f3565b036104e157846104d9816127fe565b955050610509565b6000815160018111156104f6576104f66125f3565b036105095783610505816127fe565b9450505b505b5080610516816127fe565b915050610356565b600854600085815260208190526040902060029081015490546007546001600160a01b039384169363a9059cbb931691906105598789612817565b610563919061282a565b61056d9190612817565b6040516001600160e01b031960e085901b1681526001600160a01b03909216600483015260248201526044016020604051808303816000875af11580156105b8573d6000803e3d6000fd5b505050506040513d601f19601f820116820180604052508101906105dc9190612841565b5050505050565b600082815260208190526040812060040154606091908190819060ff6101009091041615156001146106275760405162461bcd60e51b815260040161032e90612863565b600061063387876121e0565b6002811115610644576106446125f3565b6000888152602081905260408120600101805492935090916106659061289a565b80601f01602080910402602001604051908101604052809291908181526020018280546106919061289a565b80156106de5780601f106106b3576101008083540402835291602001916106de565b820191906000526020600020905b8154815290600101906020018083116106c157829003601f168201915b50505060009a8b52505060208990526040909820600281015460039091015498996001600160a01b03909116989750919550909350505050565b6107214261165a565b15156001146107875760405162461bcd60e51b815260206004820152602c60248201527f596f752063616e27742067657420626f6e75732072657761726420666f72207360448201526b37b6b2903932b0b9b7b7399760a11b606482015260840161032e565b6000610791611117565b90506000805b82518210156107fa5760026107c48484815181106107b7576107b76127bf565b602002602001015161092a565b60028111156107d5576107d56125f3565b036107e857806107e4816127fe565b9150505b816107f2816127fe565b925050610797565b6003811061092557600061080f6003836128ea565b905060015b8181116105dc576009546001600160a01b031663a378496f3361084061083b85600361282a565b612423565b6040518363ffffffff1660e01b815260040161085d9291906128fe565b602060405180830381865afa15801561087a573d6000803e3d6000fd5b505050506040513d601f19601f8201168201806040525081019061089e9190612841565b15610913576009546001600160a01b031663cf378343336108c361083b85600361282a565b6040518363ffffffff1660e01b81526004016108e09291906128fe565b600060405180830381600087803b1580156108fa57600080fd5b505af115801561090e573d6000803e3d6000fd5b505050505b8061091d816127fe565b915050610814565b505050565b60008181526020819052604081206004015460ff6101009091041615156001146109665760405162461bcd60e51b815260040161032e90612863565b600082815260208190526040902060030154421115610b6b5760008060005b600554811015610b4d57600060046000016000600460010184815481106109ae576109ae6127bf565b60009182526020808320909101546001600160a01b0316835282810193909352604091820181208982528352818120805483518186028101860190945280845292939092919084015b82821015610a99576000848152602090206040805160808101909152600384029091018054829060ff166001811115610a3257610a326125f3565b6001811115610a4357610a436125f3565b81526020016000820160019054906101000a90046001600160a01b03166001600160a01b03166001600160a01b0316815260200160018201548152602001600282015481525050815260200190600101906109f7565b505050509050600081511115610b3a5760008160018351610aba91906127eb565b81518110610aca57610aca6127bf565b60200260200101519050600180811115610ae657610ae66125f3565b81516001811115610af957610af96125f3565b03610b105784610b08816127fe565b955050610b38565b600081516001811115610b2557610b256125f3565b03610b385783610b34816127fe565b9450505b505b5080610b45816127fe565b915050610985565b81831115610b6057506002949350505050565b506001949350505050565b506000919050565b60606000600101805480602002602001604051908101604052809291908181526020018280548015610bc457602002820191906000526020600020905b815481526020019060010190808311610bb0575b5050505050905090565b60008281526020819052604081206004015460ff610100909104161515600114610c0a5760405162461bcd60e51b815260040161032e90612863565b6000838152602081905260409020600201546001600160a01b03163314610c3357506000610c80565b6002610c3f84846121e0565b6002811115610c5057610c506125f3565b148015610c6f575060008381526020819052604090206004015460ff16155b15610c7c57506001610c80565b5060005b92915050565b6000610c918261092a565b6002811115610ca257610ca26125f3565b14610d155760405162461bcd60e51b815260206004820152603a60248201527f556e61626c6520746f20766f7465206f6e20746869732070726f706f73616c2060448201527f6265636175736520766f74696e672068617320636c6f7365642e000000000000606482015260840161032e565b60065433600090815260046020908152604080832085845290915290205410610dc45760405162461bcd60e51b815260206004820152605560248201527f556e61626c6520746f20766f7465206f6e20746869732070726f706f73616c2060448201527f6265636175736520746865206d6178696d756d206e756d626572206f6620766f6064820152743a32b9903430b9903132b2b7103932b0b1b432b21760591b608482015260a40161032e565b6007546008546040516370a0823160e01b81523360048201526001600160a01b03909116906370a0823190602401602060405180830381865afa158015610e0f573d6000803e3d6000fd5b505050506040513d601f19601f82011682018060405250810190610e33919061292a565b1015610e815760405162461bcd60e51b815260206004820152601c60248201527f556e61626c6520746f206166666f72642061206e657720766f74652e00000000604482015260640161032e565b600754600854604051636eb1769f60e11b81523360048201523060248201526001600160a01b039091169063dd62ed3e90604401602060405180830381865afa158015610ed2573d6000803e3d6000fd5b505050506040513d601f19601f82011682018060405250810190610ef6919061292a565b1015610f145760405162461bcd60e51b815260040161032e90612943565b6008546007546040516323b872dd60e01b815233600482015230602482015260448101919091526001600160a01b03909116906323b872dd906064016020604051808303816000875af1158015610f6f573d6000803e3d6000fd5b505050506040513d601f19601f82011682018060405250810190610f939190612841565b5060006040518060800160405280846001811115610fb357610fb36125f3565b6001811115610fc457610fc46125f3565b8152336020808301829052426040808501919091526060909301869052600091825260048152828220868352815291812080546001818101835591835292909120835160039093020180549394508493909291839160ff191690838181111561102f5761102f6125f3565b0217905550602082015181546001600160a01b0390911661010002610100600160a81b0319909116178155604082015160018201556060909101516002909101556000805b6005548210156110c9576005805433919084908110611095576110956127bf565b6000918252602090912001546001600160a01b0316036110b7575060016110c9565b816110c1816127fe565b925050611074565b806105dc57600580546001810182556000919091527f036b6384b5eca791c62761152d0c79bb0604c104a5fb6f4eb0703f3154bb3db00180546001600160a01b031916331790555050505050565b60606000805b6001548110156111905760018054339160009182919085908110611143576111436127bf565b600091825260208083209091015483528201929092526040019020600201546001600160a01b03160361117e578161117a816127fe565b9250505b80611188816127fe565b91505061111d565b60008267ffffffffffffffff8111156111ab576111ab6129a1565b6040519080825280602002602001820160405280156111d4578160200160208202803683370190505b50905060009250600091505b60015482101561128f5760018054339160009182919086908110611206576112066127bf565b600091825260208083209091015483528201929092526040019020600201546001600160a01b03160361127d576001805483908110611247576112476127bf565b9060005260206000200154818481518110611264576112646127bf565b602090810291909101015282611279816127fe565b9350505b81611287816127fe565b9250506111e0565b9392505050565b6002546008546040516370a0823160e01b81523360048201526001600160a01b03909116906370a0823190602401602060405180830381865afa1580156112e1573d6000803e3d6000fd5b505050506040513d601f19601f82011682018060405250810190611305919061292a565b10156113535760405162461bcd60e51b815260206004820181905260248201527f556e61626c6520746f206166666f72642061206e65772070726f706f73616c2e604482015260640161032e565b600254600854604051636eb1769f60e11b81523360048201523060248201526001600160a01b039091169063dd62ed3e90604401602060405180830381865afa1580156113a4573d6000803e3d6000fd5b505050506040513d601f19601f820116820180604052508101906113c8919061292a565b10156113e65760405162461bcd60e51b815260040161032e90612943565b6008546002546040516323b872dd60e01b815233600482015230602482015260448101919091526001600160a01b03909116906323b872dd906064016020604051808303816000875af1158015611441573d6000803e3d6000fd5b505050506040513d601f19601f820116820180604052508101906114659190612841565b50600061147160035490565b905060006040518060c0016040528083815260200186868080601f0160208091040260200160405190810160405280939291908181526020018383808284376000920191909152505050908252503360208201526040016114d28542612817565b815260006020808301829052600160409384018190528683528282529290912083518155908301519293508392909182019061150e9082612a05565b5060408201516002820180546001600160a01b0319166001600160a01b03909216919091179055606082015160038083019190915560808301516004909201805460a09094015161ffff1990941692151561ff001916929092176101009315159390930292909217905560018054808201825560008290527fb10e2d527612073b26eecdfd717e6a320cf44b4afac2b0732d9fcbe2b7fa0cf60184905581540190556000805b6005548210156116095760058054339190849081106115d5576115d56127bf565b6000918252602090912001546001600160a01b0316036115f757506001611609565b81611601816127fe565b9250506115b4565b8061165157600580546001810182556000919091527f036b6384b5eca791c62761152d0c79bb0604c104a5fb6f4eb0703f3154bb3db00180546001600160a01b031916331790555b50505050505050565b600080611665611117565b90506000805b82518210156116cf57600261169984848151811061168b5761168b6127bf565b6020026020010151876121e0565b60028111156116aa576116aa6125f3565b036116bd57806116b9816127fe565b9150505b816116c7816127fe565b92505061166b565b6003811061179f5760006116e46003836128ea565b905060015b818111611792576009546001600160a01b031663a378496f3361171061083b85600361282a565b6040518363ffffffff1660e01b815260040161172d9291906128fe565b602060405180830381865afa15801561174a573d6000803e3d6000fd5b505050506040513d601f19601f8201168201806040525081019061176e9190612841565b15611780575060019695505050505050565b8061178a816127fe565b9150506116e9565b5060009695505050505050565b506000949350505050565b606080806000805b6005548210156118f757600060046000016000600460010185815481106117db576117db6127bf565b60009182526020808320909101546001600160a01b0316835282810193909352604091820181208b82528352818120805483518186028101860190945280845292939092919084015b828210156118c6576000848152602090206040805160808101909152600384029091018054829060ff16600181111561185f5761185f6125f3565b6001811115611870576118706125f3565b81526020016000820160019054906101000a90046001600160a01b03166001600160a01b03166001600160a01b031681526020016001820154815260200160028201548152505081526020019060010190611824565b5050505090506000815111156118e457816118e0816127fe565b9250505b50816118ef816127fe565b9250506117b2565b60008167ffffffffffffffff811115611912576119126129a1565b60405190808252806020026020018201604052801561193b578160200160208202803683370190505b50905060008267ffffffffffffffff811115611959576119596129a1565b604051908082528060200260200182016040528015611982578160200160208202803683370190505b50905060008367ffffffffffffffff8111156119a0576119a06129a1565b6040519080825280602002602001820160405280156119c9578160200160208202803683370190505b50905060009350600094505b600554851015611c1257600060046000016000600460010188815481106119fe576119fe6127bf565b60009182526020808320909101546001600160a01b0316835282810193909352604091820181208e82528352818120805483518186028101860190945280845292939092919084015b82821015611ae9576000848152602090206040805160808101909152600384029091018054829060ff166001811115611a8257611a826125f3565b6001811115611a9357611a936125f3565b81526020016000820160019054906101000a90046001600160a01b03166001600160a01b03166001600160a01b031681526020016001820154815260200160028201548152505081526020019060010190611a47565b505050509050600081511115611bff578060018251611b0891906127eb565b81518110611b1857611b186127bf565b6020026020010151600001516001811115611b3557611b356125f3565b848681518110611b4757611b476127bf565b6020026020010181815250508060018251611b6291906127eb565b81518110611b7257611b726127bf565b602002602001015160400151838681518110611b9057611b906127bf565b6020026020010181815250508060018251611bab91906127eb565b81518110611bbb57611bbb6127bf565b602002602001015160200151828681518110611bd957611bd96127bf565b6001600160a01b039092166020928302919091019091015284611bfb816127fe565b9550505b5084611c0a816127fe565b9550506119d5565b60008a8152602081905260409020600201546001600160a01b0316331480611c5557506000611c418b8b6121e0565b6002811115611c5257611c526125f3565b14155b15611c695791965094509250611d03915050565b8367ffffffffffffffff811115611c8257611c826129a1565b604051908082528060200260200182016040528015611cab578160200160208202803683370190505b5091508367ffffffffffffffff811115611cc757611cc76129a1565b604051908082528060200260200182016040528015611cf0578160200160208202803683370190505b50929750909550909350611d0392505050565b9250925092565b60606004600101805480602002602001604051908101604052809291908181526020018280548015610bc457602002820191906000526020600020905b81546001600160a01b03168152600190910190602001808311611d47575050505050905090565b60608080600080805b600154831015611ed3573360009081526004602052604081206001805483919087908110611da757611da76127bf565b90600052602060002001548152602001908152602001600020805480602002602001604051908101604052809291908181526020016000905b82821015611e82576000848152602090206040805160808101909152600384029091018054829060ff166001811115611e1b57611e1b6125f3565b6001811115611e2c57611e2c6125f3565b81526020016000820160019054906101000a90046001600160a01b03166001600160a01b03166001600160a01b031681526020016001820154815260200160028201548152505081526020019060010190611de0565b505050509050600081511115611ec057600092505b8051831015611ec05781611eaa816127fe565b9250508280611eb8906127fe565b935050611e97565b5082611ecb816127fe565b935050611d77565b60008167ffffffffffffffff811115611eee57611eee6129a1565b604051908082528060200260200182016040528015611f17578160200160208202803683370190505b50905060008267ffffffffffffffff811115611f3557611f356129a1565b604051908082528060200260200182016040528015611f5e578160200160208202803683370190505b50905060008367ffffffffffffffff811115611f7c57611f7c6129a1565b604051908082528060200260200182016040528015611fa5578160200160208202803683370190505b50905060009350600095505b6001548610156121d157336000908152600460205260408120600180548391908a908110611fe157611fe16127bf565b90600052602060002001548152602001908152602001600020805480602002602001604051908101604052809291908181526020016000905b828210156120bc576000848152602090206040805160808101909152600384029091018054829060ff166001811115612055576120556125f3565b6001811115612066576120666125f3565b81526020016000820160019054906101000a90046001600160a01b03166001600160a01b03166001600160a01b03168152602001600182015481526020016002820154815250508152602001906001019061201a565b5050505090506000815111156121be57600095505b80518610156121be578086815181106120ec576120ec6127bf565b6020026020010151600001516001811115612109576121096125f3565b84868151811061211b5761211b6127bf565b602002602001018181525050808681518110612139576121396127bf565b602002602001015160400151838681518110612157576121576127bf565b602002602001018181525050808681518110612175576121756127bf565b602002602001015160600151828681518110612193576121936127bf565b6020908102919091010152846121a8816127fe565b95505085806121b6906127fe565b9650506120d1565b50856121c9816127fe565b965050611fb1565b91989097509095509350505050565b60008281526020819052604081206004015460ff61010090910416151560011461221c5760405162461bcd60e51b815260040161032e90612863565b600083815260208190526040902060030154821115610c7c5760008060005b6005548110156124035760006004600001600060046001018481548110612264576122646127bf565b60009182526020808320909101546001600160a01b0316835282810193909352604091820181208a82528352818120805483518186028101860190945280845292939092919084015b8282101561234f576000848152602090206040805160808101909152600384029091018054829060ff1660018111156122e8576122e86125f3565b60018111156122f9576122f96125f3565b81526020016000820160019054906101000a90046001600160a01b03166001600160a01b03166001600160a01b0316815260200160018201548152602001600282015481525050815260200190600101906122ad565b5050505090506000815111156123f0576000816001835161237091906127eb565b81518110612380576123806127bf565b6020026020010151905060018081111561239c5761239c6125f3565b815160018111156123af576123af6125f3565b036123c657846123be816127fe565b9550506123ee565b6000815160018111156123db576123db6125f3565b036123ee57836123ea816127fe565b9450505b505b50806123fb816127fe565b91505061223b565b818311156124175760029350505050610c80565b60019350505050610c80565b60608160000361244a5750506040805180820190915260018152600360fc1b602082015290565b8160005b8115612474578061245e816127fe565b915061246d9050600a836128ea565b915061244e565b60008167ffffffffffffffff81111561248f5761248f6129a1565b6040519080825280601f01601f1916602001820160405280156124b9576020820181803683370190505b50905060006124c96001846127eb565b90505b8515612531576124dd600a87612ac5565b6124e8906030612817565b60f81b82826124f681612ad9565b935081518110612508576125086127bf565b60200101906001600160f81b031916908160001a90535061252a600a876128ea565b95506124cc565b50949350505050565b60006020828403121561254c57600080fd5b5035919050565b6000806040838503121561256657600080fd5b50508035926020909101359150565b6000815180845260005b8181101561259b5760208185018101518683018201520161257f565b506000602082860101526020601f19601f83011685010191505092915050565b6080815260006125ce6080830187612575565b6001600160a01b03959095166020830152506040810192909252606090910152919050565b634e487b7160e01b600052602160045260246000fd5b602081016003831061262b57634e487b7160e01b600052602160045260246000fd5b91905290565b600081518084526020808501945080840160005b8381101561266157815187529582019590820190600101612645565b509495945050505050565b60208152600061128f6020830184612631565b60008060006040848603121561269457600080fd5b833567ffffffffffffffff808211156126ac57600080fd5b818601915086601f8301126126c057600080fd5b8135818111156126cf57600080fd5b8760208285010111156126e157600080fd5b6020928301989097509590910135949350505050565b600081518084526020808501945080840160005b838110156126615781516001600160a01b03168752958201959082019060010161270b565b6060815260006127436060830186612631565b82810360208401526127558186612631565b9050828103604084015261276981856126f7565b9695505050505050565b60208152600061128f60208301846126f7565b6060815260006127996060830186612631565b82810360208401526127ab8186612631565b905082810360408401526127698185612631565b634e487b7160e01b600052603260045260246000fd5b634e487b7160e01b600052601160045260246000fd5b81810381811115610c8057610c806127d5565b600060018201612810576128106127d5565b5060010190565b80820180821115610c8057610c806127d5565b8082028115828204841417610c8057610c806127d5565b60006020828403121561285357600080fd5b8151801515811461128f57600080fd5b6020808252601c908201527f546869732070726f706f73616c20646f65736e27742065786973742e00000000604082015260600190565b600181811c908216806128ae57607f821691505b6020821081036128ce57634e487b7160e01b600052602260045260246000fd5b50919050565b634e487b7160e01b600052601260045260246000fd5b6000826128f9576128f96128d4565b500490565b6001600160a01b038316815260406020820181905260009061292290830184612575565b949350505050565b60006020828403121561293c57600080fd5b5051919050565b602080825260409082018190527f44534f4d5720646f6e2774206861766520616c6c6f77616e6365206f76657220908201527f796f75722054502e20506c6561736520617574686f72697a652044534f4d572e606082015260800190565b634e487b7160e01b600052604160045260246000fd5b601f82111561092557600081815260208120601f850160051c810160208610156129de5750805b601f850160051c820191505b818110156129fd578281556001016129ea565b505050505050565b815167ffffffffffffffff811115612a1f57612a1f6129a1565b612a3381612a2d845461289a565b846129b7565b602080601f831160018114612a685760008415612a505750858301515b600019600386901b1c1916600185901b1785556129fd565b600085815260208120601f198616915b82811015612a9757888601518255948401946001909101908401612a78565b5085821015612ab55787850151600019600388901b60f8161c191681555b5050505050600190811b01905550565b600082612ad457612ad46128d4565b500690565b600081612ae857612ae86127d5565b50600019019056fea26469706673582212205972f81f7288b3e2fd3cf4be527a58514a619c49764936b22d4b787f39c8033d64736f6c6343000811003360806040523480156200001157600080fd5b5060405162000d2138038062000d21833981016040819052620000349162000127565b8282600362000044838262000229565b50600462000053828262000229565b50505060055550620002f59050565b634e487b7160e01b600052604160045260246000fd5b600082601f8301126200008a57600080fd5b81516001600160401b0380821115620000a757620000a762000062565b604051601f8301601f19908116603f01168101908282118183101715620000d257620000d262000062565b81604052838152602092508683858801011115620000ef57600080fd5b600091505b83821015620001135785820183015181830184015290820190620000f4565b600093810190920192909252949350505050565b6000806000606084860312156200013d57600080fd5b83516001600160401b03808211156200015557600080fd5b620001638783880162000078565b945060208601519150808211156200017a57600080fd5b50620001898682870162000078565b925050604084015190509250925092565b600181811c90821680620001af57607f821691505b602082108103620001d057634e487b7160e01b600052602260045260246000fd5b50919050565b601f8211156200022457600081815260208120601f850160051c81016020861015620001ff5750805b601f850160051c820191505b8181101562000220578281556001016200020b565b5050505b505050565b81516001600160401b0381111562000245576200024562000062565b6200025d816200025684546200019a565b84620001d6565b602080601f8311600181146200029557600084156200027c5750858301515b600019600386901b1c1916600185901b17855562000220565b600085815260208120601f198616915b82811015620002c657888601518255948401946001909101908401620002a5565b5085821015620002e55787850151600019600388901b60f8161c191681555b5050505050600190811b01905550565b610a1c80620003056000396000f3fe608060405234801561001057600080fd5b50600436106100cf5760003560e01c8063395093511161008c57806395d89b411161006657806395d89b4114610197578063a457c2d71461019f578063a9059cbb146101b2578063dd62ed3e146101c557600080fd5b806339509351146101535780634e21575e1461016657806370a082311461016e57600080fd5b806306fdde03146100d4578063095ea7b3146100f257806318160ddd1461011557806323b872dd146101275780632e07a2df1461013a578063313ce56714610144575b600080fd5b6100dc6101d8565b6040516100e99190610866565b60405180910390f35b6101056101003660046108d0565b61026a565b60405190151581526020016100e9565b6002545b6040519081526020016100e9565b6101056101353660046108fa565b610284565b6101426102a8565b005b604051601281526020016100e9565b6101056101613660046108d0565b610336565b600554610119565b61011961017c366004610936565b6001600160a01b031660009081526020819052604090205490565b6100dc610358565b6101056101ad3660046108d0565b610367565b6101056101c03660046108d0565b6103e2565b6101196101d3366004610958565b6103f0565b6060600380546101e79061098b565b80601f01602080910402602001604051908101604052809291908181526020018280546102139061098b565b80156102605780601f1061023557610100808354040283529160200191610260565b820191906000526020600020905b81548152906001019060200180831161024357829003601f168201915b5050505050905090565b60003361027881858561041b565b60019150505b92915050565b60003361029285828561053f565b61029d8585856105b9565b506001949350505050565b3360009081526006602052604090205460ff161561030d5760405162461bcd60e51b815260206004820152601760248201527f596f75206861766520676f7420545020616c726561647900000000000000000060448201526064015b60405180910390fd5b336000818152600660205260409020805460ff191660011790556005546103349190610787565b565b60003361027881858561034983836103f0565b61035391906109c5565b61041b565b6060600480546101e79061098b565b6000338161037582866103f0565b9050838110156103d55760405162461bcd60e51b815260206004820152602560248201527f45524332303a2064656372656173656420616c6c6f77616e63652062656c6f77604482015264207a65726f60d81b6064820152608401610304565b61029d828686840361041b565b6000336102788185856105b9565b6001600160a01b03918216600090815260016020908152604080832093909416825291909152205490565b6001600160a01b03831661047d5760405162461bcd60e51b8152602060048201526024808201527f45524332303a20617070726f76652066726f6d20746865207a65726f206164646044820152637265737360e01b6064820152608401610304565b6001600160a01b0382166104de5760405162461bcd60e51b815260206004820152602260248201527f45524332303a20617070726f766520746f20746865207a65726f206164647265604482015261737360f01b6064820152608401610304565b6001600160a01b0383811660008181526001602090815260408083209487168084529482529182902085905590518481527f8c5be1e5ebec7d5bd14f71427d1e84f3dd0314c0f7b2291e5b200ac8c7c3b925910160405180910390a3505050565b600061054b84846103f0565b905060001981146105b357818110156105a65760405162461bcd60e51b815260206004820152601d60248201527f45524332303a20696e73756666696369656e7420616c6c6f77616e63650000006044820152606401610304565b6105b3848484840361041b565b50505050565b6001600160a01b03831661061d5760405162461bcd60e51b815260206004820152602560248201527f45524332303a207472616e736665722066726f6d20746865207a65726f206164604482015264647265737360d81b6064820152608401610304565b6001600160a01b03821661067f5760405162461bcd60e51b815260206004820152602360248201527f45524332303a207472616e7366657220746f20746865207a65726f206164647260448201526265737360e81b6064820152608401610304565b6001600160a01b038316600090815260208190526040902054818110156106f75760405162461bcd60e51b815260206004820152602660248201527f45524332303a207472616e7366657220616d6f756e7420657863656564732062604482015265616c616e636560d01b6064820152608401610304565b6001600160a01b0380851660009081526020819052604080822085850390559185168152908120805484929061072e9084906109c5565b92505081905550826001600160a01b0316846001600160a01b03167fddf252ad1be2c89b69c2b068fc378daa952ba7f163c4a11628f55a4df523b3ef8460405161077a91815260200190565b60405180910390a36105b3565b6001600160a01b0382166107dd5760405162461bcd60e51b815260206004820152601f60248201527f45524332303a206d696e7420746f20746865207a65726f2061646472657373006044820152606401610304565b80600260008282546107ef91906109c5565b90915550506001600160a01b0382166000908152602081905260408120805483929061081c9084906109c5565b90915550506040518181526001600160a01b038316906000907fddf252ad1be2c89b69c2b068fc378daa952ba7f163c4a11628f55a4df523b3ef9060200160405180910390a35050565b600060208083528351808285015260005b8181101561089357858101830151858201604001528201610877565b506000604082860101526040601f19601f8301168501019250505092915050565b80356001600160a01b03811681146108cb57600080fd5b919050565b600080604083850312156108e357600080fd5b6108ec836108b4565b946020939093013593505050565b60008060006060848603121561090f57600080fd5b610918846108b4565b9250610926602085016108b4565b9150604084013590509250925092565b60006020828403121561094857600080fd5b610951826108b4565b9392505050565b6000806040838503121561096b57600080fd5b610974836108b4565b9150610982602084016108b4565b90509250929050565b600181811c9082168061099f57607f821691505b6020821081036109bf57634e487b7160e01b600052602260045260246000fd5b50919050565b8082018082111561027e57634e487b7160e01b600052601160045260246000fdfea264697066735822122064dd6708347bad989b6f294e94d1de53a41b418e96bdd9aa6b9c1557a276dcc164736f6c6343000811003360806040523480156200001157600080fd5b5060405162001e2538038062001e25833981016040819052620000349162000136565b818160006200004483826200022f565b5060016200005382826200022f565b5050600880546001600160a01b0319163317905550620002fb915050565b634e487b7160e01b600052604160045260246000fd5b600082601f8301126200009957600080fd5b81516001600160401b0380821115620000b657620000b662000071565b604051601f8301601f19908116603f01168101908282118183101715620000e157620000e162000071565b81604052838152602092508683858801011115620000fe57600080fd5b600091505b8382101562000122578582018301518183018401529082019062000103565b600093810190920192909252949350505050565b600080604083850312156200014a57600080fd5b82516001600160401b03808211156200016257600080fd5b620001708683870162000087565b935060208501519150808211156200018757600080fd5b50620001968582860162000087565b9150509250929050565b600181811c90821680620001b557607f821691505b602082108103620001d657634e487b7160e01b600052602260045260246000fd5b50919050565b601f8211156200022a57600081815260208120601f850160051c81016020861015620002055750805b601f850160051c820191505b81811015620002265782815560010162000211565b5050505b505050565b81516001600160401b038111156200024b576200024b62000071565b62000263816200025c8454620001a0565b84620001dc565b602080601f8311600181146200029b5760008415620002825750858301515b600019600386901b1c1916600185901b17855562000226565b600085815260208120601f198616915b82811015620002cc57888601518255948401946001909101908401620002ab565b5085821015620002eb5787850151600019600388901b60f8161c191681555b5050505050600190811b01905550565b611b1a806200030b6000396000f3fe608060405234801561001057600080fd5b50600436106101005760003560e01c806370a0823111610097578063b88d4fde11610066578063b88d4fde1461022c578063c87b56dd1461023f578063cf37834314610252578063e985e9c51461026557600080fd5b806370a08231146101dd57806395d89b41146101fe578063a22cb46514610206578063a378496f1461021957600080fd5b806323b872dd116100d357806323b872dd146101825780633d4d04e11461019557806342842e0e146101b75780636352211e146101ca57600080fd5b806301ffc9a71461010557806306fdde031461012d578063081812fc14610142578063095ea7b31461016d575b600080fd5b6101186101133660046113df565b6102a1565b60405190151581526020015b60405180910390f35b6101356102f3565b604051610124919061144c565b61015561015036600461145f565b610385565b6040516001600160a01b039091168152602001610124565b61018061017b366004611494565b6103ac565b005b6101806101903660046114be565b6104c6565b6101a86101a33660046114fa565b6104f7565b60405161012493929190611550565b6101806101c53660046114be565b61071b565b6101556101d836600461145f565b610736565b6101f06101eb3660046114fa565b610796565b604051908152602001610124565b61013561081c565b6101806102143660046115d5565b61082b565b61011861022736600461169d565b61083a565b61018061023a3660046116ff565b61087d565b61013561024d36600461145f565b6108b5565b61018061026036600461169d565b6109c5565b61011861027336600461177b565b6001600160a01b03918216600090815260056020908152604080832093909416825291909152205460ff1690565b60006001600160e01b031982166380ac58cd60e01b14806102d257506001600160e01b03198216635b5e139f60e01b145b806102ed57506301ffc9a760e01b6001600160e01b03198316145b92915050565b606060008054610302906117ae565b80601f016020809104026020016040519081016040528092919081815260200182805461032e906117ae565b801561037b5780601f106103505761010080835404028352916020019161037b565b820191906000526020600020905b81548152906001019060200180831161035e57829003601f168201915b5050505050905090565b600061039082610b93565b506000908152600460205260409020546001600160a01b031690565b60006103b782610736565b9050806001600160a01b0316836001600160a01b0316036104295760405162461bcd60e51b815260206004820152602160248201527f4552433732313a20617070726f76616c20746f2063757272656e74206f776e656044820152603960f91b60648201526084015b60405180910390fd5b336001600160a01b038216148061044557506104458133610273565b6104b75760405162461bcd60e51b815260206004820152603e60248201527f4552433732313a20617070726f76652063616c6c6572206973206e6f7420746f60448201527f6b656e206f776e6572206e6f7220617070726f76656420666f7220616c6c00006064820152608401610420565b6104c18383610bf5565b505050565b6104d03382610c63565b6104ec5760405162461bcd60e51b8152600401610420906117e8565b6104c1838383610ce1565b60608060608060608060008080600960000160008b6001600160a01b03166001600160a01b03168152602001908152602001600020805480602002602001604051908101604052809291908181526020016000905b82821015610624578382906000526020600020906003020160405180606001604052908160008201548152602001600182018054610589906117ae565b80601f01602080910402602001604051908101604052809291908181526020018280546105b5906117ae565b80156106025780601f106105d757610100808354040283529160200191610602565b820191906000526020600020905b8154815290600101906020018083116105e557829003601f168201915b505050505081526020016002820154815250508152602001906001019061054c565b505050509050600091505b805182101561070a5780828151811061064a5761064a611836565b60200260200101516000015186848151811061066857610668611836565b60200260200101818152505080828151811061068657610686611836565b6020026020010151602001518584815181106106a4576106a4611836565b60200260200101819052508082815181106106c1576106c1611836565b6020026020010151604001518484815181106106df576106df611836565b6020908102919091010152826106f481611862565b935050818061070290611862565b92505061062f565b509398929750909550909350505050565b6104c18383836040518060200160405280600081525061087d565b6000818152600260205260408120546001600160a01b0316806102ed5760405162461bcd60e51b8152602060048201526018602482015277115490cdcc8c4e881a5b9d985b1a59081d1bdad95b88125160421b6044820152606401610420565b60006001600160a01b0382166108005760405162461bcd60e51b815260206004820152602960248201527f4552433732313a2061646472657373207a65726f206973206e6f7420612076616044820152683634b21037bbb732b960b91b6064820152608401610420565b506001600160a01b031660009081526003602052604090205490565b606060018054610302906117ae565b610836338383610e7d565b5050565b6000600a8260405161084c919061187b565b90815260408051602092819003830190206001600160a01b0386166000908152925290205460ff1615905092915050565b6108873383610c63565b6108a35760405162461bcd60e51b8152600401610420906117e8565b6108af84848484610f4b565b50505050565b60606108c082610b93565b600082815260066020526040812080546108d9906117ae565b80601f0160208091040260200160405190810160405280929190818152602001828054610905906117ae565b80156109525780601f1061092757610100808354040283529160200191610952565b820191906000526020600020905b81548152906001019060200180831161093557829003601f168201915b50505050509050600061097060408051602081019091526000815290565b90508051600003610982575092915050565b8151156109b457808260405160200161099c929190611897565b60405160208183030381529060405292505050919050565b6109bd84610f7e565b949350505050565b6008546001600160a01b03163314610a325760405162461bcd60e51b815260206004820152602a60248201527f4f6e6c792073797374656d2063616e206163636573732061776172644974656d60448201526910333ab731ba34b7b71760b11b6064820152608401610420565b600a81604051610a42919061187b565b9081526040805160209281900383019020336000908152925290205460ff1615610abe5760405162461bcd60e51b815260206004820152602760248201527f596f75206861766520676f742074686973206b696e64206f6620626f6e757320604482015266616c726561647960c81b6064820152608401610420565b6001600a82604051610ad0919061187b565b908152604080516020928190038301902033600090815292528120805460ff1916921515929092179091556007549050610b0a8382610ff2565b610b148183611134565b610b22600780546001019055565b60408051606081018252828152602080820185815242838501526001600160a01b038716600090815260098352938420805460018181018355918652929094208351600390930201918255519192839290820190610b809082611914565b5060408201518160020155505050505050565b6000818152600260205260409020546001600160a01b0316610bf25760405162461bcd60e51b8152602060048201526018602482015277115490cdcc8c4e881a5b9d985b1a59081d1bdad95b88125160421b6044820152606401610420565b50565b600081815260046020526040902080546001600160a01b0319166001600160a01b0384169081179091558190610c2a82610736565b6001600160a01b03167f8c5be1e5ebec7d5bd14f71427d1e84f3dd0314c0f7b2291e5b200ac8c7c3b92560405160405180910390a45050565b600080610c6f83610736565b9050806001600160a01b0316846001600160a01b03161480610cb657506001600160a01b0380821660009081526005602090815260408083209388168352929052205460ff165b806109bd5750836001600160a01b0316610ccf84610385565b6001600160a01b031614949350505050565b826001600160a01b0316610cf482610736565b6001600160a01b031614610d585760405162461bcd60e51b815260206004820152602560248201527f4552433732313a207472616e736665722066726f6d20696e636f72726563742060448201526437bbb732b960d91b6064820152608401610420565b6001600160a01b038216610dba5760405162461bcd60e51b8152602060048201526024808201527f4552433732313a207472616e7366657220746f20746865207a65726f206164646044820152637265737360e01b6064820152608401610420565b610dc5600082610bf5565b6001600160a01b0383166000908152600360205260408120805460019290610dee9084906119d4565b90915550506001600160a01b0382166000908152600360205260408120805460019290610e1c9084906119e7565b909155505060008181526002602052604080822080546001600160a01b0319166001600160a01b0386811691821790925591518493918716917fddf252ad1be2c89b69c2b068fc378daa952ba7f163c4a11628f55a4df523b3ef91a4505050565b816001600160a01b0316836001600160a01b031603610ede5760405162461bcd60e51b815260206004820152601960248201527f4552433732313a20617070726f766520746f2063616c6c6572000000000000006044820152606401610420565b6001600160a01b03838116600081815260056020908152604080832094871680845294825291829020805460ff191686151590811790915591519182527f17307eab39ab6107e8899845ad3d59bd9653f200f220920489ca2b5937696c31910160405180910390a3505050565b610f56848484610ce1565b610f62848484846111c7565b6108af5760405162461bcd60e51b8152600401610420906119fa565b6060610f8982610b93565b6000610fa060408051602081019091526000815290565b90506000815111610fc05760405180602001604052806000815250610feb565b80610fca846112c8565b604051602001610fdb929190611897565b6040516020818303038152906040525b9392505050565b6001600160a01b0382166110485760405162461bcd60e51b815260206004820181905260248201527f4552433732313a206d696e7420746f20746865207a65726f20616464726573736044820152606401610420565b6000818152600260205260409020546001600160a01b0316156110ad5760405162461bcd60e51b815260206004820152601c60248201527f4552433732313a20746f6b656e20616c7265616479206d696e746564000000006044820152606401610420565b6001600160a01b03821660009081526003602052604081208054600192906110d69084906119e7565b909155505060008181526002602052604080822080546001600160a01b0319166001600160a01b03861690811790915590518392907fddf252ad1be2c89b69c2b068fc378daa952ba7f163c4a11628f55a4df523b3ef908290a45050565b6000828152600260205260409020546001600160a01b03166111af5760405162461bcd60e51b815260206004820152602e60248201527f45524337323155524953746f726167653a2055524920736574206f66206e6f6e60448201526d32bc34b9ba32b73a103a37b5b2b760911b6064820152608401610420565b60008281526006602052604090206104c18282611914565b60006001600160a01b0384163b156112bd57604051630a85bd0160e11b81526001600160a01b0385169063150b7a029061120b903390899088908890600401611a4c565b6020604051808303816000875af1925050508015611246575060408051601f3d908101601f1916820190925261124391810190611a89565b60015b6112a3573d808015611274576040519150601f19603f3d011682016040523d82523d6000602084013e611279565b606091505b50805160000361129b5760405162461bcd60e51b8152600401610420906119fa565b805181602001fd5b6001600160e01b031916630a85bd0160e11b1490506109bd565b506001949350505050565b6060816000036112ef5750506040805180820190915260018152600360fc1b602082015290565b8160005b8115611319578061130381611862565b91506113129050600a83611abc565b91506112f3565b60008167ffffffffffffffff81111561133457611334611611565b6040519080825280601f01601f19166020018201604052801561135e576020820181803683370190505b5090505b84156109bd576113736001836119d4565b9150611380600a86611ad0565b61138b9060306119e7565b60f81b8183815181106113a0576113a0611836565b60200101906001600160f81b031916908160001a9053506113c2600a86611abc565b9450611362565b6001600160e01b031981168114610bf257600080fd5b6000602082840312156113f157600080fd5b8135610feb816113c9565b60005b838110156114175781810151838201526020016113ff565b50506000910152565b600081518084526114388160208601602086016113fc565b601f01601f19169290920160200192915050565b602081526000610feb6020830184611420565b60006020828403121561147157600080fd5b5035919050565b80356001600160a01b038116811461148f57600080fd5b919050565b600080604083850312156114a757600080fd5b6114b083611478565b946020939093013593505050565b6000806000606084860312156114d357600080fd5b6114dc84611478565b92506114ea60208501611478565b9150604084013590509250925092565b60006020828403121561150c57600080fd5b610feb82611478565b600081518084526020808501945080840160005b8381101561154557815187529582019590820190600101611529565b509495945050505050565b6060815260006115636060830186611515565b6020838203818501528186518084528284019150828160051b85010183890160005b838110156115b357601f198784030185526115a1838351611420565b94860194925090850190600101611585565b505086810360408801526115c78189611515565b9a9950505050505050505050565b600080604083850312156115e857600080fd5b6115f183611478565b91506020830135801515811461160657600080fd5b809150509250929050565b634e487b7160e01b600052604160045260246000fd5b600067ffffffffffffffff8084111561164257611642611611565b604051601f8501601f19908116603f0116810190828211818310171561166a5761166a611611565b8160405280935085815286868601111561168357600080fd5b858560208301376000602087830101525050509392505050565b600080604083850312156116b057600080fd5b6116b983611478565b9150602083013567ffffffffffffffff8111156116d557600080fd5b8301601f810185136116e657600080fd5b6116f585823560208401611627565b9150509250929050565b6000806000806080858703121561171557600080fd5b61171e85611478565b935061172c60208601611478565b925060408501359150606085013567ffffffffffffffff81111561174f57600080fd5b8501601f8101871361176057600080fd5b61176f87823560208401611627565b91505092959194509250565b6000806040838503121561178e57600080fd5b61179783611478565b91506117a560208401611478565b90509250929050565b600181811c908216806117c257607f821691505b6020821081036117e257634e487b7160e01b600052602260045260246000fd5b50919050565b6020808252602e908201527f4552433732313a2063616c6c6572206973206e6f7420746f6b656e206f776e6560408201526d1c881b9bdc88185c1c1c9bdd995960921b606082015260800190565b634e487b7160e01b600052603260045260246000fd5b634e487b7160e01b600052601160045260246000fd5b6000600182016118745761187461184c565b5060010190565b6000825161188d8184602087016113fc565b9190910192915050565b600083516118a98184602088016113fc565b8351908301906118bd8183602088016113fc565b01949350505050565b601f8211156104c157600081815260208120601f850160051c810160208610156118ed5750805b601f850160051c820191505b8181101561190c578281556001016118f9565b505050505050565b815167ffffffffffffffff81111561192e5761192e611611565b6119428161193c84546117ae565b846118c6565b602080601f831160018114611977576000841561195f5750858301515b600019600386901b1c1916600185901b17855561190c565b600085815260208120601f198616915b828110156119a657888601518255948401946001909101908401611987565b50858210156119c45787850151600019600388901b60f8161c191681555b5050505050600190811b01905550565b818103818111156102ed576102ed61184c565b808201808211156102ed576102ed61184c565b60208082526032908201527f4552433732313a207472616e7366657220746f206e6f6e20455243373231526560408201527131b2b4bb32b91034b6b83632b6b2b73a32b960711b606082015260800190565b6001600160a01b0385811682528416602082015260408101839052608060608201819052600090611a7f90830184611420565b9695505050505050565b600060208284031215611a9b57600080fd5b8151610feb816113c9565b634e487b7160e01b600052601260045260246000fd5b600082611acb57611acb611aa6565b500490565b600082611adf57611adf611aa6565b50069056fea2646970667358221220c6c4d66fd0fafbed0a6c9bb2701256cace33de4b394cef194e63c6ea6dc02efa64736f6c63430008110033",
  "linkReferences": {},
  "deployedLinkReferences": {}
}