{
  "_format": "hh-sol-artifact-1",
  "contractName": "DSOMW",
  "sourceName": "contracts/DSOMW.sol",
  "abi": [
    {
      "inputs": [
        {
          "internalType": "uint256",
          "name": "maxVotingTimes",
          "type": "uint256"
        },
        {
          "internalType": "uint256",
          "name": "tpConsumedByProposal",
          "type": "uint256"
        },
        {
          "internalType": "uint256",
          "name": "tpConsumedByVote",
          "type": "uint256"
        },
        {
          "internalType": "uint256",
          "name": "initialUserTp",
          "type": "uint256"
        }
      ],
      "stateMutability": "nonpayable",
      "type": "constructor"
    },
    {
      "inputs": [],
      "name": "BNS",
      "outputs": [
        {
          "internalType": "contract MyERC721",
          "name": "",
          "type": "address"
        }
      ],
      "stateMutability": "view",
      "type": "function"
    },
    {
      "inputs": [],
      "name": "TP",
      "outputs": [
        {
          "internalType": "contract MyERC20",
          "name": "",
          "type": "address"
        }
      ],
      "stateMutability": "view",
      "type": "function"
    },
    {
      "inputs": [
        {
          "internalType": "string",
          "name": "content",
          "type": "string"
        },
        {
          "internalType": "uint256",
          "name": "startTime",
          "type": "uint256"
        },
        {
          "internalType": "uint256",
          "name": "endTime",
          "type": "uint256"
        }
      ],
      "name": "addNewProposal",
      "outputs": [],
      "stateMutability": "nonpayable",
      "type": "function"
    },
    {
      "inputs": [],
      "name": "getBonusReward",
      "outputs": [],
      "stateMutability": "nonpayable",
      "type": "function"
    },
    {
      "inputs": [],
      "name": "getMaxVotingTimes",
      "outputs": [
        {
          "internalType": "uint256",
          "name": "",
          "type": "uint256"
        }
      ],
      "stateMutability": "view",
      "type": "function"
    },
    {
      "inputs": [],
      "name": "getProposalIds",
      "outputs": [
        {
          "internalType": "uint256[]",
          "name": "",
          "type": "uint256[]"
        }
      ],
      "stateMutability": "view",
      "type": "function"
    },
    {
      "inputs": [
        {
          "internalType": "uint256",
          "name": "id",
          "type": "uint256"
        },
        {
          "internalType": "uint256",
          "name": "timeNow",
          "type": "uint256"
        }
      ],
      "name": "getProposalInformation",
      "outputs": [
        {
          "internalType": "string",
          "name": "",
          "type": "string"
        },
        {
          "internalType": "address",
          "name": "",
          "type": "address"
        },
        {
          "internalType": "uint256",
          "name": "",
          "type": "uint256"
        },
        {
          "internalType": "uint256",
          "name": "",
          "type": "uint256"
        },
        {
          "internalType": "uint256",
          "name": "",
          "type": "uint256"
        }
      ],
      "stateMutability": "view",
      "type": "function"
    },
    {
      "inputs": [
        {
          "internalType": "uint256",
          "name": "id",
          "type": "uint256"
        }
      ],
      "name": "getProposalStatus",
      "outputs": [
        {
          "internalType": "enum DSOMW.ProposalStatus",
          "name": "",
          "type": "uint8"
        }
      ],
      "stateMutability": "view",
      "type": "function"
    },
    {
      "inputs": [
        {
          "internalType": "uint256",
          "name": "id",
          "type": "uint256"
        },
        {
          "internalType": "uint256",
          "name": "timeNow",
          "type": "uint256"
        }
      ],
      "name": "getProposalStatus",
      "outputs": [
        {
          "internalType": "enum DSOMW.ProposalStatus",
          "name": "",
          "type": "uint8"
        }
      ],
      "stateMutability": "view",
      "type": "function"
    },
    {
      "inputs": [
        {
          "internalType": "uint256",
          "name": "id",
          "type": "uint256"
        },
        {
          "internalType": "uint256",
          "name": "timeNow",
          "type": "uint256"
        }
      ],
      "name": "getProposalVotesInformation",
      "outputs": [
        {
          "internalType": "uint256[]",
          "name": "",
          "type": "uint256[]"
        },
        {
          "internalType": "uint256[]",
          "name": "",
          "type": "uint256[]"
        },
        {
          "internalType": "address[]",
          "name": "",
          "type": "address[]"
        }
      ],
      "stateMutability": "view",
      "type": "function"
    },
    {
      "inputs": [],
      "name": "getTpConsumedByProposal",
      "outputs": [
        {
          "internalType": "uint256",
          "name": "",
          "type": "uint256"
        }
      ],
      "stateMutability": "view",
      "type": "function"
    },
    {
      "inputs": [],
      "name": "getTpConsumedByVote",
      "outputs": [
        {
          "internalType": "uint256",
          "name": "",
          "type": "uint256"
        }
      ],
      "stateMutability": "view",
      "type": "function"
    },
    {
      "inputs": [
        {
          "internalType": "uint256",
          "name": "id",
          "type": "uint256"
        }
      ],
      "name": "getTpRewardFromProposalApproved",
      "outputs": [],
      "stateMutability": "nonpayable",
      "type": "function"
    },
    {
      "inputs": [],
      "name": "getUserAddresses",
      "outputs": [
        {
          "internalType": "address[]",
          "name": "",
          "type": "address[]"
        }
      ],
      "stateMutability": "view",
      "type": "function"
    },
    {
      "inputs": [],
      "name": "getUserProposalIds",
      "outputs": [
        {
          "internalType": "uint256[]",
          "name": "",
          "type": "uint256[]"
        }
      ],
      "stateMutability": "view",
      "type": "function"
    },
    {
      "inputs": [],
      "name": "getUserVotesInformation",
      "outputs": [
        {
          "internalType": "uint256[]",
          "name": "",
          "type": "uint256[]"
        },
        {
          "internalType": "uint256[]",
          "name": "",
          "type": "uint256[]"
        },
        {
          "internalType": "uint256[]",
          "name": "",
          "type": "uint256[]"
        }
      ],
      "stateMutability": "view",
      "type": "function"
    },
    {
      "inputs": [
        {
          "internalType": "uint256",
          "name": "timeNow",
          "type": "uint256"
        }
      ],
      "name": "getWhetherUserCanGetBonusReward",
      "outputs": [
        {
          "internalType": "bool",
          "name": "",
          "type": "bool"
        }
      ],
      "stateMutability": "view",
      "type": "function"
    },
    {
      "inputs": [
        {
          "internalType": "uint256",
          "name": "id",
          "type": "uint256"
        },
        {
          "internalType": "uint256",
          "name": "timeNow",
          "type": "uint256"
        }
      ],
      "name": "getWhetherUserCanGetTpReward",
      "outputs": [
        {
          "internalType": "bool",
          "name": "",
          "type": "bool"
        }
      ],
      "stateMutability": "view",
      "type": "function"
    },
    {
      "inputs": [
        {
          "internalType": "uint256",
          "name": "userVote",
          "type": "uint256"
        },
        {
          "internalType": "uint256",
          "name": "id",
          "type": "uint256"
        }
      ],
      "name": "voteOnProposal",
      "outputs": [],
      "stateMutability": "nonpayable",
      "type": "function"
    }
  ],
  "bytecode": "0x60806040523480156200001157600080fd5b50604051620064993803806200649983398101604081905262000034916200017e565b6002839055600684905560078290556040518190620000539062000162565b6060808252600a9082015269151bdad95b941bda5b9d60b21b608082015260a06020820181905260029082015261054560f41b60c0820152604081019190915260e001604051809103906000f080158015620000b3573d6000803e3d6000fd5b50600880546001600160a01b0319166001600160a01b0392909216919091179055604051620000e29062000170565b604080825260059082015264426f6e757360d81b606082015260806020820181905260039082015262424e5360e81b60a082015260c001604051809103906000f08015801562000136573d6000803e3d6000fd5b50600980546001600160a01b0319166001600160a01b039290921691909117905550620001b592505050565b610d55806200385b83390190565b611ee980620045b083390190565b600080600080608085870312156200019557600080fd5b505082516020840151604085015160609095015191969095509092509050565b61369680620001c56000396000f3fe608060405234801561001057600080fd5b50600436106101215760003560e01c8063639807d0116100ad578063a591efde11610071578063a591efde1461026c578063c085c22014610281578063c23ea93314610289578063e06f379a146102a0578063eae488b5146102b357600080fd5b8063639807d0146101fc5780637283c2f8146102275780638adf5b701461022f578063a0a9a70d14610237578063a1fac4cd1461024a57600080fd5b8063401853b7116100f4578063401853b71461017e57806340ba1b1e1461019e57806343101c25146101b35780634894bdc1146101c6578063556f6cc0146101e957600080fd5b80630fe7ec87146101265780631dd9c60b1461013d5780632137671b1461015257806332c5b0e414610176575b600080fd5b6007545b6040519081526020015b60405180910390f35b61015061014b366004612f73565b6102c6565b005b610165610160366004612f8c565b6105e4565b604051610134959493929190612ff4565b610150610724565b61019161018c366004612f73565b610974565b604051610134919061304a565b6101a6610bde565b60405161013491906130ad565b6101506101c13660046130c0565b610c39565b6101d96101d4366004612f8c565b6110bd565b6040519015158152602001610134565b6101506101f7366004612f8c565b611175565b60085461020f906001600160a01b031681565b6040516001600160a01b039091168152602001610134565b60025461012a565b6101a6611606565b6101d9610245366004612f73565b611785565b61025d610258366004612f8c565b6118f4565b60405161013493929190613178565b610274611e54565b60405161013491906131b1565b60065461012a565b610291611eb8565b604051610134939291906131c4565b6101916102ae366004612f8c565b61232a565b60095461020f906001600160a01b031681565b6102d081426110bd565b15156001146103385760405162461bcd60e51b815260206004820152602960248201527f596f752063616e2774206765742054502072657761726420666f7220736f6d65604482015268103932b0b9b7b7399760b91b60648201526084015b60405180910390fd5b6000818152602081905260408120600501805460ff1916600117905580805b60055481101561051f5760006004600001600060046001018481548110610380576103806131fd565b60009182526020808320909101546001600160a01b0316835282810193909352604091820181208882528352818120805483518186028101860190945280845292939092919084015b8282101561046b576000848152602090206040805160808101909152600384029091018054829060ff16600181111561040457610404613034565b600181111561041557610415613034565b81526020016000820160019054906101000a90046001600160a01b03166001600160a01b03166001600160a01b0316815260200160018201548152602001600282015481525050815260200190600101906103c9565b50505050905060008151111561050c576000816001835161048c9190613229565b8151811061049c5761049c6131fd565b602002602001015190506001808111156104b8576104b8613034565b815160018111156104cb576104cb613034565b036104e257846104da8161323c565b95505061050a565b6000815160018111156104f7576104f7613034565b0361050a57836105068161323c565b9450505b505b50806105178161323c565b915050610357565b600854600085815260208190526040902060029081015490546007546001600160a01b039384169363a9059cbb9316919061055a8789613255565b6105649190613268565b61056e9190613255565b6040516001600160e01b031960e085901b1681526001600160a01b03909216600483015260248201526044016020604051808303816000875af11580156105b9573d6000803e3d6000fd5b505050506040513d601f19601f820116820180604052508101906105dd919061327f565b5050505050565b6000828152602081905260408120600501546060919081908190819060ff61010090910416151560011461062a5760405162461bcd60e51b815260040161032f906132a1565b6000610636888861232a565b600381111561064757610647613034565b600089815260208190526040812060010180549293509091610668906132d8565b80601f0160208091040260200160405190810160405280929190818152602001828054610694906132d8565b80156106e15780601f106106b6576101008083540402835291602001916106e1565b820191906000526020600020905b8154815290600101906020018083116106c457829003601f168201915b50505060009b8c52505060208a90526040909920600281015460038201546004909201549a9b6001600160a01b039091169a919950909750919550909350505050565b61072d42611785565b15156001146107935760405162461bcd60e51b815260206004820152602c60248201527f596f752063616e27742067657420626f6e75732072657761726420666f72207360448201526b37b6b2903932b0b9b7b7399760a11b606482015260840161032f565b600061079d611606565b90506000805b82518210156108065760026107d08484815181106107c3576107c36131fd565b6020026020010151610974565b60038111156107e1576107e1613034565b036107f457806107f08161323c565b9150505b816107fe8161323c565b9250506107a3565b6003811061096f57600061081b600383613328565b905060015b8181116105dd57600954604080516060810190915260268082526001600160a01b039092169163a378496f91339161086b919061363b6020830139610866866003613268565b61258e565b6040518363ffffffff1660e01b815260040161088892919061333c565b602060405180830381865afa1580156108a5573d6000803e3d6000fd5b505050506040513d601f19601f820116820180604052508101906108c9919061327f565b1561095d57600954604080516060810190915260268082526001600160a01b039092169163cf37834391339161090d919061363b6020830139610866866003613268565b6040518363ffffffff1660e01b815260040161092a92919061333c565b600060405180830381600087803b15801561094457600080fd5b505af1158015610958573d6000803e3d6000fd5b505050505b806109678161323c565b915050610820565b505050565b60008181526020819052604081206005015460ff6101009091041615156001146109b05760405162461bcd60e51b815260040161032f906132a1565b600082815260208190526040902060040154421115610bb55760008060005b600554811015610b9757600060046000016000600460010184815481106109f8576109f86131fd565b60009182526020808320909101546001600160a01b0316835282810193909352604091820181208982528352818120805483518186028101860190945280845292939092919084015b82821015610ae3576000848152602090206040805160808101909152600384029091018054829060ff166001811115610a7c57610a7c613034565b6001811115610a8d57610a8d613034565b81526020016000820160019054906101000a90046001600160a01b03166001600160a01b03166001600160a01b031681526020016001820154815260200160028201548152505081526020019060010190610a41565b505050509050600081511115610b845760008160018351610b049190613229565b81518110610b1457610b146131fd565b60200260200101519050600180811115610b3057610b30613034565b81516001811115610b4357610b43613034565b03610b5a5784610b528161323c565b955050610b82565b600081516001811115610b6f57610b6f613034565b03610b825783610b7e8161323c565b9450505b505b5080610b8f8161323c565b9150506109cf565b81831115610baa57506002949350505050565b506001949350505050565b600082815260208190526040902060030154421015610bd657506003919050565b506000919050565b60606000600101805480602002602001604051908101604052809291908181526020018280548015610c2f57602002820191906000526020600020905b815481526020019060010190808311610c1b575b5050505050905090565b808210610c945760405162461bcd60e51b8152602060048201526024808201527f537461727454696d65206d757374206265206c657373207468616e20656e645460448201526334b6b29760e11b606482015260840161032f565b428111610cef5760405162461bcd60e51b815260206004820152602360248201527f456e6454696d65206d7573742062652074696d6520696e20746865206675747560448201526239329760e91b606482015260840161032f565b6002546008546040516370a0823160e01b81523360048201526001600160a01b03909116906370a0823190602401602060405180830381865afa158015610d3a573d6000803e3d6000fd5b505050506040513d601f19601f82011682018060405250810190610d5e9190613368565b1015610dac5760405162461bcd60e51b815260206004820181905260248201527f556e61626c6520746f206166666f72642061206e65772070726f706f73616c2e604482015260640161032f565b600254600854604051636eb1769f60e11b81523360048201523060248201526001600160a01b039091169063dd62ed3e90604401602060405180830381865afa158015610dfd573d6000803e3d6000fd5b505050506040513d601f19601f82011682018060405250810190610e219190613368565b1015610e3f5760405162461bcd60e51b815260040161032f90613381565b6008546002546040516323b872dd60e01b815233600482015230602482015260448101919091526001600160a01b03909116906323b872dd906064016020604051808303816000875af1158015610e9a573d6000803e3d6000fd5b505050506040513d601f19601f82011682018060405250810190610ebe919061327f565b506000610eca60035490565b905060006040518060e0016040528083815260200187878080601f016020809104026020016040519081016040528093929190818152602001838380828437600092018290525093855250503360208085019190915260408085018a90526060850189905260808501849052600160a0909501859052878452838252909220845181559184015193945084939192830191610f66915082613443565b5060408201516002820180546001600160a01b0319166001600160a01b0390921691909117905560608201516003808301919091556080830151600483015560a08301516005909201805460c09094015161ffff1990941692151561ff001916929092176101009315159390930292909217905560018054808201825560008290527fb10e2d527612073b26eecdfd717e6a320cf44b4afac2b0732d9fcbe2b7fa0cf60184905581540190556000805b60055482101561106b576005805433919084908110611037576110376131fd565b6000918252602090912001546001600160a01b0316036110595750600161106b565b816110638161323c565b925050611016565b806110b357600580546001810182556000919091527f036b6384b5eca791c62761152d0c79bb0604c104a5fb6f4eb0703f3154bb3db00180546001600160a01b031916331790555b5050505050505050565b60008281526020819052604081206005015460ff6101009091041615156001146110f95760405162461bcd60e51b815260040161032f906132a1565b6000838152602081905260409020600201546001600160a01b031633146111225750600061116f565b600261112e848461232a565b600381111561113f5761113f613034565b14801561115e575060008381526020819052604090206005015460ff16155b1561116b5750600161116f565b5060005b92915050565b600061118082610974565b600381111561119157611191613034565b146112045760405162461bcd60e51b815260206004820152603a60248201527f556e61626c6520746f20766f7465206f6e20746869732070726f706f73616c2060448201527f6265636175736520766f74696e672068617320636c6f7365642e000000000000606482015260840161032f565b600654336000908152600460209081526040808320858452909152902054106112b35760405162461bcd60e51b815260206004820152605560248201527f556e61626c6520746f20766f7465206f6e20746869732070726f706f73616c2060448201527f6265636175736520746865206d6178696d756d206e756d626572206f6620766f6064820152743a32b9903430b9903132b2b7103932b0b1b432b21760591b608482015260a40161032f565b6007546008546040516370a0823160e01b81523360048201526001600160a01b03909116906370a0823190602401602060405180830381865afa1580156112fe573d6000803e3d6000fd5b505050506040513d601f19601f820116820180604052508101906113229190613368565b10156113705760405162461bcd60e51b815260206004820152601c60248201527f556e61626c6520746f206166666f72642061206e657720766f74652e00000000604482015260640161032f565b600754600854604051636eb1769f60e11b81523360048201523060248201526001600160a01b039091169063dd62ed3e90604401602060405180830381865afa1580156113c1573d6000803e3d6000fd5b505050506040513d601f19601f820116820180604052508101906113e59190613368565b10156114035760405162461bcd60e51b815260040161032f90613381565b6008546007546040516323b872dd60e01b815233600482015230602482015260448101919091526001600160a01b03909116906323b872dd906064016020604051808303816000875af115801561145e573d6000803e3d6000fd5b505050506040513d601f19601f82011682018060405250810190611482919061327f565b50600060405180608001604052808460018111156114a2576114a2613034565b60018111156114b3576114b3613034565b8152336020808301829052426040808501919091526060909301869052600091825260048152828220868352815291812080546001818101835591835292909120835160039093020180549394508493909291839160ff191690838181111561151e5761151e613034565b0217905550602082015181546001600160a01b0390911661010002610100600160a81b0319909116178155604082015160018201556060909101516002909101556000805b6005548210156115b8576005805433919084908110611584576115846131fd565b6000918252602090912001546001600160a01b0316036115a6575060016115b8565b816115b08161323c565b925050611563565b806105dd57600580546001810182556000919091527f036b6384b5eca791c62761152d0c79bb0604c104a5fb6f4eb0703f3154bb3db00180546001600160a01b031916331790555050505050565b60606000805b60015481101561167f5760018054339160009182919085908110611632576116326131fd565b600091825260208083209091015483528201929092526040019020600201546001600160a01b03160361166d57816116698161323c565b9250505b806116778161323c565b91505061160c565b60008267ffffffffffffffff81111561169a5761169a6133df565b6040519080825280602002602001820160405280156116c3578160200160208202803683370190505b50905060009250600091505b60015482101561177e57600180543391600091829190869081106116f5576116f56131fd565b600091825260208083209091015483528201929092526040019020600201546001600160a01b03160361176c576001805483908110611736576117366131fd565b9060005260206000200154818481518110611753576117536131fd565b6020908102919091010152826117688161323c565b9350505b816117768161323c565b9250506116cf565b9392505050565b600080611790611606565b90506000805b82518210156117fa5760026117c48484815181106117b6576117b66131fd565b60200260200101518761232a565b60038111156117d5576117d5613034565b036117e857806117e48161323c565b9150505b816117f28161323c565b925050611796565b600381106118e957600061180f600383613328565b905060015b8181116118dc57600954604080516060810190915260268082526001600160a01b039092169163a378496f91339161185a919061363b6020830139610866866003613268565b6040518363ffffffff1660e01b815260040161187792919061333c565b602060405180830381865afa158015611894573d6000803e3d6000fd5b505050506040513d601f19601f820116820180604052508101906118b8919061327f565b156118ca575060019695505050505050565b806118d48161323c565b915050611814565b5060009695505050505050565b506000949350505050565b606080806000805b600554821015611a415760006004600001600060046001018581548110611925576119256131fd565b60009182526020808320909101546001600160a01b0316835282810193909352604091820181208b82528352818120805483518186028101860190945280845292939092919084015b82821015611a10576000848152602090206040805160808101909152600384029091018054829060ff1660018111156119a9576119a9613034565b60018111156119ba576119ba613034565b81526020016000820160019054906101000a90046001600160a01b03166001600160a01b03166001600160a01b03168152602001600182015481526020016002820154815250508152602001906001019061196e565b505050509050600081511115611a2e5781611a2a8161323c565b9250505b5081611a398161323c565b9250506118fc565b60008167ffffffffffffffff811115611a5c57611a5c6133df565b604051908082528060200260200182016040528015611a85578160200160208202803683370190505b50905060008267ffffffffffffffff811115611aa357611aa36133df565b604051908082528060200260200182016040528015611acc578160200160208202803683370190505b50905060008367ffffffffffffffff811115611aea57611aea6133df565b604051908082528060200260200182016040528015611b13578160200160208202803683370190505b50905060009350600094505b600554851015611d5c5760006004600001600060046001018881548110611b4857611b486131fd565b60009182526020808320909101546001600160a01b0316835282810193909352604091820181208e82528352818120805483518186028101860190945280845292939092919084015b82821015611c33576000848152602090206040805160808101909152600384029091018054829060ff166001811115611bcc57611bcc613034565b6001811115611bdd57611bdd613034565b81526020016000820160019054906101000a90046001600160a01b03166001600160a01b03166001600160a01b031681526020016001820154815260200160028201548152505081526020019060010190611b91565b505050509050600081511115611d49578060018251611c529190613229565b81518110611c6257611c626131fd565b6020026020010151600001516001811115611c7f57611c7f613034565b848681518110611c9157611c916131fd565b6020026020010181815250508060018251611cac9190613229565b81518110611cbc57611cbc6131fd565b602002602001015160400151838681518110611cda57611cda6131fd565b6020026020010181815250508060018251611cf59190613229565b81518110611d0557611d056131fd565b602002602001015160200151828681518110611d2357611d236131fd565b6001600160a01b039092166020928302919091019091015284611d458161323c565b9550505b5084611d548161323c565b955050611b1f565b60008a8152602081905260409020600201546001600160a01b0316331480611d9f57506000611d8b8b8b61232a565b6003811115611d9c57611d9c613034565b14155b15611db35791965094509250611e4d915050565b8367ffffffffffffffff811115611dcc57611dcc6133df565b604051908082528060200260200182016040528015611df5578160200160208202803683370190505b5091508367ffffffffffffffff811115611e1157611e116133df565b604051908082528060200260200182016040528015611e3a578160200160208202803683370190505b50929750909550909350611e4d92505050565b9250925092565b60606004600101805480602002602001604051908101604052809291908181526020018280548015610c2f57602002820191906000526020600020905b81546001600160a01b03168152600190910190602001808311611e91575050505050905090565b60608080600080805b60015483101561201d573360009081526004602052604081206001805483919087908110611ef157611ef16131fd565b90600052602060002001548152602001908152602001600020805480602002602001604051908101604052809291908181526020016000905b82821015611fcc576000848152602090206040805160808101909152600384029091018054829060ff166001811115611f6557611f65613034565b6001811115611f7657611f76613034565b81526020016000820160019054906101000a90046001600160a01b03166001600160a01b03166001600160a01b031681526020016001820154815260200160028201548152505081526020019060010190611f2a565b50505050905060008151111561200a57600092505b805183101561200a5781611ff48161323c565b92505082806120029061323c565b935050611fe1565b50826120158161323c565b935050611ec1565b60008167ffffffffffffffff811115612038576120386133df565b604051908082528060200260200182016040528015612061578160200160208202803683370190505b50905060008267ffffffffffffffff81111561207f5761207f6133df565b6040519080825280602002602001820160405280156120a8578160200160208202803683370190505b50905060008367ffffffffffffffff8111156120c6576120c66133df565b6040519080825280602002602001820160405280156120ef578160200160208202803683370190505b50905060009350600095505b60015486101561231b57336000908152600460205260408120600180548391908a90811061212b5761212b6131fd565b90600052602060002001548152602001908152602001600020805480602002602001604051908101604052809291908181526020016000905b82821015612206576000848152602090206040805160808101909152600384029091018054829060ff16600181111561219f5761219f613034565b60018111156121b0576121b0613034565b81526020016000820160019054906101000a90046001600160a01b03166001600160a01b03166001600160a01b031681526020016001820154815260200160028201548152505081526020019060010190612164565b50505050905060008151111561230857600095505b805186101561230857808681518110612236576122366131fd565b602002602001015160000151600181111561225357612253613034565b848681518110612265576122656131fd565b602002602001018181525050808681518110612283576122836131fd565b6020026020010151604001518386815181106122a1576122a16131fd565b6020026020010181815250508086815181106122bf576122bf6131fd565b6020026020010151606001518286815181106122dd576122dd6131fd565b6020908102919091010152846122f28161323c565b95505085806123009061323c565b96505061221b565b50856123138161323c565b9650506120fb565b91989097509095509350505050565b60008281526020819052604081206005015460ff6101009091041615156001146123665760405162461bcd60e51b815260040161032f906132a1565b60008381526020819052604090206004015482111561256d5760008060005b60055481101561254d57600060046000016000600460010184815481106123ae576123ae6131fd565b60009182526020808320909101546001600160a01b0316835282810193909352604091820181208a82528352818120805483518186028101860190945280845292939092919084015b82821015612499576000848152602090206040805160808101909152600384029091018054829060ff16600181111561243257612432613034565b600181111561244357612443613034565b81526020016000820160019054906101000a90046001600160a01b03166001600160a01b03166001600160a01b0316815260200160018201548152602001600282015481525050815260200190600101906123f7565b50505050905060008151111561253a57600081600183516124ba9190613229565b815181106124ca576124ca6131fd565b602002602001015190506001808111156124e6576124e6613034565b815160018111156124f9576124f9613034565b0361251057846125088161323c565b955050612538565b60008151600181111561252557612525613034565b0361253857836125348161323c565b9450505b505b50806125458161323c565b915050612385565b81831115612561576002935050505061116f565b6001935050505061116f565b60008381526020819052604090206003015482101561116b5750600361116f565b606061177e836040518060a00160405280858152602001600081526020016000815260200160008152602001600081525060408051607f80825260a082019092526060916000919060208201818036833701905050905060006125f4826000878761260b565b905061260282600083612a27565b95945050505050565b600080808080805b87518510156129ac576000888681518110612630576126306131fd565b016020015160f81c905060008390036126ce57806025036126be575b858510156126b957888561265f8161323c565b965081518110612671576126716131fd565b01602001516001600160f81b0319168b8b61268b8161323c565b9c508151811061269d5761269d6131fd565b60200101906001600160f81b031916908160001a90535061264c565b600192505b6126c78661323c565b95506129a6565b82600103612737578060250361272e57602560f81b8b8b6126ee8161323c565b9c5081518110612700576127006131fd565b60200101906001600160f81b031916908160001a9053506127208661323c565b9550859450600092506129a6565b600392506129a6565b826003036127b0575b60308110158015612752575060398111155b156127a75760308161276584600a613268565b61276f9190613255565b6127799190613229565b9150886127858761323c565b96508681518110612798576127986131fd565b016020015160f81c9050612740565b600492506129a6565b826004036129a657600088856127c58161323c565b9650600581106127d7576127d76131fd565b602002015190508160640361287a5760ff81901c60010361283b57602d60f81b8c8c6128028161323c565b9d5081518110612814576128146131fd565b60200101906001600160f81b031916908160001a90535061283481613503565b9050612875565b602b60f81b8c8c61284b8161323c565b9d508151811061285d5761285d6131fd565b60200101906001600160f81b031916908160001a9053505b607591505b816075036128a25761289b8c8c8386156128945786612b08565b6001612b08565b9a5061298e565b81607814806128b15750816058145b156128d45761289b8c8c8386156128c857866128cb565b60015b86605814612c54565b81607314806128e35750816053145b156129195761289b8c8c83600087156128fc57876128ff565b601f5b8760531461290e576000612911565b60015b60ff16612dfb565b8160660361298e5760ff81901c60010361297257602d60f81b8c8c61293d8161323c565b9d508151811061294f5761294f6131fd565b60200101906001600160f81b031916908160001a90535061296f81613503565b90505b61298b8c8c8386156129845786612efa565b6008612efa565b9a505b6129978761323c565b96508695506000935060009250505b50612613565b84841015612a195787846129bf8161323c565b9550815181106129d1576129d16131fd565b01602001516001600160f81b0319168a8a6129eb8161323c565b9b50815181106129fd576129fd6131fd565b60200101906001600160f81b031916908160001a9053506129ac565b509698975050505050505050565b8251606090808410612a3c5760009250612a5a565b80612a478486613255565b1115612a5a57612a578482613229565b92505b60008367ffffffffffffffff811115612a7557612a756133df565b6040519080825280601f01601f191660200182016040528015612a9f576020820181803683370190505b5090505b831561260257612ab28461351f565b935085612abf8587613255565b81518110612acf57612acf6131fd565b602001015160f81c60f81b818581518110612aec57612aec6131fd565b60200101906001600160f81b031916908160001a905350612aa3565b600083612b158184613255565b92505b6000841180612b2657508285105b15612b8a57612b36600a85613536565b612b41906030613255565b60f81b8686612b4f8161323c565b975081518110612b6157612b616131fd565b60200101906001600160f81b031916908160001a905350612b83600a85613328565b9350612b18565b845b81811115612c49576000878381518110612ba857612ba86131fd565b01602001516001600160f81b031916905087612bc38361351f565b92508281518110612bd657612bd66131fd565b01602001516001600160f81b0319168884612bf08161323c565b955081518110612c0257612c026131fd565b60200101906001600160f81b031916908160001a90535080888381518110612c2c57612c2c6131fd565b60200101906001600160f81b031916908160001a90535050612b8c565b509395945050505050565b6000848183612c64576057612c67565b60375b60ff169050612c768786613255565b94505b6000861180612c8757508487105b15612d2f57600f86166009811115612cdf57612ca38282613255565b60f81b8989612cb18161323c565b9a5081518110612cc357612cc36131fd565b60200101906001600160f81b031916908160001a905350612d22565b612cea816030613255565b60f81b8989612cf88161323c565b9a5081518110612d0a57612d0a6131fd565b60200101906001600160f81b031916908160001a9053505b600487901c965050612c79565b865b82811115612dee576000898481518110612d4d57612d4d6131fd565b01602001516001600160f81b031916905089612d688361351f565b92508281518110612d7b57612d7b6131fd565b01602001516001600160f81b0319168a85612d958161323c565b965081518110612da757612da76131fd565b60200101906001600160f81b031916908160001a905350808a8381518110612dd157612dd16131fd565b60200101906001600160f81b031916908160001a90535050612d31565b5095979650505050505050565b600080612e0b8560ff8816613229565b905083811115612e185750825b6003612e25866001613255565b901b86901c95505b8015612eee5760ff8616600184148015612e48575060618110155b8015612e555750607a8111155b15612e6c57612e65602082613229565b9050612e9d565b836002148015612e7d575060418110155b8015612e8a5750605a8111155b15612e9d57612e9a602082613229565b90505b8060f81b898980612ead9061323c565b9a5081518110612ebf57612ebf6131fd565b60200101906001600160f81b031916908160001a90535060089690961c95612ee68261351f565b915050612e2d565b50949695505050505050565b600080612f0883600a61362e565b9050612f1986866128948488613328565b9450601760f91b8686612f2b8161323c565b975081518110612f3d57612f3d6131fd565b60200101906001600160f81b031916908160001a905350612f698686612f638488613536565b86612b08565b9695505050505050565b600060208284031215612f8557600080fd5b5035919050565b60008060408385031215612f9f57600080fd5b50508035926020909101359150565b6000815180845260005b81811015612fd457602081850181015186830182015201612fb8565b506000602082860101526020601f19601f83011685010191505092915050565b60a08152600061300760a0830188612fae565b6001600160a01b039690961660208301525060408101939093526060830191909152608090910152919050565b634e487b7160e01b600052602160045260246000fd5b602081016004831061306c57634e487b7160e01b600052602160045260246000fd5b91905290565b600081518084526020808501945080840160005b838110156130a257815187529582019590820190600101613086565b509495945050505050565b60208152600061177e6020830184613072565b600080600080606085870312156130d657600080fd5b843567ffffffffffffffff808211156130ee57600080fd5b818701915087601f83011261310257600080fd5b81358181111561311157600080fd5b88602082850101111561312357600080fd5b6020928301999098509187013596604001359550909350505050565b600081518084526020808501945080840160005b838110156130a25781516001600160a01b031687529582019590820190600101613153565b60608152600061318b6060830186613072565b828103602084015261319d8186613072565b90508281036040840152612f69818561313f565b60208152600061177e602083018461313f565b6060815260006131d76060830186613072565b82810360208401526131e98186613072565b90508281036040840152612f698185613072565b634e487b7160e01b600052603260045260246000fd5b634e487b7160e01b600052601160045260246000fd5b8181038181111561116f5761116f613213565b60006001820161324e5761324e613213565b5060010190565b8082018082111561116f5761116f613213565b808202811582820484141761116f5761116f613213565b60006020828403121561329157600080fd5b8151801515811461177e57600080fd5b6020808252601c908201527f546869732070726f706f73616c20646f65736e27742065786973742e00000000604082015260600190565b600181811c908216806132ec57607f821691505b60208210810361330c57634e487b7160e01b600052602260045260246000fd5b50919050565b634e487b7160e01b600052601260045260246000fd5b60008261333757613337613312565b500490565b6001600160a01b038316815260406020820181905260009061336090830184612fae565b949350505050565b60006020828403121561337a57600080fd5b5051919050565b602080825260409082018190527f44534f4d5720646f6e2774206861766520616c6c6f77616e6365206f76657220908201527f796f75722054502e20506c6561736520617574686f72697a652044534f4d572e606082015260800190565b634e487b7160e01b600052604160045260246000fd5b601f82111561096f57600081815260208120601f850160051c8101602086101561341c5750805b601f850160051c820191505b8181101561343b57828155600101613428565b505050505050565b815167ffffffffffffffff81111561345d5761345d6133df565b6134718161346b84546132d8565b846133f5565b602080601f8311600181146134a6576000841561348e5750858301515b600019600386901b1c1916600185901b17855561343b565b600085815260208120601f198616915b828110156134d5578886015182559484019460019091019084016134b6565b50858210156134f35787850151600019600388901b60f8161c191681555b5050505050600190811b01905550565b6000600160ff1b820161351857613518613213565b5060000390565b60008161352e5761352e613213565b506000190190565b60008261354557613545613312565b500690565b600181815b8085111561358557816000190482111561356b5761356b613213565b8085161561357857918102915b93841c939080029061354f565b509250929050565b60008261359c5750600161116f565b816135a95750600061116f565b81600181146135bf57600281146135c9576135e5565b600191505061116f565b60ff8411156135da576135da613213565b50506001821b61116f565b5060208310610133831016604e8410600b8410161715613608575081810a61116f565b613612838361354a565b806000190482111561362657613626613213565b029392505050565b600061177e838361358d56fe5b4d696c6573746f6e6520576974682025752050726f706f73616c7320417070726f7665645da26469706673582212207bf9974f45bf1b0f559f115075a9e1a270dd6f9fb7ff77608a1a1cda4e43a53864736f6c6343000811003360806040523480156200001157600080fd5b5060405162000d5538038062000d55833981016040819052620000349162000127565b8282600362000044838262000229565b50600462000053828262000229565b50505060055550620002f59050565b634e487b7160e01b600052604160045260246000fd5b600082601f8301126200008a57600080fd5b81516001600160401b0380821115620000a757620000a762000062565b604051601f8301601f19908116603f01168101908282118183101715620000d257620000d262000062565b81604052838152602092508683858801011115620000ef57600080fd5b600091505b83821015620001135785820183015181830184015290820190620000f4565b600093810190920192909252949350505050565b6000806000606084860312156200013d57600080fd5b83516001600160401b03808211156200015557600080fd5b620001638783880162000078565b945060208601519150808211156200017a57600080fd5b50620001898682870162000078565b925050604084015190509250925092565b600181811c90821680620001af57607f821691505b602082108103620001d057634e487b7160e01b600052602260045260246000fd5b50919050565b601f8211156200022457600081815260208120601f850160051c81016020861015620001ff5750805b601f850160051c820191505b8181101562000220578281556001016200020b565b5050505b505050565b81516001600160401b0381111562000245576200024562000062565b6200025d816200025684546200019a565b84620001d6565b602080601f8311600181146200029557600084156200027c5750858301515b600019600386901b1c1916600185901b17855562000220565b600085815260208120601f198616915b82811015620002c657888601518255948401946001909101908401620002a5565b5085821015620002e55787850151600019600388901b60f8161c191681555b5050505050600190811b01905550565b610a5080620003056000396000f3fe608060405234801561001057600080fd5b50600436106100ea5760003560e01c806348e27f601161008c57806395d89b411161006657806395d89b41146101cb578063a457c2d7146101d3578063a9059cbb146101e6578063dd62ed3e146101f957600080fd5b806348e27f60146101815780634e21575e1461019a57806370a08231146101a257600080fd5b806323b872dd116100c857806323b872dd146101425780632e07a2df14610155578063313ce5671461015f578063395093511461016e57600080fd5b806306fdde03146100ef578063095ea7b31461010d57806318160ddd14610130575b600080fd5b6100f761020c565b604051610104919061089a565b60405180910390f35b61012061011b366004610904565b61029e565b6040519015158152602001610104565b6002545b604051908152602001610104565b61012061015036600461092e565b6102b8565b61015d6102dc565b005b60405160128152602001610104565b61012061017c366004610904565b61036a565b3360009081526006602052604090205460ff1615610120565b600554610134565b6101346101b036600461096a565b6001600160a01b031660009081526020819052604090205490565b6100f761038c565b6101206101e1366004610904565b61039b565b6101206101f4366004610904565b610416565b61013461020736600461098c565b610424565b60606003805461021b906109bf565b80601f0160208091040260200160405190810160405280929190818152602001828054610247906109bf565b80156102945780601f1061026957610100808354040283529160200191610294565b820191906000526020600020905b81548152906001019060200180831161027757829003601f168201915b5050505050905090565b6000336102ac81858561044f565b60019150505b92915050565b6000336102c6858285610573565b6102d18585856105ed565b506001949350505050565b3360009081526006602052604090205460ff16156103415760405162461bcd60e51b815260206004820152601760248201527f596f75206861766520676f7420545020616c726561647900000000000000000060448201526064015b60405180910390fd5b336000818152600660205260409020805460ff1916600117905560055461036891906107bb565b565b6000336102ac81858561037d8383610424565b61038791906109f9565b61044f565b60606004805461021b906109bf565b600033816103a98286610424565b9050838110156104095760405162461bcd60e51b815260206004820152602560248201527f45524332303a2064656372656173656420616c6c6f77616e63652062656c6f77604482015264207a65726f60d81b6064820152608401610338565b6102d1828686840361044f565b6000336102ac8185856105ed565b6001600160a01b03918216600090815260016020908152604080832093909416825291909152205490565b6001600160a01b0383166104b15760405162461bcd60e51b8152602060048201526024808201527f45524332303a20617070726f76652066726f6d20746865207a65726f206164646044820152637265737360e01b6064820152608401610338565b6001600160a01b0382166105125760405162461bcd60e51b815260206004820152602260248201527f45524332303a20617070726f766520746f20746865207a65726f206164647265604482015261737360f01b6064820152608401610338565b6001600160a01b0383811660008181526001602090815260408083209487168084529482529182902085905590518481527f8c5be1e5ebec7d5bd14f71427d1e84f3dd0314c0f7b2291e5b200ac8c7c3b925910160405180910390a3505050565b600061057f8484610424565b905060001981146105e757818110156105da5760405162461bcd60e51b815260206004820152601d60248201527f45524332303a20696e73756666696369656e7420616c6c6f77616e63650000006044820152606401610338565b6105e7848484840361044f565b50505050565b6001600160a01b0383166106515760405162461bcd60e51b815260206004820152602560248201527f45524332303a207472616e736665722066726f6d20746865207a65726f206164604482015264647265737360d81b6064820152608401610338565b6001600160a01b0382166106b35760405162461bcd60e51b815260206004820152602360248201527f45524332303a207472616e7366657220746f20746865207a65726f206164647260448201526265737360e81b6064820152608401610338565b6001600160a01b0383166000908152602081905260409020548181101561072b5760405162461bcd60e51b815260206004820152602660248201527f45524332303a207472616e7366657220616d6f756e7420657863656564732062604482015265616c616e636560d01b6064820152608401610338565b6001600160a01b038085166000908152602081905260408082208585039055918516815290812080548492906107629084906109f9565b92505081905550826001600160a01b0316846001600160a01b03167fddf252ad1be2c89b69c2b068fc378daa952ba7f163c4a11628f55a4df523b3ef846040516107ae91815260200190565b60405180910390a36105e7565b6001600160a01b0382166108115760405162461bcd60e51b815260206004820152601f60248201527f45524332303a206d696e7420746f20746865207a65726f2061646472657373006044820152606401610338565b806002600082825461082391906109f9565b90915550506001600160a01b038216600090815260208190526040812080548392906108509084906109f9565b90915550506040518181526001600160a01b038316906000907fddf252ad1be2c89b69c2b068fc378daa952ba7f163c4a11628f55a4df523b3ef9060200160405180910390a35050565b600060208083528351808285015260005b818110156108c7578581018301518582016040015282016108ab565b506000604082860101526040601f19601f8301168501019250505092915050565b80356001600160a01b03811681146108ff57600080fd5b919050565b6000806040838503121561091757600080fd5b610920836108e8565b946020939093013593505050565b60008060006060848603121561094357600080fd5b61094c846108e8565b925061095a602085016108e8565b9150604084013590509250925092565b60006020828403121561097c57600080fd5b610985826108e8565b9392505050565b6000806040838503121561099f57600080fd5b6109a8836108e8565b91506109b6602084016108e8565b90509250929050565b600181811c908216806109d357607f821691505b6020821081036109f357634e487b7160e01b600052602260045260246000fd5b50919050565b808201808211156102b257634e487b7160e01b600052601160045260246000fdfea26469706673582212209124f388cd4a2a4eb3ef9b28baf6a2f4b9860d9c2ea7d7cad29a84db76752c2f64736f6c6343000811003360806040523480156200001157600080fd5b5060405162001ee938038062001ee9833981016040819052620000349162000136565b818160006200004483826200022f565b5060016200005382826200022f565b5050600880546001600160a01b0319163317905550620002fb915050565b634e487b7160e01b600052604160045260246000fd5b600082601f8301126200009957600080fd5b81516001600160401b0380821115620000b657620000b662000071565b604051601f8301601f19908116603f01168101908282118183101715620000e157620000e162000071565b81604052838152602092508683858801011115620000fe57600080fd5b600091505b8382101562000122578582018301518183018401529082019062000103565b600093810190920192909252949350505050565b600080604083850312156200014a57600080fd5b82516001600160401b03808211156200016257600080fd5b620001708683870162000087565b935060208501519150808211156200018757600080fd5b50620001968582860162000087565b9150509250929050565b600181811c90821680620001b557607f821691505b602082108103620001d657634e487b7160e01b600052602260045260246000fd5b50919050565b601f8211156200022a57600081815260208120601f850160051c81016020861015620002055750805b601f850160051c820191505b81811015620002265782815560010162000211565b5050505b505050565b81516001600160401b038111156200024b576200024b62000071565b62000263816200025c8454620001a0565b84620001dc565b602080601f8311600181146200029b5760008415620002825750858301515b600019600386901b1c1916600185901b17855562000226565b600085815260208120601f198616915b82811015620002cc57888601518255948401946001909101908401620002ab565b5085821015620002eb5787850151600019600388901b60f8161c191681555b5050505050600190811b01905550565b611bde806200030b6000396000f3fe608060405234801561001057600080fd5b50600436106101005760003560e01c806370a0823111610097578063b88d4fde11610066578063b88d4fde1461022c578063c87b56dd1461023f578063cf37834314610252578063e985e9c51461026557600080fd5b806370a08231146101dd57806395d89b41146101fe578063a22cb46514610206578063a378496f1461021957600080fd5b806323b872dd116100d357806323b872dd146101825780633d4d04e11461019557806342842e0e146101b75780636352211e146101ca57600080fd5b806301ffc9a71461010557806306fdde031461012d578063081812fc14610142578063095ea7b31461016d575b600080fd5b6101186101133660046114a3565b6102a1565b60405190151581526020015b60405180910390f35b6101356102f3565b6040516101249190611510565b610155610150366004611523565b610385565b6040516001600160a01b039091168152602001610124565b61018061017b366004611558565b6103ac565b005b610180610190366004611582565b6104c6565b6101a86101a33660046115be565b6104f7565b60405161012493929190611614565b6101806101c5366004611582565b6107d6565b6101556101d8366004611523565b6107f1565b6101f06101eb3660046115be565b610851565b604051908152602001610124565b6101356108d7565b610180610214366004611699565b6108e6565b610118610227366004611761565b6108f5565b61018061023a3660046117c3565b610938565b61013561024d366004611523565b610970565b610180610260366004611761565b610a80565b61011861027336600461183f565b6001600160a01b03918216600090815260056020908152604080832093909416825291909152205460ff1690565b60006001600160e01b031982166380ac58cd60e01b14806102d257506001600160e01b03198216635b5e139f60e01b145b806102ed57506301ffc9a760e01b6001600160e01b03198316145b92915050565b60606000805461030290611872565b80601f016020809104026020016040519081016040528092919081815260200182805461032e90611872565b801561037b5780601f106103505761010080835404028352916020019161037b565b820191906000526020600020905b81548152906001019060200180831161035e57829003601f168201915b5050505050905090565b600061039082610c57565b506000908152600460205260409020546001600160a01b031690565b60006103b7826107f1565b9050806001600160a01b0316836001600160a01b0316036104295760405162461bcd60e51b815260206004820152602160248201527f4552433732313a20617070726f76616c20746f2063757272656e74206f776e656044820152603960f91b60648201526084015b60405180910390fd5b336001600160a01b038216148061044557506104458133610273565b6104b75760405162461bcd60e51b815260206004820152603e60248201527f4552433732313a20617070726f76652063616c6c6572206973206e6f7420746f60448201527f6b656e206f776e6572206e6f7220617070726f76656420666f7220616c6c00006064820152608401610420565b6104c18383610cb9565b505050565b6104d03382610d27565b6104ec5760405162461bcd60e51b8152600401610420906118ac565b6104c1838383610da5565b6001600160a01b0381166000908152600960209081526040808320805482518185028101850190935280835260609485948594919384939091849084015b8282101561060d57838290600052602060002090600302016040518060600160405290816000820154815260200160018201805461057290611872565b80601f016020809104026020016040519081016040528092919081815260200182805461059e90611872565b80156105eb5780601f106105c0576101008083540402835291602001916105eb565b820191906000526020600020905b8154815290600101906020018083116105ce57829003601f168201915b5050505050815260200160028201548152505081526020019060010190610535565b5050505090506000815167ffffffffffffffff81111561062f5761062f6116d5565b604051908082528060200260200182016040528015610658578160200160208202803683370190505b5090506000825167ffffffffffffffff811115610677576106776116d5565b6040519080825280602002602001820160405280156106aa57816020015b60608152602001906001900390816106955790505b5090506000835167ffffffffffffffff8111156106c9576106c96116d5565b6040519080825280602002602001820160405280156106f2578160200160208202803683370190505b509050600094505b83518510156107c757838581518110610715576107156118fa565b602002602001015160000151838681518110610733576107336118fa565b602002602001018181525050838581518110610751576107516118fa565b60200260200101516020015182868151811061076f5761076f6118fa565b602002602001018190525083858151811061078c5761078c6118fa565b6020026020010151604001518186815181106107aa576107aa6118fa565b6020908102919091010152846107bf81611926565b9550506106fa565b91989097509095509350505050565b6104c183838360405180602001604052806000815250610938565b6000818152600260205260408120546001600160a01b0316806102ed5760405162461bcd60e51b8152602060048201526018602482015277115490cdcc8c4e881a5b9d985b1a59081d1bdad95b88125160421b6044820152606401610420565b60006001600160a01b0382166108bb5760405162461bcd60e51b815260206004820152602960248201527f4552433732313a2061646472657373207a65726f206973206e6f7420612076616044820152683634b21037bbb732b960b91b6064820152608401610420565b506001600160a01b031660009081526003602052604090205490565b60606001805461030290611872565b6108f1338383610f41565b5050565b6000600a82604051610907919061193f565b90815260408051602092819003830190206001600160a01b0386166000908152925290205460ff1615905092915050565b6109423383610d27565b61095e5760405162461bcd60e51b8152600401610420906118ac565b61096a8484848461100f565b50505050565b606061097b82610c57565b6000828152600660205260408120805461099490611872565b80601f01602080910402602001604051908101604052809291908181526020018280546109c090611872565b8015610a0d5780601f106109e257610100808354040283529160200191610a0d565b820191906000526020600020905b8154815290600101906020018083116109f057829003601f168201915b505050505090506000610a2b60408051602081019091526000815290565b90508051600003610a3d575092915050565b815115610a6f578082604051602001610a5792919061195b565b60405160208183030381529060405292505050919050565b610a7884611042565b949350505050565b6008546001600160a01b03163314610aed5760405162461bcd60e51b815260206004820152602a60248201527f4f6e6c792073797374656d2063616e206163636573732061776172644974656d60448201526910333ab731ba34b7b71760b11b6064820152608401610420565b600a81604051610afd919061193f565b9081526040805160209281900383019020336000908152925290205460ff1615610b795760405162461bcd60e51b815260206004820152602760248201527f596f75206861766520676f742074686973206b696e64206f6620626f6e757320604482015266616c726561647960c81b6064820152608401610420565b6001600a82604051610b8b919061193f565b90815260408051602092819003830190206001600160a01b038616600090815292528120805460ff1916921515929092179091556007549050610bce83826110b6565b610bd881836111f8565b610be6600780546001019055565b60408051606081018252828152602080820185815242838501526001600160a01b038716600090815260098352938420805460018181018355918652929094208351600390930201918255519192839290820190610c4490826119d8565b5060408201518160020155505050505050565b6000818152600260205260409020546001600160a01b0316610cb65760405162461bcd60e51b8152602060048201526018602482015277115490cdcc8c4e881a5b9d985b1a59081d1bdad95b88125160421b6044820152606401610420565b50565b600081815260046020526040902080546001600160a01b0319166001600160a01b0384169081179091558190610cee826107f1565b6001600160a01b03167f8c5be1e5ebec7d5bd14f71427d1e84f3dd0314c0f7b2291e5b200ac8c7c3b92560405160405180910390a45050565b600080610d33836107f1565b9050806001600160a01b0316846001600160a01b03161480610d7a57506001600160a01b0380821660009081526005602090815260408083209388168352929052205460ff165b80610a785750836001600160a01b0316610d9384610385565b6001600160a01b031614949350505050565b826001600160a01b0316610db8826107f1565b6001600160a01b031614610e1c5760405162461bcd60e51b815260206004820152602560248201527f4552433732313a207472616e736665722066726f6d20696e636f72726563742060448201526437bbb732b960d91b6064820152608401610420565b6001600160a01b038216610e7e5760405162461bcd60e51b8152602060048201526024808201527f4552433732313a207472616e7366657220746f20746865207a65726f206164646044820152637265737360e01b6064820152608401610420565b610e89600082610cb9565b6001600160a01b0383166000908152600360205260408120805460019290610eb2908490611a98565b90915550506001600160a01b0382166000908152600360205260408120805460019290610ee0908490611aab565b909155505060008181526002602052604080822080546001600160a01b0319166001600160a01b0386811691821790925591518493918716917fddf252ad1be2c89b69c2b068fc378daa952ba7f163c4a11628f55a4df523b3ef91a4505050565b816001600160a01b0316836001600160a01b031603610fa25760405162461bcd60e51b815260206004820152601960248201527f4552433732313a20617070726f766520746f2063616c6c6572000000000000006044820152606401610420565b6001600160a01b03838116600081815260056020908152604080832094871680845294825291829020805460ff191686151590811790915591519182527f17307eab39ab6107e8899845ad3d59bd9653f200f220920489ca2b5937696c31910160405180910390a3505050565b61101a848484610da5565b6110268484848461128b565b61096a5760405162461bcd60e51b815260040161042090611abe565b606061104d82610c57565b600061106460408051602081019091526000815290565b9050600081511161108457604051806020016040528060008152506110af565b8061108e8461138c565b60405160200161109f92919061195b565b6040516020818303038152906040525b9392505050565b6001600160a01b03821661110c5760405162461bcd60e51b815260206004820181905260248201527f4552433732313a206d696e7420746f20746865207a65726f20616464726573736044820152606401610420565b6000818152600260205260409020546001600160a01b0316156111715760405162461bcd60e51b815260206004820152601c60248201527f4552433732313a20746f6b656e20616c7265616479206d696e746564000000006044820152606401610420565b6001600160a01b038216600090815260036020526040812080546001929061119a908490611aab565b909155505060008181526002602052604080822080546001600160a01b0319166001600160a01b03861690811790915590518392907fddf252ad1be2c89b69c2b068fc378daa952ba7f163c4a11628f55a4df523b3ef908290a45050565b6000828152600260205260409020546001600160a01b03166112735760405162461bcd60e51b815260206004820152602e60248201527f45524337323155524953746f726167653a2055524920736574206f66206e6f6e60448201526d32bc34b9ba32b73a103a37b5b2b760911b6064820152608401610420565b60008281526006602052604090206104c182826119d8565b60006001600160a01b0384163b1561138157604051630a85bd0160e11b81526001600160a01b0385169063150b7a02906112cf903390899088908890600401611b10565b6020604051808303816000875af192505050801561130a575060408051601f3d908101601f1916820190925261130791810190611b4d565b60015b611367573d808015611338576040519150601f19603f3d011682016040523d82523d6000602084013e61133d565b606091505b50805160000361135f5760405162461bcd60e51b815260040161042090611abe565b805181602001fd5b6001600160e01b031916630a85bd0160e11b149050610a78565b506001949350505050565b6060816000036113b35750506040805180820190915260018152600360fc1b602082015290565b8160005b81156113dd57806113c781611926565b91506113d69050600a83611b80565b91506113b7565b60008167ffffffffffffffff8111156113f8576113f86116d5565b6040519080825280601f01601f191660200182016040528015611422576020820181803683370190505b5090505b8415610a7857611437600183611a98565b9150611444600a86611b94565b61144f906030611aab565b60f81b818381518110611464576114646118fa565b60200101906001600160f81b031916908160001a905350611486600a86611b80565b9450611426565b6001600160e01b031981168114610cb657600080fd5b6000602082840312156114b557600080fd5b81356110af8161148d565b60005b838110156114db5781810151838201526020016114c3565b50506000910152565b600081518084526114fc8160208601602086016114c0565b601f01601f19169290920160200192915050565b6020815260006110af60208301846114e4565b60006020828403121561153557600080fd5b5035919050565b80356001600160a01b038116811461155357600080fd5b919050565b6000806040838503121561156b57600080fd5b6115748361153c565b946020939093013593505050565b60008060006060848603121561159757600080fd5b6115a08461153c565b92506115ae6020850161153c565b9150604084013590509250925092565b6000602082840312156115d057600080fd5b6110af8261153c565b600081518084526020808501945080840160005b83811015611609578151875295820195908201906001016115ed565b509495945050505050565b60608152600061162760608301866115d9565b6020838203818501528186518084528284019150828160051b85010183890160005b8381101561167757601f198784030185526116658383516114e4565b94860194925090850190600101611649565b5050868103604088015261168b81896115d9565b9a9950505050505050505050565b600080604083850312156116ac57600080fd5b6116b58361153c565b9150602083013580151581146116ca57600080fd5b809150509250929050565b634e487b7160e01b600052604160045260246000fd5b600067ffffffffffffffff80841115611706576117066116d5565b604051601f8501601f19908116603f0116810190828211818310171561172e5761172e6116d5565b8160405280935085815286868601111561174757600080fd5b858560208301376000602087830101525050509392505050565b6000806040838503121561177457600080fd5b61177d8361153c565b9150602083013567ffffffffffffffff81111561179957600080fd5b8301601f810185136117aa57600080fd5b6117b9858235602084016116eb565b9150509250929050565b600080600080608085870312156117d957600080fd5b6117e28561153c565b93506117f06020860161153c565b925060408501359150606085013567ffffffffffffffff81111561181357600080fd5b8501601f8101871361182457600080fd5b611833878235602084016116eb565b91505092959194509250565b6000806040838503121561185257600080fd5b61185b8361153c565b91506118696020840161153c565b90509250929050565b600181811c9082168061188657607f821691505b6020821081036118a657634e487b7160e01b600052602260045260246000fd5b50919050565b6020808252602e908201527f4552433732313a2063616c6c6572206973206e6f7420746f6b656e206f776e6560408201526d1c881b9bdc88185c1c1c9bdd995960921b606082015260800190565b634e487b7160e01b600052603260045260246000fd5b634e487b7160e01b600052601160045260246000fd5b60006001820161193857611938611910565b5060010190565b600082516119518184602087016114c0565b9190910192915050565b6000835161196d8184602088016114c0565b8351908301906119818183602088016114c0565b01949350505050565b601f8211156104c157600081815260208120601f850160051c810160208610156119b15750805b601f850160051c820191505b818110156119d0578281556001016119bd565b505050505050565b815167ffffffffffffffff8111156119f2576119f26116d5565b611a0681611a008454611872565b8461198a565b602080601f831160018114611a3b5760008415611a235750858301515b600019600386901b1c1916600185901b1785556119d0565b600085815260208120601f198616915b82811015611a6a57888601518255948401946001909101908401611a4b565b5085821015611a885787850151600019600388901b60f8161c191681555b5050505050600190811b01905550565b818103818111156102ed576102ed611910565b808201808211156102ed576102ed611910565b60208082526032908201527f4552433732313a207472616e7366657220746f206e6f6e20455243373231526560408201527131b2b4bb32b91034b6b83632b6b2b73a32b960711b606082015260800190565b6001600160a01b0385811682528416602082015260408101839052608060608201819052600090611b43908301846114e4565b9695505050505050565b600060208284031215611b5f57600080fd5b81516110af8161148d565b634e487b7160e01b600052601260045260246000fd5b600082611b8f57611b8f611b6a565b500490565b600082611ba357611ba3611b6a565b50069056fea2646970667358221220429814a7997d7cc5294691cbe179df32c050a97852cd17e5bea0a580dd04dc9d64736f6c63430008110033",
  "linkReferences": {},
  "deployedLinkReferences": {}
}