{
  "_format": "hh-sol-artifact-1",
  "contractName": "DSOMW",
  "sourceName": "contracts/DSOMW.sol",
  "abi": [
    {
      "inputs": [
        {
          "internalType": "uint256",
          "name": "votingTime",
          "type": "uint256"
        },
        {
          "internalType": "uint256",
          "name": "maxVotingTimes",
          "type": "uint256"
        },
        {
          "internalType": "uint256",
          "name": "TpConsumedByProposal",
          "type": "uint256"
        },
        {
          "internalType": "uint256",
          "name": "tpConsumedByVote",
          "type": "uint256"
        },
        {
          "internalType": "uint256",
          "name": "initialUserTp",
          "type": "uint256"
        }
      ],
      "stateMutability": "nonpayable",
      "type": "constructor"
    },
    {
      "anonymous": false,
      "inputs": [
        {
          "components": [
            {
              "internalType": "uint256",
              "name": "id",
              "type": "uint256"
            },
            {
              "internalType": "string",
              "name": "content",
              "type": "string"
            },
            {
              "internalType": "address",
              "name": "proposer",
              "type": "address"
            },
            {
              "internalType": "uint256",
              "name": "voteEndTime",
              "type": "uint256"
            },
            {
              "internalType": "enum DSOMW.ProposalStatus",
              "name": "status",
              "type": "uint8"
            },
            {
              "internalType": "bool",
              "name": "isValid",
              "type": "bool"
            }
          ],
          "indexed": true,
          "internalType": "struct DSOMW.Proposal",
          "name": "proposal",
          "type": "tuple"
        }
      ],
      "name": "NewProposalAdded",
      "type": "event"
    },
    {
      "anonymous": false,
      "inputs": [
        {
          "components": [
            {
              "internalType": "enum DSOMW.VoteBehavior",
              "name": "behavior",
              "type": "uint8"
            },
            {
              "internalType": "address",
              "name": "voter",
              "type": "address"
            },
            {
              "internalType": "uint256",
              "name": "voteTime",
              "type": "uint256"
            },
            {
              "internalType": "uint256",
              "name": "proposalIdVotedOn",
              "type": "uint256"
            }
          ],
          "indexed": true,
          "internalType": "struct DSOMW.Vote",
          "name": "vote",
          "type": "tuple"
        }
      ],
      "name": "NewVoteAdded",
      "type": "event"
    },
    {
      "inputs": [],
      "name": "_TP",
      "outputs": [
        {
          "internalType": "contract MyERC20",
          "name": "",
          "type": "address"
        }
      ],
      "stateMutability": "view",
      "type": "function"
    },
    {
      "inputs": [
        {
          "internalType": "uint256",
          "name": "id",
          "type": "uint256"
        }
      ],
      "name": "_updateProposalStatus",
      "outputs": [
        {
          "internalType": "enum DSOMW.ProposalStatus",
          "name": "",
          "type": "uint8"
        }
      ],
      "stateMutability": "nonpayable",
      "type": "function"
    },
    {
      "inputs": [
        {
          "internalType": "string",
          "name": "content",
          "type": "string"
        }
      ],
      "name": "addNewProposal",
      "outputs": [],
      "stateMutability": "nonpayable",
      "type": "function"
    },
    {
      "inputs": [],
      "name": "getProposalIds",
      "outputs": [
        {
          "internalType": "uint256[]",
          "name": "",
          "type": "uint256[]"
        }
      ],
      "stateMutability": "view",
      "type": "function"
    },
    {
      "inputs": [
        {
          "internalType": "uint256",
          "name": "id",
          "type": "uint256"
        }
      ],
      "name": "getProposalInformation",
      "outputs": [
        {
          "internalType": "string",
          "name": "",
          "type": "string"
        },
        {
          "internalType": "address",
          "name": "",
          "type": "address"
        },
        {
          "internalType": "uint256",
          "name": "",
          "type": "uint256"
        },
        {
          "internalType": "uint256",
          "name": "",
          "type": "uint256"
        }
      ],
      "stateMutability": "view",
      "type": "function"
    },
    {
      "inputs": [
        {
          "internalType": "uint256",
          "name": "id",
          "type": "uint256"
        }
      ],
      "name": "getProposalVoteInformation",
      "outputs": [
        {
          "internalType": "uint256[]",
          "name": "",
          "type": "uint256[]"
        },
        {
          "internalType": "uint256[]",
          "name": "",
          "type": "uint256[]"
        },
        {
          "internalType": "address[]",
          "name": "",
          "type": "address[]"
        }
      ],
      "stateMutability": "view",
      "type": "function"
    },
    {
      "inputs": [],
      "name": "getUserVoteInformation",
      "outputs": [
        {
          "internalType": "uint256[]",
          "name": "",
          "type": "uint256[]"
        },
        {
          "internalType": "uint256[]",
          "name": "",
          "type": "uint256[]"
        },
        {
          "internalType": "uint256[]",
          "name": "",
          "type": "uint256[]"
        }
      ],
      "stateMutability": "view",
      "type": "function"
    },
    {
      "inputs": [],
      "name": "manager",
      "outputs": [
        {
          "internalType": "address",
          "name": "",
          "type": "address"
        }
      ],
      "stateMutability": "view",
      "type": "function"
    },
    {
      "inputs": [
        {
          "internalType": "uint256",
          "name": "userVote",
          "type": "uint256"
        },
        {
          "internalType": "uint256",
          "name": "id",
          "type": "uint256"
        }
      ],
      "name": "voteOnProposal",
      "outputs": [],
      "stateMutability": "nonpayable",
      "type": "function"
    }
  ],
  "bytecode": "0x60806040523480156200001157600080fd5b5060405162004b7938038062004b79833981810160405281019062000037919062000172565b82600060030181905550846005600201819055508360056003018190555081600560040181905550806040516200006e9062000124565b6200007a9190620002bc565b604051809103906000f08015801562000097573d6000803e3d6000fd5b50600a60006101000a81548173ffffffffffffffffffffffffffffffffffffffff021916908373ffffffffffffffffffffffffffffffffffffffff16021790555033600b60006101000a81548173ffffffffffffffffffffffffffffffffffffffff021916908373ffffffffffffffffffffffffffffffffffffffff160217905550505050505062000303565b611b9f8062002fda83390190565b600080fd5b6000819050919050565b6200014c8162000137565b81146200015857600080fd5b50565b6000815190506200016c8162000141565b92915050565b600080600080600060a0868803121562000191576200019062000132565b5b6000620001a1888289016200015b565b9550506020620001b4888289016200015b565b9450506040620001c7888289016200015b565b9350506060620001da888289016200015b565b9250506080620001ed888289016200015b565b9150509295509295909350565b600082825260208201905092915050565b7f546f6b656e506f696e7400000000000000000000000000000000000000000000600082015250565b600062000243600a83620001fa565b915062000250826200020b565b602082019050919050565b7f5450000000000000000000000000000000000000000000000000000000000000600082015250565b600062000293600283620001fa565b9150620002a0826200025b565b602082019050919050565b620002b68162000137565b82525050565b60006060820190508181036000830152620002d78162000234565b90508181036020830152620002ec8162000284565b9050620002fd6040830184620002ab565b92915050565b612cc780620003136000396000f3fe608060405234801561001057600080fd5b50600436106100935760003560e01c8063481c6a7511610066578063481c6a75146101375780634ee0a6bf14610155578063556f6cc0146101875780636d386393146101a3578063c6d05fd4146101c357610093565b80631c9d9cf2146100985780632b5b354e146100c857806336ae498d146100e657806340ba1b1e14610119575b600080fd5b6100b260048036038101906100ad9190611a83565b6101df565b6040516100bf9190611b27565b60405180910390f35b6100d06106be565b6040516100dd9190611bc1565b60405180910390f35b61010060048036038101906100fb9190611a83565b6106e4565b6040516101109493929190611c9c565b60405180910390f35b6101216108a9565b60405161012e9190611da6565b60405180910390f35b61013f61094e565b60405161014c9190611dc8565b60405180910390f35b61016f600480360381019061016a9190611a83565b610974565b60405161017e93929190611ea1565b60405180910390f35b6101a1600480360381019061019c9190611eed565b610d75565b005b6101ab6112a1565b6040516101ba93929190611f2d565b60405180910390f35b6101dd60048036038101906101d89190611fde565b611564565b005b60006001151560008001600084815260200190815260200160002060040160019054906101000a900460ff1615151461024d576040517f08c379a000000000000000000000000000000000000000000000000000000000815260040161024490612077565b60405180910390fd5b600015156000600201600084815260200190815260200160002060009054906101000a900460ff161515146102b7576040517f08c379a00000000000000000000000000000000000000000000000000000000081526004016102ae90612109565b60405180910390fd5b60016000600201600084815260200190815260200160002060006101000a81548160ff021916908315150217905550600060028111156102fa576102f9611ab0565b5b60008001600084815260200190815260200160002060040160009054906101000a900460ff16600281111561033257610331611ab0565b5b0361066357600080016000838152602001908152602001600020600301544211156106625760008060005b6005600101805490508110156105ce576000600560000160006005600101848154811061038d5761038c612129565b5b9060005260206000200160009054906101000a900473ffffffffffffffffffffffffffffffffffffffff1673ffffffffffffffffffffffffffffffffffffffff1673ffffffffffffffffffffffffffffffffffffffff1681526020019081526020016000206000878152602001908152602001600020805480602002602001604051908101604052809291908181526020016000905b828210156104fa57838290600052602060002090600302016040518060800160405290816000820160009054906101000a900460ff16600181111561046b5761046a611ab0565b5b600181111561047d5761047c611ab0565b5b81526020016000820160019054906101000a900473ffffffffffffffffffffffffffffffffffffffff1673ffffffffffffffffffffffffffffffffffffffff1673ffffffffffffffffffffffffffffffffffffffff1681526020016001820154815260200160028201548152505081526020019060010190610423565b5050505090506000815111156105ba576000816001835161051b9190612187565b8151811061052c5761052b612129565b5b6020026020010151905060018081111561054957610548611ab0565b5b816000015160018111156105605761055f611ab0565b5b03610578578480610570906121bb565b9550506105b8565b6000600181111561058c5761058b611ab0565b5b816000015160018111156105a3576105a2611ab0565b5b036105b75783806105b3906121bb565b9450505b5b505b5080806105c6906121bb565b91505061035d565b8183111561061c57600260008001600087815260200190815260200160002060040160006101000a81548160ff0219169083600281111561061257610611611ab0565b5b021790555061065e565b600160008001600087815260200190815260200160002060040160006101000a81548160ff0219169083600281111561065857610657611ab0565b5b02179055505b5050505b5b600080600201600084815260200190815260200160002060006101000a81548160ff02191690831515021790555060008001600083815260200190815260200160002060040160009054906101000a900460ff169050919050565b600a60009054906101000a900473ffffffffffffffffffffffffffffffffffffffff1681565b606060008060006001151560008001600087815260200190815260200160002060040160019054906101000a900460ff16151514610757576040517f08c379a000000000000000000000000000000000000000000000000000000000815260040161074e90612077565b60405180910390fd5b600080600001600087815260200190815260200160002060040160009054906101000a900460ff16600281111561079157610790611ab0565b5b9050600080600001600088815260200190815260200160002060010180546107b890612232565b80601f01602080910402602001604051908101604052809291908181526020018280546107e490612232565b80156108315780601f1061080657610100808354040283529160200191610831565b820191906000526020600020905b81548152906001019060200180831161081457829003601f168201915b50505050509050600080600001600089815260200190815260200160002060020160009054906101000a900473ffffffffffffffffffffffffffffffffffffffff16905060008060000160008a8152602001908152602001600020600301549050828282869750975097509750505050509193509193565b606060008060010180549050116108f5576040517f08c379a00000000000000000000000000000000000000000000000000000000081526004016108ec906122af565b60405180910390fd5b600060010180548060200260200160405190810160405280929190818152602001828054801561094457602002820191906000526020600020905b815481526020019060010190808311610930575b5050505050905090565b600b60009054906101000a900473ffffffffffffffffffffffffffffffffffffffff1681565b606080606060008001600085815260200190815260200160002060020160009054906101000a900473ffffffffffffffffffffffffffffffffffffffff1673ffffffffffffffffffffffffffffffffffffffff163373ffffffffffffffffffffffffffffffffffffffff161480610a355750600060028111156109fa576109f9611ab0565b5b60008001600086815260200190815260200160002060040160009054906101000a900460ff166002811115610a3257610a31611ab0565b5b14155b610a74576040517f08c379a0000000000000000000000000000000000000000000000000000000008152600401610a6b9061238d565b60405180910390fd5b600080606080606060008095505b600560010180549050861015610d5f5760006005600001600060056001018981548110610ab257610ab1612129565b5b9060005260206000200160009054906101000a900473ffffffffffffffffffffffffffffffffffffffff1673ffffffffffffffffffffffffffffffffffffffff1673ffffffffffffffffffffffffffffffffffffffff16815260200190815260200160002060008c8152602001908152602001600020805480602002602001604051908101604052809291908181526020016000905b82821015610c1f57838290600052602060002090600302016040518060800160405290816000820160009054906101000a900460ff166001811115610b9057610b8f611ab0565b5b6001811115610ba257610ba1611ab0565b5b81526020016000820160019054906101000a900473ffffffffffffffffffffffffffffffffffffffff1673ffffffffffffffffffffffffffffffffffffffff1673ffffffffffffffffffffffffffffffffffffffff1681526020016001820154815260200160028201548152505081526020019060010190610b48565b505050509050600081511115610d4b57600095505b8051861015610d4a57808681518110610c5057610c4f612129565b5b6020026020010151600001516001811115610c6e57610c6d611ab0565b5b858381518110610c8157610c80612129565b5b602002602001018181525050808681518110610ca057610c9f612129565b5b602002602001015160400151848381518110610cbf57610cbe612129565b5b602002602001018181525050808681518110610cde57610cdd612129565b5b602002602001015160200151838381518110610cfd57610cfc612129565b5b602002602001019073ffffffffffffffffffffffffffffffffffffffff16908173ffffffffffffffffffffffffffffffffffffffff16815250508580610d42906121bb565b965050610c34565b5b508580610d57906121bb565b965050610a82565b8383839850985098505050505050509193909250565b60006002811115610d8957610d88611ab0565b5b610d92826101df565b6002811115610da457610da3611ab0565b5b14610de4576040517f08c379a0000000000000000000000000000000000000000000000000000000008152600401610ddb9061241f565b60405180910390fd5b600560030154600560000160003373ffffffffffffffffffffffffffffffffffffffff1673ffffffffffffffffffffffffffffffffffffffff16815260200190815260200160002060008381526020019081526020016000208054905010610e81576040517f08c379a0000000000000000000000000000000000000000000000000000000008152600401610e78906124d7565b60405180910390fd5b600560040154600a60009054906101000a900473ffffffffffffffffffffffffffffffffffffffff1673ffffffffffffffffffffffffffffffffffffffff166370a08231336040518263ffffffff1660e01b8152600401610ee29190611dc8565b602060405180830381865afa158015610eff573d6000803e3d6000fd5b505050506040513d601f19601f82011682018060405250810190610f23919061250c565b1015610f64576040517f08c379a0000000000000000000000000000000000000000000000000000000008152600401610f5b90612585565b60405180910390fd5b600560040154600a60009054906101000a900473ffffffffffffffffffffffffffffffffffffffff1673ffffffffffffffffffffffffffffffffffffffff1663dd62ed3e33306040518363ffffffff1660e01b8152600401610fc79291906125a5565b602060405180830381865afa158015610fe4573d6000803e3d6000fd5b505050506040513d601f19601f82011682018060405250810190611008919061250c565b1015611049576040517f08c379a000000000000000000000000000000000000000000000000000000000815260040161104090612640565b60405180910390fd5b600a60009054906101000a900473ffffffffffffffffffffffffffffffffffffffff1673ffffffffffffffffffffffffffffffffffffffff166323b872dd33306005600401546040518463ffffffff1660e01b81526004016110ad93929190612660565b6020604051808303816000875af11580156110cc573d6000803e3d6000fd5b505050506040513d601f19601f820116820180604052508101906110f091906126cf565b506000604051806080016040528084600181111561111157611110611ab0565b5b600181111561112357611122611ab0565b5b81526020013373ffffffffffffffffffffffffffffffffffffffff168152602001428152602001838152509050600560000160003373ffffffffffffffffffffffffffffffffffffffff1673ffffffffffffffffffffffffffffffffffffffff168152602001908152602001600020600083815260200190815260200160002081908060018154018082558091505060019003906000526020600020906003020160009091909190915060008201518160000160006101000a81548160ff021916908360018111156111f8576111f7611ab0565b5b021790555060208201518160000160016101000a81548173ffffffffffffffffffffffffffffffffffffffff021916908373ffffffffffffffffffffffffffffffffffffffff160217905550604082015181600101556060820151816002015550508060405161126891906127fb565b60405180910390207fbe031c0bd24e954596325f087af085ef6de26e7319bb85756db49e574e7d69d360405160405180910390a2505050565b6060806060600080606080606060008095505b600060010180549050861015611550576000600560000160003373ffffffffffffffffffffffffffffffffffffffff1673ffffffffffffffffffffffffffffffffffffffff16815260200190815260200160002060008060010189815481106113205761131f612129565b5b90600052602060002001548152602001908152602001600020805480602002602001604051908101604052809291908181526020016000905b8282101561143057838290600052602060002090600302016040518060800160405290816000820160009054906101000a900460ff1660018111156113a1576113a0611ab0565b5b60018111156113b3576113b2611ab0565b5b81526020016000820160019054906101000a900473ffffffffffffffffffffffffffffffffffffffff1673ffffffffffffffffffffffffffffffffffffffff1673ffffffffffffffffffffffffffffffffffffffff1681526020016001820154815260200160028201548152505081526020019060010190611359565b50505050905060008151111561153c57600095505b805186101561153b5780868151811061146157611460612129565b5b602002602001015160000151600181111561147f5761147e611ab0565b5b85838151811061149257611491612129565b5b6020026020010181815250508086815181106114b1576114b0612129565b5b6020026020010151604001518483815181106114d0576114cf612129565b5b6020026020010181815250508086815181106114ef576114ee612129565b5b60200260200101516060015183838151811061150e5761150d612129565b5b6020026020010181815250508180611525906121bb565b9250508580611533906121bb565b965050611445565b5b508580611548906121bb565b9650506112b4565b838383985098509850505050505050909192565b600060030154600a60009054906101000a900473ffffffffffffffffffffffffffffffffffffffff1673ffffffffffffffffffffffffffffffffffffffff166370a08231336040518263ffffffff1660e01b81526004016115c59190611dc8565b602060405180830381865afa1580156115e2573d6000803e3d6000fd5b505050506040513d601f19601f82011682018060405250810190611606919061250c565b1015611647576040517f08c379a000000000000000000000000000000000000000000000000000000000815260040161163e90612862565b60405180910390fd5b600060030154600a60009054906101000a900473ffffffffffffffffffffffffffffffffffffffff1673ffffffffffffffffffffffffffffffffffffffff1663dd62ed3e33306040518363ffffffff1660e01b81526004016116aa9291906125a5565b602060405180830381865afa1580156116c7573d6000803e3d6000fd5b505050506040513d601f19601f820116820180604052508101906116eb919061250c565b101561172c576040517f08c379a000000000000000000000000000000000000000000000000000000000815260040161172390612640565b60405180910390fd5b600a60009054906101000a900473ffffffffffffffffffffffffffffffffffffffff1673ffffffffffffffffffffffffffffffffffffffff166323b872dd33306000600301546040518463ffffffff1660e01b815260040161179093929190612660565b6020604051808303816000875af11580156117af573d6000803e3d6000fd5b505050506040513d601f19601f820116820180604052508101906117d391906126cf565b5060006117e36000600401611a1f565b905060006040518060c0016040528083815260200185858080601f016020809104026020016040519081016040528093929190818152602001838380828437600081840152601f19601f8201169050808301925050505050505081526020013373ffffffffffffffffffffffffffffffffffffffff1681526020016005600201544261186f9190612882565b81526020016000600281111561188857611887611ab0565b5b8152602001600115158152509050806000800160008481526020019081526020016000206000820151816000015560208201518160010190816118cb9190612a87565b5060408201518160020160006101000a81548173ffffffffffffffffffffffffffffffffffffffff021916908373ffffffffffffffffffffffffffffffffffffffff1602179055506060820151816003015560808201518160040160006101000a81548160ff0219169083600281111561194857611947611ab0565b5b021790555060a08201518160040160016101000a81548160ff021916908315150217905550905050600080600201600084815260200190815260200160002060006101000a81548160ff02191690831515021790555060006001018290806001815401808255809150506001900390600052602060002001600090919091909150556119d76000600401611a2d565b806040516119e59190612c7a565b60405180910390207ff6ec4b3771bd5df9b2b4fea004d861951488316683be8587e74e98f64e10534e60405160405180910390a250505050565b600081600001549050919050565b6001816000016000828254019250508190555050565b600080fd5b600080fd5b6000819050919050565b611a6081611a4d565b8114611a6b57600080fd5b50565b600081359050611a7d81611a57565b92915050565b600060208284031215611a9957611a98611a43565b5b6000611aa784828501611a6e565b91505092915050565b7f4e487b7100000000000000000000000000000000000000000000000000000000600052602160045260246000fd5b60038110611af057611aef611ab0565b5b50565b6000819050611b0182611adf565b919050565b6000611b1182611af3565b9050919050565b611b2181611b06565b82525050565b6000602082019050611b3c6000830184611b18565b92915050565b600073ffffffffffffffffffffffffffffffffffffffff82169050919050565b6000819050919050565b6000611b87611b82611b7d84611b42565b611b62565b611b42565b9050919050565b6000611b9982611b6c565b9050919050565b6000611bab82611b8e565b9050919050565b611bbb81611ba0565b82525050565b6000602082019050611bd66000830184611bb2565b92915050565b600081519050919050565b600082825260208201905092915050565b60005b83811015611c16578082015181840152602081019050611bfb565b60008484015250505050565b6000601f19601f8301169050919050565b6000611c3e82611bdc565b611c488185611be7565b9350611c58818560208601611bf8565b611c6181611c22565b840191505092915050565b6000611c7782611b42565b9050919050565b611c8781611c6c565b82525050565b611c9681611a4d565b82525050565b60006080820190508181036000830152611cb68187611c33565b9050611cc56020830186611c7e565b611cd26040830185611c8d565b611cdf6060830184611c8d565b95945050505050565b600081519050919050565b600082825260208201905092915050565b6000819050602082019050919050565b611d1d81611a4d565b82525050565b6000611d2f8383611d14565b60208301905092915050565b6000602082019050919050565b6000611d5382611ce8565b611d5d8185611cf3565b9350611d6883611d04565b8060005b83811015611d99578151611d808882611d23565b9750611d8b83611d3b565b925050600181019050611d6c565b5085935050505092915050565b60006020820190508181036000830152611dc08184611d48565b905092915050565b6000602082019050611ddd6000830184611c7e565b92915050565b600081519050919050565b600082825260208201905092915050565b6000819050602082019050919050565b611e1881611c6c565b82525050565b6000611e2a8383611e0f565b60208301905092915050565b6000602082019050919050565b6000611e4e82611de3565b611e588185611dee565b9350611e6383611dff565b8060005b83811015611e94578151611e7b8882611e1e565b9750611e8683611e36565b925050600181019050611e67565b5085935050505092915050565b60006060820190508181036000830152611ebb8186611d48565b90508181036020830152611ecf8185611d48565b90508181036040830152611ee38184611e43565b9050949350505050565b60008060408385031215611f0457611f03611a43565b5b6000611f1285828601611a6e565b9250506020611f2385828601611a6e565b9150509250929050565b60006060820190508181036000830152611f478186611d48565b90508181036020830152611f5b8185611d48565b90508181036040830152611f6f8184611d48565b9050949350505050565b600080fd5b600080fd5b600080fd5b60008083601f840112611f9e57611f9d611f79565b5b8235905067ffffffffffffffff811115611fbb57611fba611f7e565b5b602083019150836001820283011115611fd757611fd6611f83565b5b9250929050565b60008060208385031215611ff557611ff4611a43565b5b600083013567ffffffffffffffff81111561201357612012611a48565b5b61201f85828601611f88565b92509250509250929050565b7f546869732070726f706f73616c20646f65736e27742065786973742e00000000600082015250565b6000612061601c83611be7565b915061206c8261202b565b602082019050919050565b6000602082019050818103600083015261209081612054565b9050919050565b7f556e61626c6520746f20676574207374617475732061742074686973206d6f6d60008201527f656e742e20506c6561736520646f206974206c617465722e0000000000000000602082015250565b60006120f3603883611be7565b91506120fe82612097565b604082019050919050565b60006020820190508181036000830152612122816120e6565b9050919050565b7f4e487b7100000000000000000000000000000000000000000000000000000000600052603260045260246000fd5b7f4e487b7100000000000000000000000000000000000000000000000000000000600052601160045260246000fd5b600061219282611a4d565b915061219d83611a4d565b92508282039050818111156121b5576121b4612158565b5b92915050565b60006121c682611a4d565b91507fffffffffffffffffffffffffffffffffffffffffffffffffffffffffffffffff82036121f8576121f7612158565b5b600182019050919050565b7f4e487b7100000000000000000000000000000000000000000000000000000000600052602260045260246000fd5b6000600282049050600182168061224a57607f821691505b60208210810361225d5761225c612203565b5b50919050565b7f4e6f2070726f706f73616c206164646564207965742e00000000000000000000600082015250565b6000612299601683611be7565b91506122a482612263565b602082019050919050565b600060208201905081810360008301526122c88161228c565b9050919050565b7f556e61626c6520746f2067657420766f746520696e666f726d6174696f6e206f60008201527f662070726f706f73616c206265636175736520796f75277265206e6f7420707260208201527f6f706f73657220616e6420766f74696e67206973206e6f74206f76657220796560408201527f742e000000000000000000000000000000000000000000000000000000000000606082015250565b6000612377606283611be7565b9150612382826122cf565b608082019050919050565b600060208201905081810360008301526123a68161236a565b9050919050565b7f556e61626c6520746f20766f7465206f6e20746869732070726f706f73616c2060008201527f6265636175736520766f74696e672068617320636c6f7365642e000000000000602082015250565b6000612409603a83611be7565b9150612414826123ad565b604082019050919050565b60006020820190508181036000830152612438816123fc565b9050919050565b7f556e61626c6520746f20766f7465206f6e20746869732070726f706f73616c2060008201527f6265636175736520746865206d6178696d756d206e756d626572206f6620766f60208201527f74657320686173206265656e20726561636865642e0000000000000000000000604082015250565b60006124c1605583611be7565b91506124cc8261243f565b606082019050919050565b600060208201905081810360008301526124f0816124b4565b9050919050565b60008151905061250681611a57565b92915050565b60006020828403121561252257612521611a43565b5b6000612530848285016124f7565b91505092915050565b7f556e61626c6520746f206166666f72642061206e657720766f74652e00000000600082015250565b600061256f601c83611be7565b915061257a82612539565b602082019050919050565b6000602082019050818103600083015261259e81612562565b9050919050565b60006040820190506125ba6000830185611c7e565b6125c76020830184611c7e565b9392505050565b7f44534f4d5720646f6e2774206861766520616c6c6f77616e6365206f7665722060008201527f796f75722054502e20506c6561736520617574686f72697a652044534f4d572e602082015250565b600061262a604083611be7565b9150612635826125ce565b604082019050919050565b600060208201905081810360008301526126598161261d565b9050919050565b60006060820190506126756000830186611c7e565b6126826020830185611c7e565b61268f6040830184611c8d565b949350505050565b60008115159050919050565b6126ac81612697565b81146126b757600080fd5b50565b6000815190506126c9816126a3565b92915050565b6000602082840312156126e5576126e4611a43565b5b60006126f3848285016126ba565b91505092915050565b6002811061270d5761270c611ab0565b5b50565b600081905061271e826126fc565b919050565b600061272e82612710565b9050919050565b61273e81612723565b82525050565b60006127508383612735565b60208301905092915050565b61276581611c6c565b82525050565b6000612777838361275c565b60208301905092915050565b61278c81611a4d565b82525050565b600061279e8383612783565b60208301905092915050565b6000820160008201516127bd8482612744565b93505060208201516127cf848261276b565b93505060408201516127e18482612792565b93505060608201516127f38482612792565b935050505050565b600061280782846127aa565b60808201915081905092915050565b7f556e61626c6520746f206166666f72642061206e65772070726f706f73616c2e600082015250565b600061284c602083611be7565b915061285782612816565b602082019050919050565b6000602082019050818103600083015261287b8161283f565b9050919050565b600061288d82611a4d565b915061289883611a4d565b92508282019050808211156128b0576128af612158565b5b92915050565b7f4e487b7100000000000000000000000000000000000000000000000000000000600052604160045260246000fd5b60008190508160005260206000209050919050565b60006020601f8301049050919050565b600082821b905092915050565b6000600883026129477fffffffffffffffffffffffffffffffffffffffffffffffffffffffffffffffff8261290a565b612951868361290a565b95508019841693508086168417925050509392505050565b600061298461297f61297a84611a4d565b611b62565b611a4d565b9050919050565b6000819050919050565b61299e83612969565b6129b26129aa8261298b565b848454612917565b825550505050565b600090565b6129c76129ba565b6129d2818484612995565b505050565b5b818110156129f6576129eb6000826129bf565b6001810190506129d8565b5050565b601f821115612a3b57612a0c816128e5565b612a15846128fa565b81016020851015612a24578190505b612a38612a30856128fa565b8301826129d7565b50505b505050565b600082821c905092915050565b6000612a5e60001984600802612a40565b1980831691505092915050565b6000612a778383612a4d565b9150826002028217905092915050565b612a9082611bdc565b67ffffffffffffffff811115612aa957612aa86128b6565b5b612ab38254612232565b612abe8282856129fa565b600060209050601f831160018114612af15760008415612adf578287015190505b612ae98582612a6b565b865550612b51565b601f198416612aff866128e5565b60005b82811015612b2757848901518255600182019150602085019450602081019050612b02565b86831015612b445784890151612b40601f891682612a4d565b8355505b6001600288020188555050505b505050505050565b600081905092915050565b6000612b6f82611bdc565b612b798185612b59565b9350612b89818560208601611bf8565b612b9281611c22565b840191505092915050565b6000612ba98383612b64565b905092915050565b612bba81611b06565b82525050565b6000612bcc8383612bb1565b60208301905092915050565b612be181612697565b82525050565b6000612bf38383612bd8565b60208301905092915050565b60008083016000830151612c138582612792565b9450506020830151612c258582612b9d565b9450506040830151612c37858261276b565b9450506060830151612c498582612792565b9450506080830151612c5b8582612bc0565b94505060a0830151612c6d8582612be7565b9450508391505092915050565b6000612c868284612bff565b91508190509291505056fea26469706673582212201564b61113379de129ca6f8d4d76c946dd1d71ff4e3a0879088f78fce6abf8b264736f6c6343000811003360806040523480156200001157600080fd5b5060405162001b9f38038062001b9f83398181016040528101906200003791906200023d565b828281600390816200004a919062000518565b5080600490816200005c919062000518565b50505080600581905550505050620005ff565b6000604051905090565b600080fd5b600080fd5b600080fd5b600080fd5b6000601f19601f8301169050919050565b7f4e487b7100000000000000000000000000000000000000000000000000000000600052604160045260246000fd5b620000d8826200008d565b810181811067ffffffffffffffff82111715620000fa57620000f96200009e565b5b80604052505050565b60006200010f6200006f565b90506200011d8282620000cd565b919050565b600067ffffffffffffffff82111562000140576200013f6200009e565b5b6200014b826200008d565b9050602081019050919050565b60005b83811015620001785780820151818401526020810190506200015b565b60008484015250505050565b60006200019b620001958462000122565b62000103565b905082815260208101848484011115620001ba57620001b962000088565b5b620001c784828562000158565b509392505050565b600082601f830112620001e757620001e662000083565b5b8151620001f984826020860162000184565b91505092915050565b6000819050919050565b620002178162000202565b81146200022357600080fd5b50565b60008151905062000237816200020c565b92915050565b60008060006060848603121562000259576200025862000079565b5b600084015167ffffffffffffffff8111156200027a57620002796200007e565b5b6200028886828701620001cf565b935050602084015167ffffffffffffffff811115620002ac57620002ab6200007e565b5b620002ba86828701620001cf565b9250506040620002cd8682870162000226565b9150509250925092565b600081519050919050565b7f4e487b7100000000000000000000000000000000000000000000000000000000600052602260045260246000fd5b600060028204905060018216806200032a57607f821691505b60208210810362000340576200033f620002e2565b5b50919050565b60008190508160005260206000209050919050565b60006020601f8301049050919050565b600082821b905092915050565b600060088302620003aa7fffffffffffffffffffffffffffffffffffffffffffffffffffffffffffffffff826200036b565b620003b686836200036b565b95508019841693508086168417925050509392505050565b6000819050919050565b6000620003f9620003f3620003ed8462000202565b620003ce565b62000202565b9050919050565b6000819050919050565b6200041583620003d8565b6200042d620004248262000400565b84845462000378565b825550505050565b600090565b6200044462000435565b620004518184846200040a565b505050565b5b8181101562000479576200046d6000826200043a565b60018101905062000457565b5050565b601f821115620004c857620004928162000346565b6200049d846200035b565b81016020851015620004ad578190505b620004c5620004bc856200035b565b83018262000456565b50505b505050565b600082821c905092915050565b6000620004ed60001984600802620004cd565b1980831691505092915050565b6000620005088383620004da565b9150826002028217905092915050565b6200052382620002d7565b67ffffffffffffffff8111156200053f576200053e6200009e565b5b6200054b825462000311565b620005588282856200047d565b600060209050601f8311600181146200059057600084156200057b578287015190505b620005878582620004fa565b865550620005f7565b601f198416620005a08662000346565b60005b82811015620005ca57848901518255600182019150602085019450602081019050620005a3565b86831015620005ea5784890151620005e6601f891682620004da565b8355505b6001600288020188555050505b505050505050565b611590806200060f6000396000f3fe608060405234801561001057600080fd5b50600436106100b45760003560e01c806370a082311161007157806370a08231146101a357806395d89b41146101d3578063a457c2d7146101f1578063a9059cbb14610221578063dd62ed3e14610251578063e3ad8bc714610281576100b4565b806306fdde03146100b9578063095ea7b3146100d757806318160ddd1461010757806323b872dd14610125578063313ce567146101555780633950935114610173575b600080fd5b6100c161029d565b6040516100ce9190610d95565b60405180910390f35b6100f160048036038101906100ec9190610e50565b61032f565b6040516100fe9190610eab565b60405180910390f35b61010f610352565b60405161011c9190610ed5565b60405180910390f35b61013f600480360381019061013a9190610ef0565b61035c565b60405161014c9190610eab565b60405180910390f35b61015d61038b565b60405161016a9190610f5f565b60405180910390f35b61018d60048036038101906101889190610e50565b610394565b60405161019a9190610eab565b60405180910390f35b6101bd60048036038101906101b89190610f7a565b6103cb565b6040516101ca9190610ed5565b60405180910390f35b6101db610413565b6040516101e89190610d95565b60405180910390f35b61020b60048036038101906102069190610e50565b6104a5565b6040516102189190610eab565b60405180910390f35b61023b60048036038101906102369190610e50565b61051c565b6040516102489190610eab565b60405180910390f35b61026b60048036038101906102669190610fa7565b61053f565b6040516102789190610ed5565b60405180910390f35b61029b60048036038101906102969190610f7a565b6105c6565b005b6060600380546102ac90611016565b80601f01602080910402602001604051908101604052809291908181526020018280546102d890611016565b80156103255780601f106102fa57610100808354040283529160200191610325565b820191906000526020600020905b81548152906001019060200180831161030857829003601f168201915b5050505050905090565b60008061033a6106c0565b90506103478185856106c8565b600191505092915050565b6000600254905090565b6000806103676106c0565b9050610374858285610891565b61037f85858561091d565b60019150509392505050565b60006012905090565b60008061039f6106c0565b90506103c08185856103b1858961053f565b6103bb9190611076565b6106c8565b600191505092915050565b60008060008373ffffffffffffffffffffffffffffffffffffffff1673ffffffffffffffffffffffffffffffffffffffff168152602001908152602001600020549050919050565b60606004805461042290611016565b80601f016020809104026020016040519081016040528092919081815260200182805461044e90611016565b801561049b5780601f106104705761010080835404028352916020019161049b565b820191906000526020600020905b81548152906001019060200180831161047e57829003601f168201915b5050505050905090565b6000806104b06106c0565b905060006104be828661053f565b905083811015610503576040517f08c379a00000000000000000000000000000000000000000000000000000000081526004016104fa9061111c565b60405180910390fd5b61051082868684036106c8565b60019250505092915050565b6000806105276106c0565b905061053481858561091d565b600191505092915050565b6000600160008473ffffffffffffffffffffffffffffffffffffffff1673ffffffffffffffffffffffffffffffffffffffff16815260200190815260200160002060008373ffffffffffffffffffffffffffffffffffffffff1673ffffffffffffffffffffffffffffffffffffffff16815260200190815260200160002054905092915050565b60001515600660008373ffffffffffffffffffffffffffffffffffffffff1673ffffffffffffffffffffffffffffffffffffffff16815260200190815260200160002060009054906101000a900460ff16151514610659576040517f08c379a000000000000000000000000000000000000000000000000000000000815260040161065090611188565b60405180910390fd5b61066581600554610b9c565b6001600660008373ffffffffffffffffffffffffffffffffffffffff1673ffffffffffffffffffffffffffffffffffffffff16815260200190815260200160002060006101000a81548160ff02191690831515021790555050565b600033905090565b600073ffffffffffffffffffffffffffffffffffffffff168373ffffffffffffffffffffffffffffffffffffffff1603610737576040517f08c379a000000000000000000000000000000000000000000000000000000000815260040161072e9061121a565b60405180910390fd5b600073ffffffffffffffffffffffffffffffffffffffff168273ffffffffffffffffffffffffffffffffffffffff16036107a6576040517f08c379a000000000000000000000000000000000000000000000000000000000815260040161079d906112ac565b60405180910390fd5b80600160008573ffffffffffffffffffffffffffffffffffffffff1673ffffffffffffffffffffffffffffffffffffffff16815260200190815260200160002060008473ffffffffffffffffffffffffffffffffffffffff1673ffffffffffffffffffffffffffffffffffffffff168152602001908152602001600020819055508173ffffffffffffffffffffffffffffffffffffffff168373ffffffffffffffffffffffffffffffffffffffff167f8c5be1e5ebec7d5bd14f71427d1e84f3dd0314c0f7b2291e5b200ac8c7c3b925836040516108849190610ed5565b60405180910390a3505050565b600061089d848461053f565b90507fffffffffffffffffffffffffffffffffffffffffffffffffffffffffffffffff81146109175781811015610909576040517f08c379a000000000000000000000000000000000000000000000000000000000815260040161090090611318565b60405180910390fd5b61091684848484036106c8565b5b50505050565b600073ffffffffffffffffffffffffffffffffffffffff168373ffffffffffffffffffffffffffffffffffffffff160361098c576040517f08c379a0000000000000000000000000000000000000000000000000000000008152600401610983906113aa565b60405180910390fd5b600073ffffffffffffffffffffffffffffffffffffffff168273ffffffffffffffffffffffffffffffffffffffff16036109fb576040517f08c379a00000000000000000000000000000000000000000000000000000000081526004016109f29061143c565b60405180910390fd5b610a06838383610cfb565b60008060008573ffffffffffffffffffffffffffffffffffffffff1673ffffffffffffffffffffffffffffffffffffffff16815260200190815260200160002054905081811015610a8c576040517f08c379a0000000000000000000000000000000000000000000000000000000008152600401610a83906114ce565b60405180910390fd5b8181036000808673ffffffffffffffffffffffffffffffffffffffff1673ffffffffffffffffffffffffffffffffffffffff16815260200190815260200160002081905550816000808573ffffffffffffffffffffffffffffffffffffffff1673ffffffffffffffffffffffffffffffffffffffff1681526020019081526020016000206000828254610b1f9190611076565b925050819055508273ffffffffffffffffffffffffffffffffffffffff168473ffffffffffffffffffffffffffffffffffffffff167fddf252ad1be2c89b69c2b068fc378daa952ba7f163c4a11628f55a4df523b3ef84604051610b839190610ed5565b60405180910390a3610b96848484610d00565b50505050565b600073ffffffffffffffffffffffffffffffffffffffff168273ffffffffffffffffffffffffffffffffffffffff1603610c0b576040517f08c379a0000000000000000000000000000000000000000000000000000000008152600401610c029061153a565b60405180910390fd5b610c1760008383610cfb565b8060026000828254610c299190611076565b92505081905550806000808473ffffffffffffffffffffffffffffffffffffffff1673ffffffffffffffffffffffffffffffffffffffff1681526020019081526020016000206000828254610c7e9190611076565b925050819055508173ffffffffffffffffffffffffffffffffffffffff16600073ffffffffffffffffffffffffffffffffffffffff167fddf252ad1be2c89b69c2b068fc378daa952ba7f163c4a11628f55a4df523b3ef83604051610ce39190610ed5565b60405180910390a3610cf760008383610d00565b5050565b505050565b505050565b600081519050919050565b600082825260208201905092915050565b60005b83811015610d3f578082015181840152602081019050610d24565b60008484015250505050565b6000601f19601f8301169050919050565b6000610d6782610d05565b610d718185610d10565b9350610d81818560208601610d21565b610d8a81610d4b565b840191505092915050565b60006020820190508181036000830152610daf8184610d5c565b905092915050565b600080fd5b600073ffffffffffffffffffffffffffffffffffffffff82169050919050565b6000610de782610dbc565b9050919050565b610df781610ddc565b8114610e0257600080fd5b50565b600081359050610e1481610dee565b92915050565b6000819050919050565b610e2d81610e1a565b8114610e3857600080fd5b50565b600081359050610e4a81610e24565b92915050565b60008060408385031215610e6757610e66610db7565b5b6000610e7585828601610e05565b9250506020610e8685828601610e3b565b9150509250929050565b60008115159050919050565b610ea581610e90565b82525050565b6000602082019050610ec06000830184610e9c565b92915050565b610ecf81610e1a565b82525050565b6000602082019050610eea6000830184610ec6565b92915050565b600080600060608486031215610f0957610f08610db7565b5b6000610f1786828701610e05565b9350506020610f2886828701610e05565b9250506040610f3986828701610e3b565b9150509250925092565b600060ff82169050919050565b610f5981610f43565b82525050565b6000602082019050610f746000830184610f50565b92915050565b600060208284031215610f9057610f8f610db7565b5b6000610f9e84828501610e05565b91505092915050565b60008060408385031215610fbe57610fbd610db7565b5b6000610fcc85828601610e05565b9250506020610fdd85828601610e05565b9150509250929050565b7f4e487b7100000000000000000000000000000000000000000000000000000000600052602260045260246000fd5b6000600282049050600182168061102e57607f821691505b60208210810361104157611040610fe7565b5b50919050565b7f4e487b7100000000000000000000000000000000000000000000000000000000600052601160045260246000fd5b600061108182610e1a565b915061108c83610e1a565b92508282019050808211156110a4576110a3611047565b5b92915050565b7f45524332303a2064656372656173656420616c6c6f77616e63652062656c6f7760008201527f207a65726f000000000000000000000000000000000000000000000000000000602082015250565b6000611106602583610d10565b9150611111826110aa565b604082019050919050565b60006020820190508181036000830152611135816110f9565b9050919050565b7f5468697320757365722068617320676f7420545020616c726561647900000000600082015250565b6000611172601c83610d10565b915061117d8261113c565b602082019050919050565b600060208201905081810360008301526111a181611165565b9050919050565b7f45524332303a20617070726f76652066726f6d20746865207a65726f2061646460008201527f7265737300000000000000000000000000000000000000000000000000000000602082015250565b6000611204602483610d10565b915061120f826111a8565b604082019050919050565b60006020820190508181036000830152611233816111f7565b9050919050565b7f45524332303a20617070726f766520746f20746865207a65726f20616464726560008201527f7373000000000000000000000000000000000000000000000000000000000000602082015250565b6000611296602283610d10565b91506112a18261123a565b604082019050919050565b600060208201905081810360008301526112c581611289565b9050919050565b7f45524332303a20696e73756666696369656e7420616c6c6f77616e6365000000600082015250565b6000611302601d83610d10565b915061130d826112cc565b602082019050919050565b60006020820190508181036000830152611331816112f5565b9050919050565b7f45524332303a207472616e736665722066726f6d20746865207a65726f20616460008201527f6472657373000000000000000000000000000000000000000000000000000000602082015250565b6000611394602583610d10565b915061139f82611338565b604082019050919050565b600060208201905081810360008301526113c381611387565b9050919050565b7f45524332303a207472616e7366657220746f20746865207a65726f206164647260008201527f6573730000000000000000000000000000000000000000000000000000000000602082015250565b6000611426602383610d10565b9150611431826113ca565b604082019050919050565b6000602082019050818103600083015261145581611419565b9050919050565b7f45524332303a207472616e7366657220616d6f756e742065786365656473206260008201527f616c616e63650000000000000000000000000000000000000000000000000000602082015250565b60006114b8602683610d10565b91506114c38261145c565b604082019050919050565b600060208201905081810360008301526114e7816114ab565b9050919050565b7f45524332303a206d696e7420746f20746865207a65726f206164647265737300600082015250565b6000611524601f83610d10565b915061152f826114ee565b602082019050919050565b6000602082019050818103600083015261155381611517565b905091905056fea2646970667358221220ab9c1a17b9acc611b3dd670d2648ccbd25b6785fdc9d71838ab984bff9f4f56d64736f6c63430008110033",
  "linkReferences": {},
  "deployedLinkReferences": {}
}