{
  "_format": "hh-sol-artifact-1",
  "contractName": "MyERC721",
  "sourceName": "contracts/MyERC721.sol",
  "abi": [
    {
      "inputs": [
        {
          "internalType": "string",
          "name": "name",
          "type": "string"
        },
        {
          "internalType": "string",
          "name": "symbol",
          "type": "string"
        }
      ],
      "stateMutability": "nonpayable",
      "type": "constructor"
    },
    {
      "anonymous": false,
      "inputs": [
        {
          "indexed": true,
          "internalType": "address",
          "name": "owner",
          "type": "address"
        },
        {
          "indexed": true,
          "internalType": "address",
          "name": "approved",
          "type": "address"
        },
        {
          "indexed": true,
          "internalType": "uint256",
          "name": "tokenId",
          "type": "uint256"
        }
      ],
      "name": "Approval",
      "type": "event"
    },
    {
      "anonymous": false,
      "inputs": [
        {
          "indexed": true,
          "internalType": "address",
          "name": "owner",
          "type": "address"
        },
        {
          "indexed": true,
          "internalType": "address",
          "name": "operator",
          "type": "address"
        },
        {
          "indexed": false,
          "internalType": "bool",
          "name": "approved",
          "type": "bool"
        }
      ],
      "name": "ApprovalForAll",
      "type": "event"
    },
    {
      "anonymous": false,
      "inputs": [
        {
          "indexed": true,
          "internalType": "address",
          "name": "from",
          "type": "address"
        },
        {
          "indexed": true,
          "internalType": "address",
          "name": "to",
          "type": "address"
        },
        {
          "indexed": true,
          "internalType": "uint256",
          "name": "tokenId",
          "type": "uint256"
        }
      ],
      "name": "Transfer",
      "type": "event"
    },
    {
      "inputs": [
        {
          "internalType": "address",
          "name": "to",
          "type": "address"
        },
        {
          "internalType": "uint256",
          "name": "tokenId",
          "type": "uint256"
        }
      ],
      "name": "approve",
      "outputs": [],
      "stateMutability": "nonpayable",
      "type": "function"
    },
    {
      "inputs": [
        {
          "internalType": "address",
          "name": "user",
          "type": "address"
        },
        {
          "internalType": "string",
          "name": "tokenURI",
          "type": "string"
        }
      ],
      "name": "awardItem",
      "outputs": [],
      "stateMutability": "nonpayable",
      "type": "function"
    },
    {
      "inputs": [
        {
          "internalType": "address",
          "name": "owner",
          "type": "address"
        }
      ],
      "name": "balanceOf",
      "outputs": [
        {
          "internalType": "uint256",
          "name": "",
          "type": "uint256"
        }
      ],
      "stateMutability": "view",
      "type": "function"
    },
    {
      "inputs": [
        {
          "internalType": "uint256",
          "name": "tokenId",
          "type": "uint256"
        }
      ],
      "name": "getApproved",
      "outputs": [
        {
          "internalType": "address",
          "name": "",
          "type": "address"
        }
      ],
      "stateMutability": "view",
      "type": "function"
    },
    {
      "inputs": [
        {
          "internalType": "address",
          "name": "user",
          "type": "address"
        }
      ],
      "name": "getBonusInformation",
      "outputs": [
        {
          "internalType": "uint256[]",
          "name": "",
          "type": "uint256[]"
        },
        {
          "internalType": "string[]",
          "name": "",
          "type": "string[]"
        },
        {
          "internalType": "uint256[]",
          "name": "",
          "type": "uint256[]"
        }
      ],
      "stateMutability": "view",
      "type": "function"
    },
    {
      "inputs": [
        {
          "internalType": "address",
          "name": "user",
          "type": "address"
        },
        {
          "internalType": "string",
          "name": "tokenURI",
          "type": "string"
        }
      ],
      "name": "getWhetherUserCanGetBonusReward",
      "outputs": [
        {
          "internalType": "bool",
          "name": "",
          "type": "bool"
        }
      ],
      "stateMutability": "view",
      "type": "function"
    },
    {
      "inputs": [
        {
          "internalType": "address",
          "name": "owner",
          "type": "address"
        },
        {
          "internalType": "address",
          "name": "operator",
          "type": "address"
        }
      ],
      "name": "isApprovedForAll",
      "outputs": [
        {
          "internalType": "bool",
          "name": "",
          "type": "bool"
        }
      ],
      "stateMutability": "view",
      "type": "function"
    },
    {
      "inputs": [],
      "name": "name",
      "outputs": [
        {
          "internalType": "string",
          "name": "",
          "type": "string"
        }
      ],
      "stateMutability": "view",
      "type": "function"
    },
    {
      "inputs": [
        {
          "internalType": "uint256",
          "name": "tokenId",
          "type": "uint256"
        }
      ],
      "name": "ownerOf",
      "outputs": [
        {
          "internalType": "address",
          "name": "",
          "type": "address"
        }
      ],
      "stateMutability": "view",
      "type": "function"
    },
    {
      "inputs": [
        {
          "internalType": "address",
          "name": "from",
          "type": "address"
        },
        {
          "internalType": "address",
          "name": "to",
          "type": "address"
        },
        {
          "internalType": "uint256",
          "name": "tokenId",
          "type": "uint256"
        }
      ],
      "name": "safeTransferFrom",
      "outputs": [],
      "stateMutability": "nonpayable",
      "type": "function"
    },
    {
      "inputs": [
        {
          "internalType": "address",
          "name": "from",
          "type": "address"
        },
        {
          "internalType": "address",
          "name": "to",
          "type": "address"
        },
        {
          "internalType": "uint256",
          "name": "tokenId",
          "type": "uint256"
        },
        {
          "internalType": "bytes",
          "name": "data",
          "type": "bytes"
        }
      ],
      "name": "safeTransferFrom",
      "outputs": [],
      "stateMutability": "nonpayable",
      "type": "function"
    },
    {
      "inputs": [
        {
          "internalType": "address",
          "name": "operator",
          "type": "address"
        },
        {
          "internalType": "bool",
          "name": "approved",
          "type": "bool"
        }
      ],
      "name": "setApprovalForAll",
      "outputs": [],
      "stateMutability": "nonpayable",
      "type": "function"
    },
    {
      "inputs": [
        {
          "internalType": "bytes4",
          "name": "interfaceId",
          "type": "bytes4"
        }
      ],
      "name": "supportsInterface",
      "outputs": [
        {
          "internalType": "bool",
          "name": "",
          "type": "bool"
        }
      ],
      "stateMutability": "view",
      "type": "function"
    },
    {
      "inputs": [],
      "name": "symbol",
      "outputs": [
        {
          "internalType": "string",
          "name": "",
          "type": "string"
        }
      ],
      "stateMutability": "view",
      "type": "function"
    },
    {
      "inputs": [
        {
          "internalType": "uint256",
          "name": "tokenId",
          "type": "uint256"
        }
      ],
      "name": "tokenURI",
      "outputs": [
        {
          "internalType": "string",
          "name": "",
          "type": "string"
        }
      ],
      "stateMutability": "view",
      "type": "function"
    },
    {
      "inputs": [
        {
          "internalType": "address",
          "name": "from",
          "type": "address"
        },
        {
          "internalType": "address",
          "name": "to",
          "type": "address"
        },
        {
          "internalType": "uint256",
          "name": "tokenId",
          "type": "uint256"
        }
      ],
      "name": "transferFrom",
      "outputs": [],
      "stateMutability": "nonpayable",
      "type": "function"
    }
  ],
  "bytecode": "0x60806040523480156200001157600080fd5b5060405162001e2538038062001e25833981016040819052620000349162000136565b818160006200004483826200022f565b5060016200005382826200022f565b5050600880546001600160a01b0319163317905550620002fb915050565b634e487b7160e01b600052604160045260246000fd5b600082601f8301126200009957600080fd5b81516001600160401b0380821115620000b657620000b662000071565b604051601f8301601f19908116603f01168101908282118183101715620000e157620000e162000071565b81604052838152602092508683858801011115620000fe57600080fd5b600091505b8382101562000122578582018301518183018401529082019062000103565b600093810190920192909252949350505050565b600080604083850312156200014a57600080fd5b82516001600160401b03808211156200016257600080fd5b620001708683870162000087565b935060208501519150808211156200018757600080fd5b50620001968582860162000087565b9150509250929050565b600181811c90821680620001b557607f821691505b602082108103620001d657634e487b7160e01b600052602260045260246000fd5b50919050565b601f8211156200022a57600081815260208120601f850160051c81016020861015620002055750805b601f850160051c820191505b81811015620002265782815560010162000211565b5050505b505050565b81516001600160401b038111156200024b576200024b62000071565b62000263816200025c8454620001a0565b84620001dc565b602080601f8311600181146200029b5760008415620002825750858301515b600019600386901b1c1916600185901b17855562000226565b600085815260208120601f198616915b82811015620002cc57888601518255948401946001909101908401620002ab565b5085821015620002eb5787850151600019600388901b60f8161c191681555b5050505050600190811b01905550565b611b1a806200030b6000396000f3fe608060405234801561001057600080fd5b50600436106101005760003560e01c806370a0823111610097578063b88d4fde11610066578063b88d4fde1461022c578063c87b56dd1461023f578063cf37834314610252578063e985e9c51461026557600080fd5b806370a08231146101dd57806395d89b41146101fe578063a22cb46514610206578063a378496f1461021957600080fd5b806323b872dd116100d357806323b872dd146101825780633d4d04e11461019557806342842e0e146101b75780636352211e146101ca57600080fd5b806301ffc9a71461010557806306fdde031461012d578063081812fc14610142578063095ea7b31461016d575b600080fd5b6101186101133660046113df565b6102a1565b60405190151581526020015b60405180910390f35b6101356102f3565b604051610124919061144c565b61015561015036600461145f565b610385565b6040516001600160a01b039091168152602001610124565b61018061017b366004611494565b6103ac565b005b6101806101903660046114be565b6104c6565b6101a86101a33660046114fa565b6104f7565b60405161012493929190611550565b6101806101c53660046114be565b61071b565b6101556101d836600461145f565b610736565b6101f06101eb3660046114fa565b610796565b604051908152602001610124565b61013561081c565b6101806102143660046115d5565b61082b565b61011861022736600461169d565b61083a565b61018061023a3660046116ff565b61087d565b61013561024d36600461145f565b6108b5565b61018061026036600461169d565b6109c5565b61011861027336600461177b565b6001600160a01b03918216600090815260056020908152604080832093909416825291909152205460ff1690565b60006001600160e01b031982166380ac58cd60e01b14806102d257506001600160e01b03198216635b5e139f60e01b145b806102ed57506301ffc9a760e01b6001600160e01b03198316145b92915050565b606060008054610302906117ae565b80601f016020809104026020016040519081016040528092919081815260200182805461032e906117ae565b801561037b5780601f106103505761010080835404028352916020019161037b565b820191906000526020600020905b81548152906001019060200180831161035e57829003601f168201915b5050505050905090565b600061039082610b93565b506000908152600460205260409020546001600160a01b031690565b60006103b782610736565b9050806001600160a01b0316836001600160a01b0316036104295760405162461bcd60e51b815260206004820152602160248201527f4552433732313a20617070726f76616c20746f2063757272656e74206f776e656044820152603960f91b60648201526084015b60405180910390fd5b336001600160a01b038216148061044557506104458133610273565b6104b75760405162461bcd60e51b815260206004820152603e60248201527f4552433732313a20617070726f76652063616c6c6572206973206e6f7420746f60448201527f6b656e206f776e6572206e6f7220617070726f76656420666f7220616c6c00006064820152608401610420565b6104c18383610bf5565b505050565b6104d03382610c63565b6104ec5760405162461bcd60e51b8152600401610420906117e8565b6104c1838383610ce1565b60608060608060608060008080600960000160008b6001600160a01b03166001600160a01b03168152602001908152602001600020805480602002602001604051908101604052809291908181526020016000905b82821015610624578382906000526020600020906003020160405180606001604052908160008201548152602001600182018054610589906117ae565b80601f01602080910402602001604051908101604052809291908181526020018280546105b5906117ae565b80156106025780601f106105d757610100808354040283529160200191610602565b820191906000526020600020905b8154815290600101906020018083116105e557829003601f168201915b505050505081526020016002820154815250508152602001906001019061054c565b505050509050600091505b805182101561070a5780828151811061064a5761064a611836565b60200260200101516000015186848151811061066857610668611836565b60200260200101818152505080828151811061068657610686611836565b6020026020010151602001518584815181106106a4576106a4611836565b60200260200101819052508082815181106106c1576106c1611836565b6020026020010151604001518484815181106106df576106df611836565b6020908102919091010152826106f481611862565b935050818061070290611862565b92505061062f565b509398929750909550909350505050565b6104c18383836040518060200160405280600081525061087d565b6000818152600260205260408120546001600160a01b0316806102ed5760405162461bcd60e51b8152602060048201526018602482015277115490cdcc8c4e881a5b9d985b1a59081d1bdad95b88125160421b6044820152606401610420565b60006001600160a01b0382166108005760405162461bcd60e51b815260206004820152602960248201527f4552433732313a2061646472657373207a65726f206973206e6f7420612076616044820152683634b21037bbb732b960b91b6064820152608401610420565b506001600160a01b031660009081526003602052604090205490565b606060018054610302906117ae565b610836338383610e7d565b5050565b6000600a8260405161084c919061187b565b90815260408051602092819003830190206001600160a01b0386166000908152925290205460ff1615905092915050565b6108873383610c63565b6108a35760405162461bcd60e51b8152600401610420906117e8565b6108af84848484610f4b565b50505050565b60606108c082610b93565b600082815260066020526040812080546108d9906117ae565b80601f0160208091040260200160405190810160405280929190818152602001828054610905906117ae565b80156109525780601f1061092757610100808354040283529160200191610952565b820191906000526020600020905b81548152906001019060200180831161093557829003601f168201915b50505050509050600061097060408051602081019091526000815290565b90508051600003610982575092915050565b8151156109b457808260405160200161099c929190611897565b60405160208183030381529060405292505050919050565b6109bd84610f7e565b949350505050565b6008546001600160a01b03163314610a325760405162461bcd60e51b815260206004820152602a60248201527f4f6e6c792073797374656d2063616e206163636573732061776172644974656d60448201526910333ab731ba34b7b71760b11b6064820152608401610420565b600a81604051610a42919061187b565b9081526040805160209281900383019020336000908152925290205460ff1615610abe5760405162461bcd60e51b815260206004820152602760248201527f596f75206861766520676f742074686973206b696e64206f6620626f6e757320604482015266616c726561647960c81b6064820152608401610420565b6001600a82604051610ad0919061187b565b908152604080516020928190038301902033600090815292528120805460ff1916921515929092179091556007549050610b0a8382610ff2565b610b148183611134565b610b22600780546001019055565b60408051606081018252828152602080820185815242838501526001600160a01b038716600090815260098352938420805460018181018355918652929094208351600390930201918255519192839290820190610b809082611914565b5060408201518160020155505050505050565b6000818152600260205260409020546001600160a01b0316610bf25760405162461bcd60e51b8152602060048201526018602482015277115490cdcc8c4e881a5b9d985b1a59081d1bdad95b88125160421b6044820152606401610420565b50565b600081815260046020526040902080546001600160a01b0319166001600160a01b0384169081179091558190610c2a82610736565b6001600160a01b03167f8c5be1e5ebec7d5bd14f71427d1e84f3dd0314c0f7b2291e5b200ac8c7c3b92560405160405180910390a45050565b600080610c6f83610736565b9050806001600160a01b0316846001600160a01b03161480610cb657506001600160a01b0380821660009081526005602090815260408083209388168352929052205460ff165b806109bd5750836001600160a01b0316610ccf84610385565b6001600160a01b031614949350505050565b826001600160a01b0316610cf482610736565b6001600160a01b031614610d585760405162461bcd60e51b815260206004820152602560248201527f4552433732313a207472616e736665722066726f6d20696e636f72726563742060448201526437bbb732b960d91b6064820152608401610420565b6001600160a01b038216610dba5760405162461bcd60e51b8152602060048201526024808201527f4552433732313a207472616e7366657220746f20746865207a65726f206164646044820152637265737360e01b6064820152608401610420565b610dc5600082610bf5565b6001600160a01b0383166000908152600360205260408120805460019290610dee9084906119d4565b90915550506001600160a01b0382166000908152600360205260408120805460019290610e1c9084906119e7565b909155505060008181526002602052604080822080546001600160a01b0319166001600160a01b0386811691821790925591518493918716917fddf252ad1be2c89b69c2b068fc378daa952ba7f163c4a11628f55a4df523b3ef91a4505050565b816001600160a01b0316836001600160a01b031603610ede5760405162461bcd60e51b815260206004820152601960248201527f4552433732313a20617070726f766520746f2063616c6c6572000000000000006044820152606401610420565b6001600160a01b03838116600081815260056020908152604080832094871680845294825291829020805460ff191686151590811790915591519182527f17307eab39ab6107e8899845ad3d59bd9653f200f220920489ca2b5937696c31910160405180910390a3505050565b610f56848484610ce1565b610f62848484846111c7565b6108af5760405162461bcd60e51b8152600401610420906119fa565b6060610f8982610b93565b6000610fa060408051602081019091526000815290565b90506000815111610fc05760405180602001604052806000815250610feb565b80610fca846112c8565b604051602001610fdb929190611897565b6040516020818303038152906040525b9392505050565b6001600160a01b0382166110485760405162461bcd60e51b815260206004820181905260248201527f4552433732313a206d696e7420746f20746865207a65726f20616464726573736044820152606401610420565b6000818152600260205260409020546001600160a01b0316156110ad5760405162461bcd60e51b815260206004820152601c60248201527f4552433732313a20746f6b656e20616c7265616479206d696e746564000000006044820152606401610420565b6001600160a01b03821660009081526003602052604081208054600192906110d69084906119e7565b909155505060008181526002602052604080822080546001600160a01b0319166001600160a01b03861690811790915590518392907fddf252ad1be2c89b69c2b068fc378daa952ba7f163c4a11628f55a4df523b3ef908290a45050565b6000828152600260205260409020546001600160a01b03166111af5760405162461bcd60e51b815260206004820152602e60248201527f45524337323155524953746f726167653a2055524920736574206f66206e6f6e60448201526d32bc34b9ba32b73a103a37b5b2b760911b6064820152608401610420565b60008281526006602052604090206104c18282611914565b60006001600160a01b0384163b156112bd57604051630a85bd0160e11b81526001600160a01b0385169063150b7a029061120b903390899088908890600401611a4c565b6020604051808303816000875af1925050508015611246575060408051601f3d908101601f1916820190925261124391810190611a89565b60015b6112a3573d808015611274576040519150601f19603f3d011682016040523d82523d6000602084013e611279565b606091505b50805160000361129b5760405162461bcd60e51b8152600401610420906119fa565b805181602001fd5b6001600160e01b031916630a85bd0160e11b1490506109bd565b506001949350505050565b6060816000036112ef5750506040805180820190915260018152600360fc1b602082015290565b8160005b8115611319578061130381611862565b91506113129050600a83611abc565b91506112f3565b60008167ffffffffffffffff81111561133457611334611611565b6040519080825280601f01601f19166020018201604052801561135e576020820181803683370190505b5090505b84156109bd576113736001836119d4565b9150611380600a86611ad0565b61138b9060306119e7565b60f81b8183815181106113a0576113a0611836565b60200101906001600160f81b031916908160001a9053506113c2600a86611abc565b9450611362565b6001600160e01b031981168114610bf257600080fd5b6000602082840312156113f157600080fd5b8135610feb816113c9565b60005b838110156114175781810151838201526020016113ff565b50506000910152565b600081518084526114388160208601602086016113fc565b601f01601f19169290920160200192915050565b602081526000610feb6020830184611420565b60006020828403121561147157600080fd5b5035919050565b80356001600160a01b038116811461148f57600080fd5b919050565b600080604083850312156114a757600080fd5b6114b083611478565b946020939093013593505050565b6000806000606084860312156114d357600080fd5b6114dc84611478565b92506114ea60208501611478565b9150604084013590509250925092565b60006020828403121561150c57600080fd5b610feb82611478565b600081518084526020808501945080840160005b8381101561154557815187529582019590820190600101611529565b509495945050505050565b6060815260006115636060830186611515565b6020838203818501528186518084528284019150828160051b85010183890160005b838110156115b357601f198784030185526115a1838351611420565b94860194925090850190600101611585565b505086810360408801526115c78189611515565b9a9950505050505050505050565b600080604083850312156115e857600080fd5b6115f183611478565b91506020830135801515811461160657600080fd5b809150509250929050565b634e487b7160e01b600052604160045260246000fd5b600067ffffffffffffffff8084111561164257611642611611565b604051601f8501601f19908116603f0116810190828211818310171561166a5761166a611611565b8160405280935085815286868601111561168357600080fd5b858560208301376000602087830101525050509392505050565b600080604083850312156116b057600080fd5b6116b983611478565b9150602083013567ffffffffffffffff8111156116d557600080fd5b8301601f810185136116e657600080fd5b6116f585823560208401611627565b9150509250929050565b6000806000806080858703121561171557600080fd5b61171e85611478565b935061172c60208601611478565b925060408501359150606085013567ffffffffffffffff81111561174f57600080fd5b8501601f8101871361176057600080fd5b61176f87823560208401611627565b91505092959194509250565b6000806040838503121561178e57600080fd5b61179783611478565b91506117a560208401611478565b90509250929050565b600181811c908216806117c257607f821691505b6020821081036117e257634e487b7160e01b600052602260045260246000fd5b50919050565b6020808252602e908201527f4552433732313a2063616c6c6572206973206e6f7420746f6b656e206f776e6560408201526d1c881b9bdc88185c1c1c9bdd995960921b606082015260800190565b634e487b7160e01b600052603260045260246000fd5b634e487b7160e01b600052601160045260246000fd5b6000600182016118745761187461184c565b5060010190565b6000825161188d8184602087016113fc565b9190910192915050565b600083516118a98184602088016113fc565b8351908301906118bd8183602088016113fc565b01949350505050565b601f8211156104c157600081815260208120601f850160051c810160208610156118ed5750805b601f850160051c820191505b8181101561190c578281556001016118f9565b505050505050565b815167ffffffffffffffff81111561192e5761192e611611565b6119428161193c84546117ae565b846118c6565b602080601f831160018114611977576000841561195f5750858301515b600019600386901b1c1916600185901b17855561190c565b600085815260208120601f198616915b828110156119a657888601518255948401946001909101908401611987565b50858210156119c45787850151600019600388901b60f8161c191681555b5050505050600190811b01905550565b818103818111156102ed576102ed61184c565b808201808211156102ed576102ed61184c565b60208082526032908201527f4552433732313a207472616e7366657220746f206e6f6e20455243373231526560408201527131b2b4bb32b91034b6b83632b6b2b73a32b960711b606082015260800190565b6001600160a01b0385811682528416602082015260408101839052608060608201819052600090611a7f90830184611420565b9695505050505050565b600060208284031215611a9b57600080fd5b8151610feb816113c9565b634e487b7160e01b600052601260045260246000fd5b600082611acb57611acb611aa6565b500490565b600082611adf57611adf611aa6565b50069056fea2646970667358221220c6c4d66fd0fafbed0a6c9bb2701256cace33de4b394cef194e63c6ea6dc02efa64736f6c63430008110033",
  "linkReferences": {},
  "deployedLinkReferences": {}
}