{
  "_format": "hh-sol-artifact-1",
  "contractName": "MyERC721",
  "sourceName": "contracts/MyERC721.sol",
  "abi": [
    {
      "inputs": [
        {
          "internalType": "string",
          "name": "name",
          "type": "string"
        },
        {
          "internalType": "string",
          "name": "symbol",
          "type": "string"
        }
      ],
      "stateMutability": "nonpayable",
      "type": "constructor"
    },
    {
      "anonymous": false,
      "inputs": [
        {
          "indexed": true,
          "internalType": "address",
          "name": "owner",
          "type": "address"
        },
        {
          "indexed": true,
          "internalType": "address",
          "name": "approved",
          "type": "address"
        },
        {
          "indexed": true,
          "internalType": "uint256",
          "name": "tokenId",
          "type": "uint256"
        }
      ],
      "name": "Approval",
      "type": "event"
    },
    {
      "anonymous": false,
      "inputs": [
        {
          "indexed": true,
          "internalType": "address",
          "name": "owner",
          "type": "address"
        },
        {
          "indexed": true,
          "internalType": "address",
          "name": "operator",
          "type": "address"
        },
        {
          "indexed": false,
          "internalType": "bool",
          "name": "approved",
          "type": "bool"
        }
      ],
      "name": "ApprovalForAll",
      "type": "event"
    },
    {
      "anonymous": false,
      "inputs": [
        {
          "indexed": true,
          "internalType": "address",
          "name": "from",
          "type": "address"
        },
        {
          "indexed": true,
          "internalType": "address",
          "name": "to",
          "type": "address"
        },
        {
          "indexed": true,
          "internalType": "uint256",
          "name": "tokenId",
          "type": "uint256"
        }
      ],
      "name": "Transfer",
      "type": "event"
    },
    {
      "inputs": [
        {
          "internalType": "address",
          "name": "to",
          "type": "address"
        },
        {
          "internalType": "uint256",
          "name": "tokenId",
          "type": "uint256"
        }
      ],
      "name": "approve",
      "outputs": [],
      "stateMutability": "nonpayable",
      "type": "function"
    },
    {
      "inputs": [
        {
          "internalType": "address",
          "name": "user",
          "type": "address"
        },
        {
          "internalType": "string",
          "name": "tokenURI",
          "type": "string"
        }
      ],
      "name": "awardItem",
      "outputs": [],
      "stateMutability": "nonpayable",
      "type": "function"
    },
    {
      "inputs": [
        {
          "internalType": "address",
          "name": "owner",
          "type": "address"
        }
      ],
      "name": "balanceOf",
      "outputs": [
        {
          "internalType": "uint256",
          "name": "",
          "type": "uint256"
        }
      ],
      "stateMutability": "view",
      "type": "function"
    },
    {
      "inputs": [
        {
          "internalType": "uint256",
          "name": "tokenId",
          "type": "uint256"
        }
      ],
      "name": "getApproved",
      "outputs": [
        {
          "internalType": "address",
          "name": "",
          "type": "address"
        }
      ],
      "stateMutability": "view",
      "type": "function"
    },
    {
      "inputs": [
        {
          "internalType": "address",
          "name": "user",
          "type": "address"
        }
      ],
      "name": "getBonusInformation",
      "outputs": [
        {
          "internalType": "uint256[]",
          "name": "",
          "type": "uint256[]"
        },
        {
          "internalType": "string[]",
          "name": "",
          "type": "string[]"
        },
        {
          "internalType": "uint256[]",
          "name": "",
          "type": "uint256[]"
        }
      ],
      "stateMutability": "view",
      "type": "function"
    },
    {
      "inputs": [
        {
          "internalType": "address",
          "name": "user",
          "type": "address"
        },
        {
          "internalType": "string",
          "name": "tokenURI",
          "type": "string"
        }
      ],
      "name": "getWhetherUserCanGetBonusReward",
      "outputs": [
        {
          "internalType": "bool",
          "name": "",
          "type": "bool"
        }
      ],
      "stateMutability": "view",
      "type": "function"
    },
    {
      "inputs": [
        {
          "internalType": "address",
          "name": "owner",
          "type": "address"
        },
        {
          "internalType": "address",
          "name": "operator",
          "type": "address"
        }
      ],
      "name": "isApprovedForAll",
      "outputs": [
        {
          "internalType": "bool",
          "name": "",
          "type": "bool"
        }
      ],
      "stateMutability": "view",
      "type": "function"
    },
    {
      "inputs": [],
      "name": "name",
      "outputs": [
        {
          "internalType": "string",
          "name": "",
          "type": "string"
        }
      ],
      "stateMutability": "view",
      "type": "function"
    },
    {
      "inputs": [
        {
          "internalType": "uint256",
          "name": "tokenId",
          "type": "uint256"
        }
      ],
      "name": "ownerOf",
      "outputs": [
        {
          "internalType": "address",
          "name": "",
          "type": "address"
        }
      ],
      "stateMutability": "view",
      "type": "function"
    },
    {
      "inputs": [
        {
          "internalType": "address",
          "name": "from",
          "type": "address"
        },
        {
          "internalType": "address",
          "name": "to",
          "type": "address"
        },
        {
          "internalType": "uint256",
          "name": "tokenId",
          "type": "uint256"
        }
      ],
      "name": "safeTransferFrom",
      "outputs": [],
      "stateMutability": "nonpayable",
      "type": "function"
    },
    {
      "inputs": [
        {
          "internalType": "address",
          "name": "from",
          "type": "address"
        },
        {
          "internalType": "address",
          "name": "to",
          "type": "address"
        },
        {
          "internalType": "uint256",
          "name": "tokenId",
          "type": "uint256"
        },
        {
          "internalType": "bytes",
          "name": "data",
          "type": "bytes"
        }
      ],
      "name": "safeTransferFrom",
      "outputs": [],
      "stateMutability": "nonpayable",
      "type": "function"
    },
    {
      "inputs": [
        {
          "internalType": "address",
          "name": "operator",
          "type": "address"
        },
        {
          "internalType": "bool",
          "name": "approved",
          "type": "bool"
        }
      ],
      "name": "setApprovalForAll",
      "outputs": [],
      "stateMutability": "nonpayable",
      "type": "function"
    },
    {
      "inputs": [
        {
          "internalType": "bytes4",
          "name": "interfaceId",
          "type": "bytes4"
        }
      ],
      "name": "supportsInterface",
      "outputs": [
        {
          "internalType": "bool",
          "name": "",
          "type": "bool"
        }
      ],
      "stateMutability": "view",
      "type": "function"
    },
    {
      "inputs": [],
      "name": "symbol",
      "outputs": [
        {
          "internalType": "string",
          "name": "",
          "type": "string"
        }
      ],
      "stateMutability": "view",
      "type": "function"
    },
    {
      "inputs": [
        {
          "internalType": "uint256",
          "name": "tokenId",
          "type": "uint256"
        }
      ],
      "name": "tokenURI",
      "outputs": [
        {
          "internalType": "string",
          "name": "",
          "type": "string"
        }
      ],
      "stateMutability": "view",
      "type": "function"
    },
    {
      "inputs": [
        {
          "internalType": "address",
          "name": "from",
          "type": "address"
        },
        {
          "internalType": "address",
          "name": "to",
          "type": "address"
        },
        {
          "internalType": "uint256",
          "name": "tokenId",
          "type": "uint256"
        }
      ],
      "name": "transferFrom",
      "outputs": [],
      "stateMutability": "nonpayable",
      "type": "function"
    }
  ],
  "bytecode": "0x60806040523480156200001157600080fd5b5060405162001ee938038062001ee9833981016040819052620000349162000136565b818160006200004483826200022f565b5060016200005382826200022f565b5050600880546001600160a01b0319163317905550620002fb915050565b634e487b7160e01b600052604160045260246000fd5b600082601f8301126200009957600080fd5b81516001600160401b0380821115620000b657620000b662000071565b604051601f8301601f19908116603f01168101908282118183101715620000e157620000e162000071565b81604052838152602092508683858801011115620000fe57600080fd5b600091505b8382101562000122578582018301518183018401529082019062000103565b600093810190920192909252949350505050565b600080604083850312156200014a57600080fd5b82516001600160401b03808211156200016257600080fd5b620001708683870162000087565b935060208501519150808211156200018757600080fd5b50620001968582860162000087565b9150509250929050565b600181811c90821680620001b557607f821691505b602082108103620001d657634e487b7160e01b600052602260045260246000fd5b50919050565b601f8211156200022a57600081815260208120601f850160051c81016020861015620002055750805b601f850160051c820191505b81811015620002265782815560010162000211565b5050505b505050565b81516001600160401b038111156200024b576200024b62000071565b62000263816200025c8454620001a0565b84620001dc565b602080601f8311600181146200029b5760008415620002825750858301515b600019600386901b1c1916600185901b17855562000226565b600085815260208120601f198616915b82811015620002cc57888601518255948401946001909101908401620002ab565b5085821015620002eb5787850151600019600388901b60f8161c191681555b5050505050600190811b01905550565b611bde806200030b6000396000f3fe608060405234801561001057600080fd5b50600436106101005760003560e01c806370a0823111610097578063b88d4fde11610066578063b88d4fde1461022c578063c87b56dd1461023f578063cf37834314610252578063e985e9c51461026557600080fd5b806370a08231146101dd57806395d89b41146101fe578063a22cb46514610206578063a378496f1461021957600080fd5b806323b872dd116100d357806323b872dd146101825780633d4d04e11461019557806342842e0e146101b75780636352211e146101ca57600080fd5b806301ffc9a71461010557806306fdde031461012d578063081812fc14610142578063095ea7b31461016d575b600080fd5b6101186101133660046114a3565b6102a1565b60405190151581526020015b60405180910390f35b6101356102f3565b6040516101249190611510565b610155610150366004611523565b610385565b6040516001600160a01b039091168152602001610124565b61018061017b366004611558565b6103ac565b005b610180610190366004611582565b6104c6565b6101a86101a33660046115be565b6104f7565b60405161012493929190611614565b6101806101c5366004611582565b6107d6565b6101556101d8366004611523565b6107f1565b6101f06101eb3660046115be565b610851565b604051908152602001610124565b6101356108d7565b610180610214366004611699565b6108e6565b610118610227366004611761565b6108f5565b61018061023a3660046117c3565b610938565b61013561024d366004611523565b610970565b610180610260366004611761565b610a80565b61011861027336600461183f565b6001600160a01b03918216600090815260056020908152604080832093909416825291909152205460ff1690565b60006001600160e01b031982166380ac58cd60e01b14806102d257506001600160e01b03198216635b5e139f60e01b145b806102ed57506301ffc9a760e01b6001600160e01b03198316145b92915050565b60606000805461030290611872565b80601f016020809104026020016040519081016040528092919081815260200182805461032e90611872565b801561037b5780601f106103505761010080835404028352916020019161037b565b820191906000526020600020905b81548152906001019060200180831161035e57829003601f168201915b5050505050905090565b600061039082610c57565b506000908152600460205260409020546001600160a01b031690565b60006103b7826107f1565b9050806001600160a01b0316836001600160a01b0316036104295760405162461bcd60e51b815260206004820152602160248201527f4552433732313a20617070726f76616c20746f2063757272656e74206f776e656044820152603960f91b60648201526084015b60405180910390fd5b336001600160a01b038216148061044557506104458133610273565b6104b75760405162461bcd60e51b815260206004820152603e60248201527f4552433732313a20617070726f76652063616c6c6572206973206e6f7420746f60448201527f6b656e206f776e6572206e6f7220617070726f76656420666f7220616c6c00006064820152608401610420565b6104c18383610cb9565b505050565b6104d03382610d27565b6104ec5760405162461bcd60e51b8152600401610420906118ac565b6104c1838383610da5565b6001600160a01b0381166000908152600960209081526040808320805482518185028101850190935280835260609485948594919384939091849084015b8282101561060d57838290600052602060002090600302016040518060600160405290816000820154815260200160018201805461057290611872565b80601f016020809104026020016040519081016040528092919081815260200182805461059e90611872565b80156105eb5780601f106105c0576101008083540402835291602001916105eb565b820191906000526020600020905b8154815290600101906020018083116105ce57829003601f168201915b5050505050815260200160028201548152505081526020019060010190610535565b5050505090506000815167ffffffffffffffff81111561062f5761062f6116d5565b604051908082528060200260200182016040528015610658578160200160208202803683370190505b5090506000825167ffffffffffffffff811115610677576106776116d5565b6040519080825280602002602001820160405280156106aa57816020015b60608152602001906001900390816106955790505b5090506000835167ffffffffffffffff8111156106c9576106c96116d5565b6040519080825280602002602001820160405280156106f2578160200160208202803683370190505b509050600094505b83518510156107c757838581518110610715576107156118fa565b602002602001015160000151838681518110610733576107336118fa565b602002602001018181525050838581518110610751576107516118fa565b60200260200101516020015182868151811061076f5761076f6118fa565b602002602001018190525083858151811061078c5761078c6118fa565b6020026020010151604001518186815181106107aa576107aa6118fa565b6020908102919091010152846107bf81611926565b9550506106fa565b91989097509095509350505050565b6104c183838360405180602001604052806000815250610938565b6000818152600260205260408120546001600160a01b0316806102ed5760405162461bcd60e51b8152602060048201526018602482015277115490cdcc8c4e881a5b9d985b1a59081d1bdad95b88125160421b6044820152606401610420565b60006001600160a01b0382166108bb5760405162461bcd60e51b815260206004820152602960248201527f4552433732313a2061646472657373207a65726f206973206e6f7420612076616044820152683634b21037bbb732b960b91b6064820152608401610420565b506001600160a01b031660009081526003602052604090205490565b60606001805461030290611872565b6108f1338383610f41565b5050565b6000600a82604051610907919061193f565b90815260408051602092819003830190206001600160a01b0386166000908152925290205460ff1615905092915050565b6109423383610d27565b61095e5760405162461bcd60e51b8152600401610420906118ac565b61096a8484848461100f565b50505050565b606061097b82610c57565b6000828152600660205260408120805461099490611872565b80601f01602080910402602001604051908101604052809291908181526020018280546109c090611872565b8015610a0d5780601f106109e257610100808354040283529160200191610a0d565b820191906000526020600020905b8154815290600101906020018083116109f057829003601f168201915b505050505090506000610a2b60408051602081019091526000815290565b90508051600003610a3d575092915050565b815115610a6f578082604051602001610a5792919061195b565b60405160208183030381529060405292505050919050565b610a7884611042565b949350505050565b6008546001600160a01b03163314610aed5760405162461bcd60e51b815260206004820152602a60248201527f4f6e6c792073797374656d2063616e206163636573732061776172644974656d60448201526910333ab731ba34b7b71760b11b6064820152608401610420565b600a81604051610afd919061193f565b9081526040805160209281900383019020336000908152925290205460ff1615610b795760405162461bcd60e51b815260206004820152602760248201527f596f75206861766520676f742074686973206b696e64206f6620626f6e757320604482015266616c726561647960c81b6064820152608401610420565b6001600a82604051610b8b919061193f565b90815260408051602092819003830190206001600160a01b038616600090815292528120805460ff1916921515929092179091556007549050610bce83826110b6565b610bd881836111f8565b610be6600780546001019055565b60408051606081018252828152602080820185815242838501526001600160a01b038716600090815260098352938420805460018181018355918652929094208351600390930201918255519192839290820190610c4490826119d8565b5060408201518160020155505050505050565b6000818152600260205260409020546001600160a01b0316610cb65760405162461bcd60e51b8152602060048201526018602482015277115490cdcc8c4e881a5b9d985b1a59081d1bdad95b88125160421b6044820152606401610420565b50565b600081815260046020526040902080546001600160a01b0319166001600160a01b0384169081179091558190610cee826107f1565b6001600160a01b03167f8c5be1e5ebec7d5bd14f71427d1e84f3dd0314c0f7b2291e5b200ac8c7c3b92560405160405180910390a45050565b600080610d33836107f1565b9050806001600160a01b0316846001600160a01b03161480610d7a57506001600160a01b0380821660009081526005602090815260408083209388168352929052205460ff165b80610a785750836001600160a01b0316610d9384610385565b6001600160a01b031614949350505050565b826001600160a01b0316610db8826107f1565b6001600160a01b031614610e1c5760405162461bcd60e51b815260206004820152602560248201527f4552433732313a207472616e736665722066726f6d20696e636f72726563742060448201526437bbb732b960d91b6064820152608401610420565b6001600160a01b038216610e7e5760405162461bcd60e51b8152602060048201526024808201527f4552433732313a207472616e7366657220746f20746865207a65726f206164646044820152637265737360e01b6064820152608401610420565b610e89600082610cb9565b6001600160a01b0383166000908152600360205260408120805460019290610eb2908490611a98565b90915550506001600160a01b0382166000908152600360205260408120805460019290610ee0908490611aab565b909155505060008181526002602052604080822080546001600160a01b0319166001600160a01b0386811691821790925591518493918716917fddf252ad1be2c89b69c2b068fc378daa952ba7f163c4a11628f55a4df523b3ef91a4505050565b816001600160a01b0316836001600160a01b031603610fa25760405162461bcd60e51b815260206004820152601960248201527f4552433732313a20617070726f766520746f2063616c6c6572000000000000006044820152606401610420565b6001600160a01b03838116600081815260056020908152604080832094871680845294825291829020805460ff191686151590811790915591519182527f17307eab39ab6107e8899845ad3d59bd9653f200f220920489ca2b5937696c31910160405180910390a3505050565b61101a848484610da5565b6110268484848461128b565b61096a5760405162461bcd60e51b815260040161042090611abe565b606061104d82610c57565b600061106460408051602081019091526000815290565b9050600081511161108457604051806020016040528060008152506110af565b8061108e8461138c565b60405160200161109f92919061195b565b6040516020818303038152906040525b9392505050565b6001600160a01b03821661110c5760405162461bcd60e51b815260206004820181905260248201527f4552433732313a206d696e7420746f20746865207a65726f20616464726573736044820152606401610420565b6000818152600260205260409020546001600160a01b0316156111715760405162461bcd60e51b815260206004820152601c60248201527f4552433732313a20746f6b656e20616c7265616479206d696e746564000000006044820152606401610420565b6001600160a01b038216600090815260036020526040812080546001929061119a908490611aab565b909155505060008181526002602052604080822080546001600160a01b0319166001600160a01b03861690811790915590518392907fddf252ad1be2c89b69c2b068fc378daa952ba7f163c4a11628f55a4df523b3ef908290a45050565b6000828152600260205260409020546001600160a01b03166112735760405162461bcd60e51b815260206004820152602e60248201527f45524337323155524953746f726167653a2055524920736574206f66206e6f6e60448201526d32bc34b9ba32b73a103a37b5b2b760911b6064820152608401610420565b60008281526006602052604090206104c182826119d8565b60006001600160a01b0384163b1561138157604051630a85bd0160e11b81526001600160a01b0385169063150b7a02906112cf903390899088908890600401611b10565b6020604051808303816000875af192505050801561130a575060408051601f3d908101601f1916820190925261130791810190611b4d565b60015b611367573d808015611338576040519150601f19603f3d011682016040523d82523d6000602084013e61133d565b606091505b50805160000361135f5760405162461bcd60e51b815260040161042090611abe565b805181602001fd5b6001600160e01b031916630a85bd0160e11b149050610a78565b506001949350505050565b6060816000036113b35750506040805180820190915260018152600360fc1b602082015290565b8160005b81156113dd57806113c781611926565b91506113d69050600a83611b80565b91506113b7565b60008167ffffffffffffffff8111156113f8576113f86116d5565b6040519080825280601f01601f191660200182016040528015611422576020820181803683370190505b5090505b8415610a7857611437600183611a98565b9150611444600a86611b94565b61144f906030611aab565b60f81b818381518110611464576114646118fa565b60200101906001600160f81b031916908160001a905350611486600a86611b80565b9450611426565b6001600160e01b031981168114610cb657600080fd5b6000602082840312156114b557600080fd5b81356110af8161148d565b60005b838110156114db5781810151838201526020016114c3565b50506000910152565b600081518084526114fc8160208601602086016114c0565b601f01601f19169290920160200192915050565b6020815260006110af60208301846114e4565b60006020828403121561153557600080fd5b5035919050565b80356001600160a01b038116811461155357600080fd5b919050565b6000806040838503121561156b57600080fd5b6115748361153c565b946020939093013593505050565b60008060006060848603121561159757600080fd5b6115a08461153c565b92506115ae6020850161153c565b9150604084013590509250925092565b6000602082840312156115d057600080fd5b6110af8261153c565b600081518084526020808501945080840160005b83811015611609578151875295820195908201906001016115ed565b509495945050505050565b60608152600061162760608301866115d9565b6020838203818501528186518084528284019150828160051b85010183890160005b8381101561167757601f198784030185526116658383516114e4565b94860194925090850190600101611649565b5050868103604088015261168b81896115d9565b9a9950505050505050505050565b600080604083850312156116ac57600080fd5b6116b58361153c565b9150602083013580151581146116ca57600080fd5b809150509250929050565b634e487b7160e01b600052604160045260246000fd5b600067ffffffffffffffff80841115611706576117066116d5565b604051601f8501601f19908116603f0116810190828211818310171561172e5761172e6116d5565b8160405280935085815286868601111561174757600080fd5b858560208301376000602087830101525050509392505050565b6000806040838503121561177457600080fd5b61177d8361153c565b9150602083013567ffffffffffffffff81111561179957600080fd5b8301601f810185136117aa57600080fd5b6117b9858235602084016116eb565b9150509250929050565b600080600080608085870312156117d957600080fd5b6117e28561153c565b93506117f06020860161153c565b925060408501359150606085013567ffffffffffffffff81111561181357600080fd5b8501601f8101871361182457600080fd5b611833878235602084016116eb565b91505092959194509250565b6000806040838503121561185257600080fd5b61185b8361153c565b91506118696020840161153c565b90509250929050565b600181811c9082168061188657607f821691505b6020821081036118a657634e487b7160e01b600052602260045260246000fd5b50919050565b6020808252602e908201527f4552433732313a2063616c6c6572206973206e6f7420746f6b656e206f776e6560408201526d1c881b9bdc88185c1c1c9bdd995960921b606082015260800190565b634e487b7160e01b600052603260045260246000fd5b634e487b7160e01b600052601160045260246000fd5b60006001820161193857611938611910565b5060010190565b600082516119518184602087016114c0565b9190910192915050565b6000835161196d8184602088016114c0565b8351908301906119818183602088016114c0565b01949350505050565b601f8211156104c157600081815260208120601f850160051c810160208610156119b15750805b601f850160051c820191505b818110156119d0578281556001016119bd565b505050505050565b815167ffffffffffffffff8111156119f2576119f26116d5565b611a0681611a008454611872565b8461198a565b602080601f831160018114611a3b5760008415611a235750858301515b600019600386901b1c1916600185901b1785556119d0565b600085815260208120601f198616915b82811015611a6a57888601518255948401946001909101908401611a4b565b5085821015611a885787850151600019600388901b60f8161c191681555b5050505050600190811b01905550565b818103818111156102ed576102ed611910565b808201808211156102ed576102ed611910565b60208082526032908201527f4552433732313a207472616e7366657220746f206e6f6e20455243373231526560408201527131b2b4bb32b91034b6b83632b6b2b73a32b960711b606082015260800190565b6001600160a01b0385811682528416602082015260408101839052608060608201819052600090611b43908301846114e4565b9695505050505050565b600060208284031215611b5f57600080fd5b81516110af8161148d565b634e487b7160e01b600052601260045260246000fd5b600082611b8f57611b8f611b6a565b500490565b600082611ba357611ba3611b6a565b50069056fea2646970667358221220429814a7997d7cc5294691cbe179df32c050a97852cd17e5bea0a580dd04dc9d64736f6c63430008110033",
  "linkReferences": {},
  "deployedLinkReferences": {}
}